{
  "contractName": "ConstantFlowAgreementV1",
  "abi": [
    {
      "inputs": [
        {
          "internalType": "contract ISuperfluid",
          "name": "host",
          "type": "address"
        }
      ],
      "stateMutability": "nonpayable",
      "type": "constructor"
    },
    {
      "inputs": [],
      "name": "AGREEMENT_BASE_ONLY_HOST",
      "type": "error"
    },
    {
      "inputs": [
        {
          "internalType": "uint256",
          "name": "_code",
          "type": "uint256"
        }
      ],
      "name": "APP_RULE",
      "type": "error"
    },
    {
      "inputs": [],
      "name": "CFA_ACL_FLOW_RATE_ALLOWANCE_EXCEEDED",
      "type": "error"
    },
    {
      "inputs": [],
      "name": "CFA_ACL_NO_NEGATIVE_ALLOWANCE",
      "type": "error"
    },
    {
      "inputs": [],
      "name": "CFA_ACL_NO_SENDER_CREATE",
      "type": "error"
    },
    {
      "inputs": [],
      "name": "CFA_ACL_NO_SENDER_FLOW_OPERATOR",
      "type": "error"
    },
    {
      "inputs": [],
      "name": "CFA_ACL_NO_SENDER_UPDATE",
      "type": "error"
    },
    {
      "inputs": [],
      "name": "CFA_ACL_OPERATOR_NO_CREATE_PERMISSIONS",
      "type": "error"
    },
    {
      "inputs": [],
      "name": "CFA_ACL_OPERATOR_NO_DELETE_PERMISSIONS",
      "type": "error"
    },
    {
      "inputs": [],
      "name": "CFA_ACL_OPERATOR_NO_UPDATE_PERMISSIONS",
      "type": "error"
    },
    {
      "inputs": [],
      "name": "CFA_ACL_UNCLEAN_PERMISSIONS",
      "type": "error"
    },
    {
      "inputs": [],
      "name": "CFA_DEPOSIT_TOO_BIG",
      "type": "error"
    },
    {
      "inputs": [],
      "name": "CFA_FLOW_ALREADY_EXISTS",
      "type": "error"
    },
    {
      "inputs": [],
      "name": "CFA_FLOW_DOES_NOT_EXIST",
      "type": "error"
    },
    {
      "inputs": [],
      "name": "CFA_FLOW_RATE_TOO_BIG",
      "type": "error"
    },
    {
      "inputs": [],
      "name": "CFA_HOOK_OUT_OF_GAS",
      "type": "error"
    },
    {
      "inputs": [],
      "name": "CFA_INSUFFICIENT_BALANCE",
      "type": "error"
    },
    {
      "inputs": [],
      "name": "CFA_INVALID_FLOW_RATE",
      "type": "error"
    },
    {
      "inputs": [],
      "name": "CFA_NON_CRITICAL_SENDER",
      "type": "error"
    },
    {
      "inputs": [],
      "name": "CFA_NO_SELF_FLOW",
      "type": "error"
    },
    {
      "inputs": [],
      "name": "CFA_ZERO_ADDRESS_RECEIVER",
      "type": "error"
    },
    {
      "inputs": [],
      "name": "CFA_ZERO_ADDRESS_SENDER",
      "type": "error"
    },
    {
      "inputs": [],
      "name": "OUT_OF_GAS",
      "type": "error"
    },
    {
      "anonymous": false,
      "inputs": [
        {
          "indexed": false,
          "internalType": "bytes32",
          "name": "uuid",
          "type": "bytes32"
        },
        {
          "indexed": false,
          "internalType": "address",
          "name": "codeAddress",
          "type": "address"
        }
      ],
      "name": "CodeUpdated",
      "type": "event"
    },
    {
      "anonymous": false,
      "inputs": [
        {
          "indexed": true,
          "internalType": "contract ISuperfluidToken",
          "name": "token",
          "type": "address"
        },
        {
          "indexed": true,
          "internalType": "address",
          "name": "sender",
          "type": "address"
        },
        {
          "indexed": true,
          "internalType": "address",
          "name": "flowOperator",
          "type": "address"
        },
        {
          "indexed": false,
          "internalType": "uint8",
          "name": "permissions",
          "type": "uint8"
        },
        {
          "indexed": false,
          "internalType": "int96",
          "name": "flowRateAllowance",
          "type": "int96"
        }
      ],
      "name": "FlowOperatorUpdated",
      "type": "event"
    },
    {
      "anonymous": false,
      "inputs": [
        {
          "indexed": true,
          "internalType": "contract ISuperfluidToken",
          "name": "token",
          "type": "address"
        },
        {
          "indexed": true,
          "internalType": "address",
          "name": "sender",
          "type": "address"
        },
        {
          "indexed": true,
          "internalType": "address",
          "name": "receiver",
          "type": "address"
        },
        {
          "indexed": false,
          "internalType": "int96",
          "name": "flowRate",
          "type": "int96"
        },
        {
          "indexed": false,
          "internalType": "int256",
          "name": "totalSenderFlowRate",
          "type": "int256"
        },
        {
          "indexed": false,
          "internalType": "int256",
          "name": "totalReceiverFlowRate",
          "type": "int256"
        },
        {
          "indexed": false,
          "internalType": "bytes",
          "name": "userData",
          "type": "bytes"
        }
      ],
      "name": "FlowUpdated",
      "type": "event"
    },
    {
      "anonymous": false,
      "inputs": [
        {
          "indexed": true,
          "internalType": "address",
          "name": "flowOperator",
          "type": "address"
        },
        {
          "indexed": false,
          "internalType": "uint256",
          "name": "deposit",
          "type": "uint256"
        }
      ],
      "name": "FlowUpdatedExtension",
      "type": "event"
    },
    {
      "anonymous": false,
      "inputs": [
        {
          "indexed": false,
          "internalType": "uint8",
          "name": "version",
          "type": "uint8"
        }
      ],
      "name": "Initialized",
      "type": "event"
    },
    {
      "inputs": [],
      "name": "CFA_HOOK_GAS_LIMIT",
      "outputs": [
        {
          "internalType": "uint64",
          "name": "",
          "type": "uint64"
        }
      ],
      "stateMutability": "view",
      "type": "function"
    },
    {
      "inputs": [],
      "name": "DEFAULT_MINIMUM_DEPOSIT",
      "outputs": [
        {
          "internalType": "uint256",
          "name": "",
          "type": "uint256"
        }
      ],
      "stateMutability": "view",
      "type": "function"
    },
    {
      "inputs": [],
      "name": "MAXIMUM_DEPOSIT",
      "outputs": [
        {
          "internalType": "uint256",
          "name": "",
          "type": "uint256"
        }
      ],
      "stateMutability": "view",
      "type": "function"
    },
    {
      "inputs": [],
      "name": "MAXIMUM_FLOW_RATE",
      "outputs": [
        {
          "internalType": "uint256",
          "name": "",
          "type": "uint256"
        }
      ],
      "stateMutability": "view",
      "type": "function"
    },
    {
      "inputs": [],
      "name": "agreementType",
      "outputs": [
        {
          "internalType": "bytes32",
          "name": "",
          "type": "bytes32"
        }
      ],
      "stateMutability": "pure",
      "type": "function"
    },
    {
      "inputs": [],
      "name": "castrate",
      "outputs": [],
      "stateMutability": "nonpayable",
      "type": "function"
    },
    {
      "inputs": [],
      "name": "getCodeAddress",
      "outputs": [
        {
          "internalType": "address",
          "name": "codeAddress",
          "type": "address"
        }
      ],
      "stateMutability": "view",
      "type": "function"
    },
    {
      "inputs": [],
      "name": "proxiableUUID",
      "outputs": [
        {
          "internalType": "bytes32",
          "name": "",
          "type": "bytes32"
        }
      ],
      "stateMutability": "view",
      "type": "function"
    },
    {
      "inputs": [
        {
          "internalType": "address",
          "name": "newAddress",
          "type": "address"
        }
      ],
      "name": "updateCode",
      "outputs": [],
      "stateMutability": "nonpayable",
      "type": "function"
    },
    {
      "inputs": [
        {
          "internalType": "contract ISuperfluidToken",
          "name": "token",
          "type": "address"
        },
        {
          "internalType": "address",
          "name": "account",
          "type": "address"
        },
        {
          "internalType": "uint256",
          "name": "time",
          "type": "uint256"
        }
      ],
      "name": "realtimeBalanceOf",
      "outputs": [
        {
          "internalType": "int256",
          "name": "dynamicBalance",
          "type": "int256"
        },
        {
          "internalType": "uint256",
          "name": "deposit",
          "type": "uint256"
        },
        {
          "internalType": "uint256",
          "name": "owedDeposit",
          "type": "uint256"
        }
      ],
      "stateMutability": "view",
      "type": "function"
    },
    {
      "inputs": [
        {
          "internalType": "contract ISuperfluidToken",
          "name": "token",
          "type": "address"
        },
        {
          "internalType": "uint256",
          "name": "deposit",
          "type": "uint256"
        }
      ],
      "name": "getMaximumFlowRateFromDeposit",
      "outputs": [
        {
          "internalType": "int96",
          "name": "flowRate",
          "type": "int96"
        }
      ],
      "stateMutability": "view",
      "type": "function"
    },
    {
      "inputs": [
        {
          "internalType": "contract ISuperfluidToken",
          "name": "token",
          "type": "address"
        },
        {
          "internalType": "int96",
          "name": "flowRate",
          "type": "int96"
        }
      ],
      "name": "getDepositRequiredForFlowRate",
      "outputs": [
        {
          "internalType": "uint256",
          "name": "deposit",
          "type": "uint256"
        }
      ],
      "stateMutability": "view",
      "type": "function"
    },
    {
      "inputs": [
        {
          "internalType": "contract ISuperfluidToken",
          "name": "token",
          "type": "address"
        },
        {
          "internalType": "address",
          "name": "account",
          "type": "address"
        }
      ],
      "name": "isPatricianPeriodNow",
      "outputs": [
        {
          "internalType": "bool",
          "name": "isCurrentlyPatricianPeriod",
          "type": "bool"
        },
        {
          "internalType": "uint256",
          "name": "timestamp",
          "type": "uint256"
        }
      ],
      "stateMutability": "view",
      "type": "function"
    },
    {
      "inputs": [
        {
          "internalType": "contract ISuperfluidToken",
          "name": "token",
          "type": "address"
        },
        {
          "internalType": "address",
          "name": "account",
          "type": "address"
        },
        {
          "internalType": "uint256",
          "name": "timestamp",
          "type": "uint256"
        }
      ],
      "name": "isPatricianPeriod",
      "outputs": [
        {
          "internalType": "bool",
          "name": "",
          "type": "bool"
        }
      ],
      "stateMutability": "view",
      "type": "function"
    },
    {
      "inputs": [
        {
          "internalType": "contract ISuperfluidToken",
          "name": "token",
          "type": "address"
        },
        {
          "internalType": "address",
          "name": "receiver",
          "type": "address"
        },
        {
          "internalType": "int96",
          "name": "flowRate",
          "type": "int96"
        },
        {
          "internalType": "bytes",
          "name": "ctx",
          "type": "bytes"
        }
      ],
      "name": "createFlow",
      "outputs": [
        {
          "internalType": "bytes",
          "name": "newCtx",
          "type": "bytes"
        }
      ],
      "stateMutability": "nonpayable",
      "type": "function"
    },
    {
      "inputs": [
        {
          "internalType": "contract ISuperfluidToken",
          "name": "token",
          "type": "address"
        },
        {
          "internalType": "address",
          "name": "receiver",
          "type": "address"
        },
        {
          "internalType": "int96",
          "name": "flowRate",
          "type": "int96"
        },
        {
          "internalType": "bytes",
          "name": "ctx",
          "type": "bytes"
        }
      ],
      "name": "updateFlow",
      "outputs": [
        {
          "internalType": "bytes",
          "name": "newCtx",
          "type": "bytes"
        }
      ],
      "stateMutability": "nonpayable",
      "type": "function"
    },
    {
      "inputs": [
        {
          "internalType": "contract ISuperfluidToken",
          "name": "token",
          "type": "address"
        },
        {
          "internalType": "address",
          "name": "sender",
          "type": "address"
        },
        {
          "internalType": "address",
          "name": "receiver",
          "type": "address"
        },
        {
          "internalType": "bytes",
          "name": "ctx",
          "type": "bytes"
        }
      ],
      "name": "deleteFlow",
      "outputs": [
        {
          "internalType": "bytes",
          "name": "newCtx",
          "type": "bytes"
        }
      ],
      "stateMutability": "nonpayable",
      "type": "function"
    },
    {
      "inputs": [
        {
          "internalType": "contract ISuperfluidToken",
          "name": "token",
          "type": "address"
        },
        {
          "internalType": "address",
          "name": "sender",
          "type": "address"
        },
        {
          "internalType": "address",
          "name": "receiver",
          "type": "address"
        }
      ],
      "name": "getFlow",
      "outputs": [
        {
          "internalType": "uint256",
          "name": "timestamp",
          "type": "uint256"
        },
        {
          "internalType": "int96",
          "name": "flowRate",
          "type": "int96"
        },
        {
          "internalType": "uint256",
          "name": "deposit",
          "type": "uint256"
        },
        {
          "internalType": "uint256",
          "name": "owedDeposit",
          "type": "uint256"
        }
      ],
      "stateMutability": "view",
      "type": "function"
    },
    {
      "inputs": [
        {
          "internalType": "contract ISuperfluidToken",
          "name": "token",
          "type": "address"
        },
        {
          "internalType": "bytes32",
          "name": "flowId",
          "type": "bytes32"
        }
      ],
      "name": "getFlowByID",
      "outputs": [
        {
          "internalType": "uint256",
          "name": "timestamp",
          "type": "uint256"
        },
        {
          "internalType": "int96",
          "name": "flowRate",
          "type": "int96"
        },
        {
          "internalType": "uint256",
          "name": "deposit",
          "type": "uint256"
        },
        {
          "internalType": "uint256",
          "name": "owedDeposit",
          "type": "uint256"
        }
      ],
      "stateMutability": "view",
      "type": "function"
    },
    {
      "inputs": [
        {
          "internalType": "contract ISuperfluidToken",
          "name": "token",
          "type": "address"
        },
        {
          "internalType": "address",
          "name": "account",
          "type": "address"
        }
      ],
      "name": "getAccountFlowInfo",
      "outputs": [
        {
          "internalType": "uint256",
          "name": "timestamp",
          "type": "uint256"
        },
        {
          "internalType": "int96",
          "name": "flowRate",
          "type": "int96"
        },
        {
          "internalType": "uint256",
          "name": "deposit",
          "type": "uint256"
        },
        {
          "internalType": "uint256",
          "name": "owedDeposit",
          "type": "uint256"
        }
      ],
      "stateMutability": "view",
      "type": "function"
    },
    {
      "inputs": [
        {
          "internalType": "contract ISuperfluidToken",
          "name": "token",
          "type": "address"
        },
        {
          "internalType": "address",
          "name": "account",
          "type": "address"
        }
      ],
      "name": "getNetFlow",
      "outputs": [
        {
          "internalType": "int96",
          "name": "flowRate",
          "type": "int96"
        }
      ],
      "stateMutability": "view",
      "type": "function"
    },
    {
      "inputs": [
        {
          "internalType": "contract ISuperfluidToken",
          "name": "token",
          "type": "address"
        },
        {
          "internalType": "address",
          "name": "sender",
          "type": "address"
        },
        {
          "internalType": "address",
          "name": "receiver",
          "type": "address"
        },
        {
          "internalType": "int96",
          "name": "flowRate",
          "type": "int96"
        },
        {
          "internalType": "bytes",
          "name": "ctx",
          "type": "bytes"
        }
      ],
      "name": "createFlowByOperator",
      "outputs": [
        {
          "internalType": "bytes",
          "name": "newCtx",
          "type": "bytes"
        }
      ],
      "stateMutability": "nonpayable",
      "type": "function"
    },
    {
      "inputs": [
        {
          "internalType": "contract ISuperfluidToken",
          "name": "token",
          "type": "address"
        },
        {
          "internalType": "address",
          "name": "sender",
          "type": "address"
        },
        {
          "internalType": "address",
          "name": "receiver",
          "type": "address"
        },
        {
          "internalType": "int96",
          "name": "flowRate",
          "type": "int96"
        },
        {
          "internalType": "bytes",
          "name": "ctx",
          "type": "bytes"
        }
      ],
      "name": "updateFlowByOperator",
      "outputs": [
        {
          "internalType": "bytes",
          "name": "newCtx",
          "type": "bytes"
        }
      ],
      "stateMutability": "nonpayable",
      "type": "function"
    },
    {
      "inputs": [
        {
          "internalType": "contract ISuperfluidToken",
          "name": "token",
          "type": "address"
        },
        {
          "internalType": "address",
          "name": "sender",
          "type": "address"
        },
        {
          "internalType": "address",
          "name": "receiver",
          "type": "address"
        },
        {
          "internalType": "bytes",
          "name": "ctx",
          "type": "bytes"
        }
      ],
      "name": "deleteFlowByOperator",
      "outputs": [
        {
          "internalType": "bytes",
          "name": "newCtx",
          "type": "bytes"
        }
      ],
      "stateMutability": "nonpayable",
      "type": "function"
    },
    {
      "inputs": [
        {
          "internalType": "contract ISuperfluidToken",
          "name": "token",
          "type": "address"
        },
        {
          "internalType": "address",
          "name": "flowOperator",
          "type": "address"
        },
        {
          "internalType": "uint8",
          "name": "permissions",
          "type": "uint8"
        },
        {
          "internalType": "int96",
          "name": "flowRateAllowance",
          "type": "int96"
        },
        {
          "internalType": "bytes",
          "name": "ctx",
          "type": "bytes"
        }
      ],
      "name": "updateFlowOperatorPermissions",
      "outputs": [
        {
          "internalType": "bytes",
          "name": "newCtx",
          "type": "bytes"
        }
      ],
      "stateMutability": "nonpayable",
      "type": "function"
    },
    {
      "inputs": [
        {
          "internalType": "contract ISuperfluidToken",
          "name": "token",
          "type": "address"
        },
        {
          "internalType": "address",
          "name": "flowOperator",
          "type": "address"
        },
        {
          "internalType": "int96",
          "name": "addedFlowRateAllowance",
          "type": "int96"
        },
        {
          "internalType": "bytes",
          "name": "ctx",
          "type": "bytes"
        }
      ],
      "name": "increaseFlowRateAllowance",
      "outputs": [
        {
          "internalType": "bytes",
          "name": "newCtx",
          "type": "bytes"
        }
      ],
      "stateMutability": "nonpayable",
      "type": "function"
    },
    {
      "inputs": [
        {
          "internalType": "contract ISuperfluidToken",
          "name": "token",
          "type": "address"
        },
        {
          "internalType": "address",
          "name": "flowOperator",
          "type": "address"
        },
        {
          "internalType": "int96",
          "name": "subtractedFlowRateAllowance",
          "type": "int96"
        },
        {
          "internalType": "bytes",
          "name": "ctx",
          "type": "bytes"
        }
      ],
      "name": "decreaseFlowRateAllowance",
      "outputs": [
        {
          "internalType": "bytes",
          "name": "newCtx",
          "type": "bytes"
        }
      ],
      "stateMutability": "nonpayable",
      "type": "function"
    },
    {
      "inputs": [
        {
          "internalType": "contract ISuperfluidToken",
          "name": "token",
          "type": "address"
        },
        {
          "internalType": "address",
          "name": "flowOperator",
          "type": "address"
        },
        {
          "internalType": "bytes",
          "name": "ctx",
          "type": "bytes"
        }
      ],
      "name": "authorizeFlowOperatorWithFullControl",
      "outputs": [
        {
          "internalType": "bytes",
          "name": "newCtx",
          "type": "bytes"
        }
      ],
      "stateMutability": "nonpayable",
      "type": "function"
    },
    {
      "inputs": [
        {
          "internalType": "contract ISuperfluidToken",
          "name": "token",
          "type": "address"
        },
        {
          "internalType": "address",
          "name": "flowOperator",
          "type": "address"
        },
        {
          "internalType": "bytes",
          "name": "ctx",
          "type": "bytes"
        }
      ],
      "name": "revokeFlowOperatorWithFullControl",
      "outputs": [
        {
          "internalType": "bytes",
          "name": "newCtx",
          "type": "bytes"
        }
      ],
      "stateMutability": "nonpayable",
      "type": "function"
    },
    {
      "inputs": [
        {
          "internalType": "contract ISuperfluidToken",
          "name": "token",
          "type": "address"
        },
        {
          "internalType": "address",
          "name": "sender",
          "type": "address"
        },
        {
          "internalType": "address",
          "name": "flowOperator",
          "type": "address"
        }
      ],
      "name": "getFlowOperatorData",
      "outputs": [
        {
          "internalType": "bytes32",
          "name": "flowOperatorId",
          "type": "bytes32"
        },
        {
          "internalType": "uint8",
          "name": "permissions",
          "type": "uint8"
        },
        {
          "internalType": "int96",
          "name": "flowRateAllowance",
          "type": "int96"
        }
      ],
      "stateMutability": "view",
      "type": "function"
    },
    {
      "inputs": [
        {
          "internalType": "contract ISuperfluidToken",
          "name": "token",
          "type": "address"
        },
        {
          "internalType": "bytes32",
          "name": "flowOperatorId",
          "type": "bytes32"
        }
      ],
      "name": "getFlowOperatorDataByID",
      "outputs": [
        {
          "internalType": "uint8",
          "name": "permissions",
          "type": "uint8"
        },
        {
          "internalType": "int96",
          "name": "flowRateAllowance",
          "type": "int96"
        }
      ],
      "stateMutability": "view",
      "type": "function"
    }
  ],
  "bytecode": "0x60a06040523480156200001157600080fd5b506040516200550838038062005508833981016040819052620000349162000046565b6001600160a01b031660805262000078565b6000602082840312156200005957600080fd5b81516001600160a01b03811681146200007157600080fd5b9392505050565b60805161544a620000be600039600081816107a2015281816109b301528181611028015281816110bd015281816111720152818161186201526118f7015261544a6000f3fe608060405234801561001057600080fd5b50600436106101e45760003560e01c806354b770e31161010f5780639b2e48bc116100a2578063b4b333c611610071578063b4b333c6146104ab578063bf3fbc28146104be578063e6a1e888146104e1578063e8e7e2d1146104f457600080fd5b80639b2e48bc146104575780639cb28b72146102e6578063aabd266814610485578063ac5f5d001461049857600080fd5b8063811b3d40116100de578063811b3d40146104165780638d997f6e1461042957806394229ecb1461043c5780639903ad381461044f57600080fd5b806354b770e3146103b75780635f51fb23146103ca57806362fc305e146103dd5780637730599e146103f057600080fd5b8063354b9590116101875780634fe9c291116101565780634fe9c2911461035257806350209a621461037c57806350d75d251461038f57806352d1902d146103af57600080fd5b8063354b9590146102f457806346951954146103075780634b839e0b1461031c5780634c8b181f1461033f57600080fd5b8063062e56ec116101c3578063062e56ec1461026157806309d256ef146102815780630f1ac495146102b057806326b0f536146102e657600080fd5b8062422bbe146101e957806304aafa49146102215780630602f7db1461023b575b600080fd5b6101fc6101f73660046147ad565b610507565b6040805193845260ff9092166020840152600b0b908201526060015b60405180910390f35b61022d64010000000081565b604051908152602001610218565b61024e6102493660046147f8565b61053d565b604051600b9190910b8152602001610218565b61027461026f366004614866565b61055e565b604051610218919061491b565b61029461028f3660046147f8565b610578565b6040805160ff9093168352600b9190910b602083015201610218565b6102c36102be36600461492e565b61059c565b60408051948552600b9390930b6020850152918301526060820152608001610218565b61022d60016001605f1b0381565b610274610302366004614979565b6105d2565b61031a610315366004614a05565b610797565b005b61032f61032a366004614a22565b6107ec565b6040519015158152602001610218565b61027461034d366004614a63565b6108c3565b61036561036036600461492e565b6109ae565b604080519215158352602083019190915201610218565b61027461038a366004614adf565b610a49565b610397610b1c565b6040516001600160a01b039091168152602001610218565b61022d610b4b565b6102746103c5366004614866565b610baf565b6102746103d8366004614adf565b610bc7565b6102746103eb366004614adf565b610d5f565b7fa9214cc96615e0085d3bb077758db69497dc2dce3b2b1e97bc93c3d18d83efd361022d565b610274610424366004614b2f565b610e12565b61022d610437366004614b73565b61100f565b61027461044a366004614979565b611237565b61031a6113ba565b61046a610465366004614a22565b6114c8565b60408051938452602084019290925290820152606001610218565b6102c36104933660046147f8565b611522565b6102746104a6366004614adf565b611534565b6102746104b9366004614a63565b611642565b6104c86203d09081565b60405167ffffffffffffffff9091168152602001610218565b6102c36104ef3660046147ad565b6116d6565b61024e61050236600461492e565b611711565b6000806000610516858561172b565b925060006105248785611796565b8051602090910151959990985094965093945050505050565b6000806105498461185b565b50905061055681846119af565b949350505050565b606061056f85856000808787610e12565b95945050505050565b60008060006105878585611796565b80516020909101519097909650945050505050565b60008060008060006105ae87876119ef565b805160208201516040830151606090930151919b909a509198509650945050505050565b606060006106168885858080601f016020809104026020016040519081016040528093929190818152602001838380828437600092019190915250611aa892505050565b9050866001600160a01b031681606001516001600160a01b03160361064e5760405163edfa0d3b60e01b815260040160405180910390fd5b6000806106648a61065f8b8b611c6c565b611c94565b91509150600080600061067c8d8d8860600151610507565b92509250925061068d826001611cdb565b6106aa5760405163ac434b5f60e01b815260040160405180910390fd5b6000600b82900b60016001605f1b0314806106cf57508a600b0b8560200151600b0b12155b6106f15760208501516106e2908c614bbe565b6106ec9083614bbe565b6106f3565b815b9050600081600b0b121561071a5760405163a0645c1f60e01b815260040160405180910390fd5b6107268e858584611d36565b5050505061075460408051608081018252600080825260208201819052918101829052606081019190915290565b6001600160a01b03808c1682528a8116602083015289166040820152600b88900b60608201526107888183858a8a89611dbf565b9b9a5050505050505050505050565b336001600160a01b037f000000000000000000000000000000000000000000000000000000000000000016146107e057604051630b00ec8f60e11b815260040160405180910390fd5b6107e981611f2a565b50565b604051633acd4df360e21b81526001600160a01b03838116600483015260248201839052600091829186169063eb3537cc90604401606060405180830381865afa15801561083e573d6000803e3d6000fd5b505050506040513d601f19601f820116820180604052508101906108629190614bf0565b50509050600081126108785760019150506108bc565b6000806108848761185b565b91509150600061089488886119ef565b91505060006108a68260400151612132565b90506108b4858286866121a0565b955050505050505b9392505050565b606060006109078785858080601f016020809104026020016040519081016040528093929190818152602001838380828437600092019190915250611aa892505050565b9050600061091a88888460600151610507565b50915050600061092b826002611cdb565b90508061094b5760405163e30f1bff60e01b815260040160405180910390fd5b6040805160808101825260008082526020820181905291810182905260608101919091525b6001600160a01b03808b168252898116602083015288166040820152600060608201526109a081838989886121ee565b9a9950505050505050505050565b6000807f00000000000000000000000000000000000000000000000000000000000000006001600160a01b031663bbe4fd506040518163ffffffff1660e01b8152600401602060405180830381865afa158015610a0f573d6000803e3d6000fd5b505050506040513d601f19601f82011682018060405250810190610a339190614c1e565b9050610a408484836107ec565b91509250929050565b60606000610a8d8785858080601f016020809104026020016040519081016040528093929190818152602001838380828437600092019190915250611aa892505050565b9050610ab960408051608081018252600080825260208201819052918101829052606081019190915290565b6001600160a01b03808916825260608084015182166020840181905291891660408401819052600b89900b91840191909152600091610af791611c6c565b9050600080610b0a846000015184611c94565b915091506107888482848b8b8a611dbf565b6000610b467f360894a13ba1a3210667c828492db98dca3e2076cc3735a920a3ca505d382bbc5490565b905090565b6000306001600160a01b0316637730599e6040518163ffffffff1660e01b8152600401602060405180830381865afa158015610b8b573d6000803e3d6000fd5b505050506040513d601f19601f82011682018060405250810190610b469190614c1e565b606061056f8585600760016001605f1b038787610e12565b606082828080601f0160208091040260200160405190810160405280939291908181526020018383808284376000920182905250604080516020601f8a018190048102820181019092528881529596509094610c4394508b935091508790879081908401838280828437600092019190915250611aa892505050565b9050856001600160a01b031681606001516001600160a01b031603610c7b5760405163b0ed394d60e01b815260040160405180910390fd5b600085600b0b1215610ca0576040516386e0377d60e01b815260040160405180910390fd5b6000806000610cb48a85606001518b610507565b919450925090506000610cc78983614bbe565b9050600081600b0b1215610cee576040516386e0377d60e01b815260040160405180910390fd5b610cfa8b858584611d36565b60608501516040805160ff86168152600b84900b60208201526001600160a01b03808e1693811692908f16917fc0d5d3a6ac18cc1769788c925e6e7fc89cd47e4270a42884736fa9b3ec09f3a8910160405180910390a4505050505095945050505050565b60606000610da38785858080601f016020809104026020016040519081016040528093929190818152602001838380828437600092019190915250611aa892505050565b9050610dcf60408051608081018252600080825260208201819052918101829052606081019190915290565b6001600160a01b038089168252606080840151821660208401529088166040830152600b87900b90820152610e06818686856128e0565b98975050505050505050565b606082828080601f016020809104026020016040519081016040528093929190818152602001838380828437600092019190915250929350610e599250879150612a619050565b610e7657604051631e4e759b60e21b815260040160405180910390fd5b6000610eb88885858080601f016020809104026020016040519081016040528093929190818152602001838380828437600092019190915250611aa892505050565b9050866001600160a01b031681606001516001600160a01b031603610ef05760405163b0ed394d60e01b815260040160405180910390fd5b600085600b0b1215610f15576040516386e0377d60e01b815260040160405180910390fd5b6040805180820190915260ff87168152600b86900b60208201526060820151600090610f41908a61172b565b9050896001600160a01b031663a1b2bf8b82610f5c85612a68565b6040518363ffffffff1660e01b8152600401610f79929190614c72565b600060405180830381600087803b158015610f9357600080fd5b505af1158015610fa7573d6000803e3d6000fd5b50505060608401516040805160ff8c168152600b8b900b60208201526001600160a01b03808e169450928316928e16917fc0d5d3a6ac18cc1769788c925e6e7fc89cd47e4270a42884736fa9b3ec09f3a8910160405180910390a45050509695505050505050565b600081600b0b60000361102457506000611231565b60007f00000000000000000000000000000000000000000000000000000000000000006001600160a01b031663289b3c0d6040518163ffffffff1660e01b8152600401602060405180830381865afa158015611084573d6000803e3d6000fd5b505050506040513d601f19601f820116820180604052508101906110a89190614c8b565b90506000816001600160a01b03166380f70cba7f0000000000000000000000000000000000000000000000000000000000000000877feae305fa863b373417e615b1044222e2806cefc7788d169ce6748a443c3f6cc46040518463ffffffff1660e01b815260040161111c93929190614ca8565b602060405180830381865afa158015611139573d6000803e3d6000fd5b505050506040513d601f19601f8201168201806040525081019061115d9190614c1e565b90506000826001600160a01b03166380f70cba7f0000000000000000000000000000000000000000000000000000000000000000887fe420d96e81cb4a6b2abb2366c4f93312d4e2ae878a7d4b22e73472fdad891f786040518463ffffffff1660e01b81526004016111d193929190614ca8565b602060405180830381865afa1580156111ee573d6000803e3d6000fd5b505050506040513d601f19601f820116820180604052508101906112129190614c1e565b9050602081901c63ffffffff1661122a838288612ade565b9450505050505b92915050565b6060600061127b8885858080601f016020809104026020016040519081016040528093929190818152602001838380828437600092019190915250611aa892505050565b9050866001600160a01b031681606001516001600160a01b0316036112b3576040516325cc989b60e11b815260040160405180910390fd5b60008060006112c78b8b8660600151610507565b9250925092506112d8826000611cdb565b6112f5576040516328faadab60e21b815260040160405180910390fd5b6000600b82900b60016001605f1b0314611318576113138983614bbe565b61131a565b815b9050600081600b0b12156113415760405163a0645c1f60e01b815260040160405180910390fd5b61134d8c858584611d36565b5050505061137b60408051608081018252600080825260208201819052918101829052606081019190915290565b6001600160a01b03808a168252888116602083015287166040820152600b86900b60608201526113ad818686856128e0565b9998505050505050505050565b600054610100900460ff16158080156113da5750600054600160ff909116105b806113f45750303b1580156113f4575060005460ff166001145b61145c5760405162461bcd60e51b815260206004820152602e60248201527f496e697469616c697a61626c653a20636f6e747261637420697320616c72656160448201526d191e481a5b9a5d1a585b1a5e995960921b60648201526084015b60405180910390fd5b6000805460ff19166001179055801561147f576000805461ff0019166101001790555b80156107e9576000805461ff0019169055604051600181527f7f26b83ff96e1f2b6a682f133852f6798a09c465da95921460cefb3847402498906020015b60405180910390a150565b60008060008060006114da88886119ef565b915091508115611517578060200151600b0b8160000151876114fc9190614ccc565b6115069190614cf3565b945080604001519350806060015192505b505093509350939050565b60008060008060006105ae8787611c94565b606082828080601f0160208091040260200160405190810160405280939291908181526020018383808284376000920182905250604080516020601f8a0181900481028201810190925288815295965090946115b094508b935091508790879081908401838280828437600092019190915250611aa892505050565b9050856001600160a01b031681606001516001600160a01b0316036115e85760405163b0ed394d60e01b815260040160405180910390fd5b600085600b0b121561160d576040516386e0377d60e01b815260040160405180910390fd5b60008060006116218a85606001518b610507565b9194509250905060006116348983614d23565b9050610cfa8b858584611d36565b606060006116868785858080601f016020809104026020016040519081016040528093929190818152602001838380828437600092019190915250611aa892505050565b9050600061169988888460600151610507565b5091505060006116aa826002611cdb565b905061097060408051608081018252600080825260208201819052918101829052606081019190915290565b60008060008060006116ec8861065f8989611c6c565b805160208201516040830151606090930151919c909b50919950975095505050505050565b60008061171e84846119ef565b6020015195945050505050565b600082826040516020016117789291906060808252600c908201526b333637bba7b832b930ba37b960a11b60808201526001600160a01b0392831660208201529116604082015260a00190565b60405160208183030381529060405280519060200120905092915050565b6040805180820182526000808252602082018190529151636c2d9f2f60e01b8152306004820152602481018490526001604482015282906001600160a01b03861690636c2d9f2f90606401600060405180830381865afa1580156117fe573d6000803e3d6000fd5b505050506040513d6000823e601f3d908101601f191682016040526118269190810190614dc6565b905061184e8160008151811061183e5761183e614e60565b602002602001015160001c612b51565b92509250505b9250929050565b60008060007f00000000000000000000000000000000000000000000000000000000000000006001600160a01b031663289b3c0d6040518163ffffffff1660e01b8152600401602060405180830381865afa1580156118be573d6000803e3d6000fd5b505050506040513d601f19601f820116820180604052508101906118e29190614c8b565b90506000816001600160a01b03166380f70cba7f0000000000000000000000000000000000000000000000000000000000000000877fe420d96e81cb4a6b2abb2366c4f93312d4e2ae878a7d4b22e73472fdad891f786040518463ffffffff1660e01b815260040161195693929190614ca8565b602060405180830381865afa158015611973573d6000803e3d6000fd5b505050506040513d601f19601f820116820180604052508101906119979190614c1e565b63ffffffff602082901c811697911695509350505050565b600060016001605f1b038211156119d957604051631d4b0ae760e21b815260040160405180910390fd5b63ffffffff198216915060006105568484614e8c565b60006119f96146e6565b604051634b61cc3360e01b81523060048201526001600160a01b038481166024830152600060448301819052600160648401529190861690634b61cc33906084015b600060405180830381865afa158015611a58573d6000803e3d6000fd5b505050506040513d6000823e601f3d908101601f19168201604052611a809190810190614dc6565b905061184e81600081518110611a9857611a98614e60565b602002602001015160001c612b91565b611ab0614711565b336001600160a01b0316836001600160a01b03166320bc44256040518163ffffffff1660e01b8152600401602060405180830381865afa158015611af8573d6000803e3d6000fd5b505050506040513d601f19601f82011682018060405250810190611b1c9190614c8b565b6001600160a01b031614611b665760405162461bcd60e51b81526020600482015260116024820152701d5b985d5d1a1bdc9a5e9959081a1bdcdd607a1b6044820152606401611453565b604051632fd0a1cd60e21b8152339063bf42873490611b8990859060040161491b565b602060405180830381865afa158015611ba6573d6000803e3d6000fd5b505050506040513d601f19601f82011682018060405250810190611bca9190614ebb565b611c045760405162461bcd60e51b815260206004820152600b60248201526a0d2dcecc2d8d2c840c6e8f60ab1b6044820152606401611453565b604051631fb6491d60e11b81523390633f6c923a90611c2790859060040161491b565b600060405180830381865afa158015611c44573d6000803e3d6000fd5b505050506040513d6000823e601f3d908101601f191682016040526108bc9190810190614f5d565b604080516001600160a01b038085166020830152831691810191909152600090606001611778565b6000611c9e6146e6565b604051636c2d9f2f60e01b815230600482015260248101849052600160448201526000906001600160a01b03861690636c2d9f2f90606401611a3b565b600080826002811115611cf057611cf0615064565b03611d015750600182811614611231565b6001826002811115611d1557611d15615064565b03611d285750600182811c811614611231565b505060021c60019081161490565b6040805180820190915260ff83168152600b82900b60208201526001600160a01b03851663a1b2bf8b85611d6984612a68565b6040518363ffffffff1660e01b8152600401611d86929190614c72565b600060405180830381600087803b158015611da057600080fd5b505af1158015611db4573d6000803e3d6000fd5b505050505050505050565b60606000611dcd8884612bf1565b91505085611dee5760405163168cafc960e21b815260040160405180910390fd5b6040888101519051631e51d6a760e11b81526001600160a01b0390911660048201523390633ca3ad4e90602401602060405180830381865afa158015611e38573d6000803e3d6000fd5b505050506040513d601f19601f82011682018060405250810190611e5c9190614ebb565b15611eb857611eb188604001518960000151838a89898080601f0160208091040260200160405190810160405280939291908181526020018383808284376000920191909152508b925060019150612cf29050565b9150611f03565b611f008860000151828988888080601f0160208091040260200160405190810160405280939291908181526020018383808284376000920191909152508a9250613498915050565b91505b611f16886000015189602001518561356b565b611f1f88613645565b509695505050505050565b6000611f547f360894a13ba1a3210667c828492db98dca3e2076cc3735a920a3ca505d382bbc5490565b6001600160a01b031603611faa5760405162461bcd60e51b815260206004820152601d60248201527f5555505350726f786961626c653a206e6f742075706772616461626c650000006044820152606401611453565b806001600160a01b03166352d1902d6040518163ffffffff1660e01b8152600401602060405180830381865afa158015611fe8573d6000803e3d6000fd5b505050506040513d601f19601f8201168201806040525081019061200c9190614c1e565b612014610b4b565b1461206d5760405162461bcd60e51b815260206004820152602360248201527f5555505350726f786961626c653a206e6f7420636f6d70617469626c65206c6f60448201526267696360e81b6064820152608401611453565b6001600160a01b03811630036120c55760405162461bcd60e51b815260206004820152601960248201527f5555505350726f786961626c653a2070726f7879206c6f6f70000000000000006044820152606401611453565b6120ed817f360894a13ba1a3210667c828492db98dca3e2076cc3735a920a3ca505d382bbc55565b7fe011bc04c286c344a8fcbb8de77f953da762c3e25d8cdea984147fc4168a5dcc612116610b4b565b604080519182526001600160a01b0384166020830152016114bd565b60006001600160ff1b0382111561219c5760405162461bcd60e51b815260206004820152602860248201527f53616665436173743a2076616c756520646f65736e27742066697420696e2061604482015267371034b73a191a9b60c11b6064820152608401611453565b5090565b6000836000036121b257506000610556565b60006121be858761507a565b905060006121cc85876150a2565b90506121d884866150d0565b6121e282846150a2565b13979650505050505050565b6040805160c0810182526000808252602082018190529181018290526060818101839052608082019290925260a0810182905260208701516001600160a01b031661224c57604051631ce9b06760e01b815260040160405180910390fd5b60408701516001600160a01b031661227757604051633c70159560e11b815260040160405180910390fd5b61228987602001518860400151611c6c565b8082526020808901516001600160a01b03908116918401919091526040808a01518216908401526060808601519091169083015260006080830181905260a080860151908401528851909182916122df91611c94565b91509150816123015760405163168cafc960e21b815260040160405180910390fd5b885160208a01516040808801519051633acd4df360e21b81526000936001600160a01b03169263eb3537cc9261234d926004016001600160a01b03929092168252602082015260400190565b606060405180830381865afa15801561236a573d6000803e3d6000fd5b505050506040513d601f19601f8201168201806040525081019061238e9190614bf0565b5050905089602001516001600160a01b031686606001516001600160a01b0316141580156123d6575089604001516001600160a01b031686606001516001600160a01b031614155b80156123e0575088155b156124f15760208a0151604051636b4f333560e01b81526001600160a01b0390911660048201523390636b4f333590602401602060405180830381865afa15801561242f573d6000803e3d6000fd5b505050506040513d601f19601f820116820180604052508101906124539190614ebb565b1580156124cb575060408a8101519051636b4f333560e01b81526001600160a01b0390911660048201523390636b4f333590602401602060405180830381865afa1580156124a5573d6000803e3d6000fd5b505050506040513d601f19601f820116820180604052508101906124c99190614ebb565b155b156124f157600081126124f15760405163ce11b5d160e01b815260040160405180910390fd5b600081121561250f5761250f8a600001518286858a606001516136e8565b87878080601f01602080910402602001604051908101604052809392919081815260200183838082843760009201919091525050505060208b015160608801519196506001600160a01b039081169116036126055760408a8101519051631e51d6a760e11b81526001600160a01b0390911660048201523390633ca3ad4e90602401602060405180830381865afa1580156125ae573d6000803e3d6000fd5b505050506040513d601f19601f820116820180604052508101906125d29190614ebb565b156125f6576125ef8a604001518b600001518685898b6002612cf2565b94506128ca565b89516125ef908584888a613498565b89604001516001600160a01b031686606001516001600160a01b0316036127395760208a0151604051631e51d6a760e11b81526001600160a01b0390911660048201523390633ca3ad4e90602401602060405180830381865afa158015612670573d6000803e3d6000fd5b505050506040513d601f19601f820116820180604052508101906126949190614ebb565b156126b1576125ef8a602001518b600001518685898b6002612cf2565b60408a8101519051631e51d6a760e11b81526001600160a01b0390911660048201523390633ca3ad4e90602401602060405180830381865afa1580156126fb573d6000803e3d6000fd5b505050506040513d601f19601f8201168201806040525081019061271f9190614ebb565b156125f6576125ef60008b600001518685898b6002612cf2565b60208a0151604051631e51d6a760e11b81526001600160a01b0390911660048201523390633ca3ad4e90602401602060405180830381865afa158015612783573d6000803e3d6000fd5b505050506040513d601f19601f820116820180604052508101906127a79190614ebb565b80156127b35750600081125b1561282d5760208a0151604051635b92108f60e11b8152339163b724211e916127e3918991600b906004016150e3565b6000604051808303816000875af1158015612802573d6000803e3d6000fd5b505050506040513d6000823e601f3d908101601f1916820160405261282a9190810190615111565b94505b60408a8101519051631e51d6a760e11b81526001600160a01b0390911660048201523390633ca3ad4e90602401602060405180830381865afa158015612877573d6000803e3d6000fd5b505050506040513d601f19601f8201168201806040525081019061289b9190614ebb565b156128b8576125ef8a604001518b600001518685898b6002612cf2565b89516128c7908584888a613498565b94505b6128d38a6138f4565b5050505095945050505050565b60606000806128ef8785612bf1565b91509150600080612904896000015185611c94565b9150915081156129275760405163801b686360e01b815260040160405180910390fd5b6040898101519051631e51d6a760e11b81526001600160a01b0390911660048201523390633ca3ad4e90602401602060405180830381865afa158015612971573d6000803e3d6000fd5b505050506040513d601f19601f820116820180604052508101906129959190614ebb565b156129ee576129e789604001518a6000015185848c8c8080601f01602080910402602001604051908101604052809392919081815260200183838082843760009201829052508f93509150612cf29050565b9450612a39565b612a36896000015184838b8b8080601f0160208091040260200160405190810160405280939291908181526020018383808284376000920191909152508d9250613498915050565b94505b612a4c89600001518a602001518861356b565b612a5589613963565b50505050949350505050565b60f8161590565b606060008260200151600b0b1215612a8257612a82615146565b60408051600180825281830190925290602080830190803683370190505090508160200151600b0b6080836000015160ff16901b1760001b81600081518110612acd57612acd614e60565b602002602001018181525050919050565b60008082600b0b1215612b04576040516348d6568b60e11b815260040160405180910390fd5b60016001605f1b03612b1a84600b85900b61515c565b1115612b3957604051630c9c55c160e01b815260040160405180910390fd5b6000612b4583856139d2565b905061056f8582613a16565b6040805180820190915260008082526020820152811580159190612b8c5760016001605f1b038316600b0b6020820152608083901c60ff1681525b915091565b6000612b9b6146e6565b821580159250612b8c5760e083901c8152608083901c6bffffffffffffffffffffffff16600b0b6020808301919091526bffffffffffffffff0000000084821c811660408401529084901b166060820152915091565b6040805160c08101825260008082526020820181905291810182905260608082018390526080820183905260a082015260408401516001600160a01b0316612c4c57604051633c70159560e11b815260040160405180910390fd5b612c5e84602001518560400151611c6c565b8082526020808601516001600160a01b0390811691840182905260408088015182169085018190526060808801519092168286015290870151600b0b608085015260a0808701519085015291935003612cca5760405163a47338ef60e01b815260040160405180910390fd5b60008160800151600b0b13611854576040516348d6568b60e11b815260040160405180910390fd5b82612cfb61476c565b6001600160a01b03891615612fff576000612d90898b8a600001518b602001518c60400151604051602001612d469291906001600160a01b0392831681529116602082015260400190565b60408051601f1981840301815260e08301825260006080840181905260a0840181905260c08401526001600160a01b03958616835293909416602082015292830152606082015290565b90506000846002811115612da657612da6615064565b03612dbb5764010000000060c0820152612df0565b6001846002811115612dcf57612dcf615064565b03612de45764040000000060c0820152612df0565b64100000000060c08201525b612dfa8187613a2c565b82600001819052506000336001600160a01b031663289b3c0d6040518163ffffffff1660e01b8152600401602060405180830381865afa158015612e42573d6000803e3d6000fd5b505050506040513d601f19601f82011682018060405250810190612e669190614c8b565b9050612e7e86604001518761014001518c8c8c613be3565b5060808401525060405163407b865d60e11b81526000906001600160a01b038316906380f70cba90612ed89033908f907feae305fa863b373417e615b1044222e2806cefc7788d169ce6748a443c3f6cc490600401614ca8565b602060405180830381865afa158015612ef5573d6000803e3d6000fd5b505050506040513d601f19601f82011682018060405250810190612f199190614c1e565b905060008360800151600014612f3d57612f3864010000000083613a16565b612f40565b60005b9050808460800151612f529190615173565b608085015260608a0151612f6590612132565b60a08501526000876002811115612f7e57612f7e615064565b03612f935764020000000060c0850152612fc8565b6001876002811115612fa757612fa7615064565b03612fbc5764080000000060c0850152612fc8565b64200000000060c08501525b612fd784866000015188613fc7565b60408701919091528b51909650612fef908d90611c94565b60208701525061301d9350505050565b61301584604001518561014001518a8a8a613be3565b602084015250505b600061302c8760600151612132565b826040015161010001516130409190614ccc565b905061306681613057846020015160400151612132565b613061919061507a565b614213565b8260200151604001818152505061308881613057846020015160600151612132565b60208301805160600191909152885190516001600160a01b038b169163a1b2bf8b916130b390614265565b6040518363ffffffff1660e01b81526004016130d0929190614c72565b600060405180830381600087803b1580156130ea57600080fd5b505af11580156130fe573d6000803e3d6000fd5b5050505061311a89896020015160008460008a604001516142d6565b50613132898960400151600080858a604001516142d6565b506101408501516001600160a01b031615806131645750886001600160a01b03168561014001516001600160a01b0316145b156131d8576040516359a2914160e01b815233906359a291419061318e9086908590600401615186565b6000604051808303816000875af11580156131ad573d6000803e3d6000fd5b505050506040513d6000823e601f3d908101601f191682016040526131d59190810190615111565b92505b6040888101519051631e51d6a760e11b81526001600160a01b0390911660048201523390633ca3ad4e90602401602060405180830381865afa158015613222573d6000803e3d6000fd5b505050506040513d601f19601f820116820180604052508101906132469190614ebb565b1561348b57604088810151868201519151633acd4df360e21b81526001600160a01b0391821660048201526024810192909252600091908b169063eb3537cc90604401606060405180830381865afa1580156132a6573d6000803e3d6000fd5b505050506040513d601f19601f820116820180604052508101906132ca9190614bf0565b509091505060008112156134895760028560028111156132ec576132ec615064565b0361346d576040808a01519051635b92108f60e11b8152339163b724211e9161331c918891600c906004016150e3565b6000604051808303816000875af115801561333b573d6000803e3d6000fd5b505050506040513d6000823e601f3d908101601f191682016040526133639190810190615111565b93506000613381613373836151a8565b61337c856151a8565b614447565b90508a6001600160a01b031663cf97256d8b60200151836133a1906151a8565b6040516001600160e01b031960e085901b1681526001600160a01b0390921660048301526024820152604401600060405180830381600087803b1580156133e757600080fd5b505af11580156133fb573d6000803e3d6000fd5b5050505060408a810151905163cf97256d60e01b81526001600160a01b03918216600482015260248101839052908c169063cf97256d90604401600060405180830381600087803b15801561344f57600080fd5b505af1158015613463573d6000803e3d6000fd5b5050505050613489565b60405163a85ba64f60e01b8152600c6004820152602401611453565b505b5050979650505050505050565b606083810151156134ab576134ab615146565b60006134b56146e6565b6134cb84604001518561014001518a8a8a613be3565b6101408701519294509250506001600160a01b03808a1691160361355c576040516359a2914160e01b815233906359a291419061350e9088908690600401615186565b6000604051808303816000875af115801561352d573d6000803e3d6000fd5b505050506040513d6000823e601f3d908101601f191682016040526135559190810190615111565b9250613560565b8492505b505095945050505050565b602081015160ff1660031415806135995750826001600160a01b03168161014001516001600160a01b031614155b15613640576040808201519051633acd4df360e21b81526001600160a01b038481166004830152602482019290925260009185169063eb3537cc90604401606060405180830381865afa1580156135f4573d6000803e3d6000fd5b505050506040513d601f19601f820116820180604052508101906136189190614bf0565b50509050600081121561363e5760405163ea76c9b360e01b815260040160405180910390fd5b505b505050565b60005a90506000613659836000015161445c565b90506001600160a01b03811615613640578251602084015160408086015190516375aa53e560e11b81526001600160a01b0393841660048201529183166024830152821660448201529082169063eb54a7ca906064015b600060405180830381600087803b1580156136ca57600080fd5b505af19250505080156136db575060015b613640576136408261450b565b60006136f88685602001516119ef565b915050600061370a8460400151612132565b9050600061371b8360400151612132565b9050606060008061372c848b61507a565b905060008061373a8d61185b565b9150915061374a8c8784846121a0565b9350505060008112613835576000846137638388614cf3565b61376d91906150a2565b905060018361377d576001613780565b60005b6040805160ff9384166020820152929091169082015260600160405160208183030381529060405293508b6001600160a01b0316631863e8098b60000151868b878f602001516137cf88614213565b6137db89600019614cf3565b6040518863ffffffff1660e01b81526004016137fd97969594939291906151c4565b600060405180830381600087803b15801561381757600080fd5b505af115801561382b573d6000803e3d6000fd5b50505050506138e7565b6040805160016020820152600291810191909152859060600160405160208183030381529060405293508b6001600160a01b0316631863e8098b60000151868b60008f6020015161388588614213565b6138918a600019614cf3565b6040518863ffffffff1660e01b81526004016138b397969594939291906151c4565b600060405180830381600087803b1580156138cd57600080fd5b505af11580156138e1573d6000803e3d6000fd5b50505050505b5050505050505050505050565b60005a90506000613908836000015161445c565b90506001600160a01b038116156136405782516020840151604080860151905163ef1f023760e01b81526001600160a01b0393841660048201529183166024830152821660448201529082169063ef1f0237906064016136b0565b60005a90506000613977836000015161445c565b90506001600160a01b038116156136405782516020840151604080860151905163f7e3d98360e01b81526001600160a01b0393841660048201529183166024830152821660448201529082169063f7e3d983906064016136b0565b600082600b0b6000036139e757506000611231565b60016001605f1b038211156139fe576139fe615146565b613a088284615211565b600b0b90506108bc81614532565b6000818311613a2557816108bc565b5090919050565b6020820151604051633e7d48bd60e21b81526001600160a01b03909116600482015260609060009081908190339063f9f522f490602401606060405180830381865afa158015613a80573d6000803e3d6000fd5b505050506040513d601f19601f82011682018060405250810190613aa49190615231565b91945092509050828015613ab6575081155b15613bda576000613ac78688614566565b90508660c001518216600003613bcc576000613ae68860c001516145e4565b88516040808b015160608c015182516000815260208101909352613b129392309291906044810161526d565b60408051601f19818403018152918152602080830180516001600160e01b03166001600160e01b031990951694909417909352918a015160c08b01519251633a020f0160e11b815291935033926374041e0292613b8192918691641000000000919091149088906004016152b2565b6000604051808303816000875af1158015613ba0573d6000803e3d6000fd5b505050506040513d6000823e601f3d908101601f19168201604052613bc89190810190615111565b9550505b613bd786600061467b565b50505b50505092915050565b600080613bee6146e6565b6000806000613bfc8961185b565b5090506000336001600160a01b031663289b3c0d6040518163ffffffff1660e01b8152600401602060405180830381865afa158015613c3f573d6000803e3d6000fd5b505050506040513d601f19601f82011682018060405250810190613c639190614c8b565b60405163407b865d60e11b81529091506001600160a01b038216906380f70cba90613cb69033908e907feae305fa863b373417e615b1044222e2806cefc7788d169ce6748a443c3f6cc490600401614ca8565b602060405180830381865afa158015613cd3573d6000803e3d6000fd5b505050506040513d601f19601f82011682018060405250810190613cf79190614c1e565b9250613d078960800151836139d2565b95505050613d188660600151612132565b613d258760400151612132565b613d2e86612132565b613d389190614ccc565b613d42919061507a565b9450613d55856130578860400151612132565b91508082108015613d6d575060008760800151600b0b135b15613daf57613d7f8660600151612132565b613d8c8760400151612132565b613d9583612132565b613d9f9190614ccc565b613da9919061507a565b94508091505b6001600160a01b03891615801590613dd95750876001600160a01b0316896001600160a01b031614155b15613de357600093505b604051806080016040528060008960800151600b0b13613e04576000613e06565b8b5b81526020018860800151600b0b815260200183815260200187606001518152509250876001600160a01b031663a1b2bf8b8860000151613e4586614265565b6040518363ffffffff1660e01b8152600401613e62929190614c72565b600060405180830381600087803b158015613e7c57600080fd5b505af1158015613e90573d6000803e3d6000fd5b505060408051808201909152600080825260208201529250613eb0915050565b613ed688886020015189608001518960200151613ecd9190614bbe565b8860008f6142d6565b600b0b8152604087015160208701516080890151613f05928b929091613efc9190614bbe565b6000808f6142d6565b600b0b60208083018290526040808a0151918a015160808b0151855160a08d015193516001600160a01b0395861696938616958f16947f57269d2ebcccecdcc0d9d2c0a0b80ead95f344e28ec20f50f709811f209d4e0e94613f6b9493929091906152fb565b60405180910390a486606001516001600160a01b03167f71e0c98e270fc3084227b473f176924d5303ece8c639e679998a2d7dc8e70f7483604051613fb291815260200190565b60405180910390a25050955095509592505050565b613fcf614711565b6020840151604051633e7d48bd60e21b81526001600160a01b03909116600482015260609060009081908190339063f9f522f490602401606060405180830381865afa158015614023573d6000803e3d6000fd5b505050506040513d601f19601f820116820180604052508101906140479190615231565b8896509194509250905082801561405c575081155b156142085761406b8489614566565b93508760c0015181166000036141f657600061408a8960c001516145e4565b89516040808c015160608d0151825160008152602081019093526140b89392309291908e9060448101615333565b60408051601f19818403018152918152602080830180516001600160e01b03166001600160e01b031990951694909417909352918b015160c08c0151925163079b42a160e21b81529193503392631e6d0a84926141279291869164200000000091909114908b906004016152b2565b6000604051808303816000875af1158015614146573d6000803e3d6000fd5b505050506040513d6000823e601f3d908101601f1916820160405261416e9190810190615111565b604051631fb6491d60e11b81529095503390633f6c923a9061419490889060040161491b565b600060405180830381865afa1580156141b1573d6000803e3d6000fd5b505050506040513d6000823e601f3d908101601f191682016040526141d99190810190614f5d565b95506141ee89608001518761010001516146a3565b610100870152505b6142058686610100015161467b565b93505b505050935093915050565b60008082121561219c5760405162461bcd60e51b815260206004820181905260248201527f53616665436173743a2076616c7565206d75737420626520706f7369746976656044820152606401611453565b6040805160018082528183019092526060916020808301908036833701905050905060208260600151901c604060208460400151901c901b608084602001516bffffffffffffffffffffffff16901b60e08560000151901b17171760001b81600081518110612acd57612acd614e60565b6000806142e388886119ef565b91505060008160200151600b0b61430883600001518661430391906150d0565b612132565b6143129190614cf3565b9050801561437d5760405163cf97256d60e01b81526001600160a01b038981166004830152602482018390528a169063cf97256d90604401600060405180830381600087803b15801561436457600080fd5b505af1158015614378573d6000803e3d6000fd5b505050505b86826020015161438d9190614d23565b600b0b602083015283825260408201516143ac90879061305790612132565b604083015260608201516143c590869061305790612132565b60608301526001600160a01b03891663090c415e8960006143e586614265565b6040518463ffffffff1660e01b81526004016144039392919061538c565b600060405180830381600087803b15801561441d57600080fd5b505af1158015614431573d6000803e3d6000fd5b5050506020909201519998505050505050505050565b600081831361445657826108bc565b50919050565b60408051600481526024810182526020810180516001600160e01b03166377a1e96360e11b1790529051600091829182916001600160a01b038616916144a291906153b3565b600060405180830381855afa9150503d80600081146144dd576040519150601f19603f3d011682016040523d82523d6000602084013e6144e2565b606091505b5091509150811561450457808060200190518101906145019190614c8b565b92505b5050919050565b614514816146c1565b156107e9576040516320afada560e01b815260040160405180910390fd5b60008063ffffffff831661454757600061454a565b60015b60ff169050602061455d8285831c615173565b901b9392505050565b6020810151608082015160a08301518351604051630768fabb60e41b8152606094339463768fabb09461459d948a946004016153cf565b6000604051808303816000875af11580156145bc573d6000803e3d6000fd5b505050506040513d6000823e601f3d908101601f191682016040526108bc9190810190615111565b6000640100000000820361460057506330d9c91560e01b919050565b640400000000820361461a5750630221347d60e61b919050565b64100000000082036146345750635f9e7d7760e01b919050565b640200000000820361464e575063d86ed3e560e01b919050565b6408000000008203614668575063230dbd2960e01b919050565b506353c11f9960e01b919050565b919050565b604051634c4d861f60e11b8152606090339063989b0c3e9061459d9086908690600401615186565b60006108bc60006146bc6146b686612132565b85614447565b6146d7565b60006146ce603f83614e8c565b5a111592915050565b6000818313613a2557816108bc565b6040518060800160405280600081526020016000600b0b815260200160008152602001600081525090565b604080516101608101825260008082526020820181905291810182905260608082018390526080820183905260a082015260c0810182905260e081018290526101008101829052610120810182905261014081019190915290565b6040518060600160405280606081526020016147866146e6565b8152602001614793614711565b905290565b6001600160a01b03811681146107e957600080fd5b6000806000606084860312156147c257600080fd5b83356147cd81614798565b925060208401356147dd81614798565b915060408401356147ed81614798565b809150509250925092565b6000806040838503121561480b57600080fd5b823561481681614798565b946020939093013593505050565b60008083601f84011261483657600080fd5b50813567ffffffffffffffff81111561484e57600080fd5b60208301915083602082850101111561185457600080fd5b6000806000806060858703121561487c57600080fd5b843561488781614798565b9350602085013561489781614798565b9250604085013567ffffffffffffffff8111156148b357600080fd5b6148bf87828801614824565b95989497509550505050565b60005b838110156148e65781810151838201526020016148ce565b50506000910152565b600081518084526149078160208601602086016148cb565b601f01601f19169290920160200192915050565b6020815260006108bc60208301846148ef565b6000806040838503121561494157600080fd5b823561494c81614798565b9150602083013561495c81614798565b809150509250929050565b8035600b81900b811461467657600080fd5b60008060008060008060a0878903121561499257600080fd5b863561499d81614798565b955060208701356149ad81614798565b945060408701356149bd81614798565b93506149cb60608801614967565b9250608087013567ffffffffffffffff8111156149e757600080fd5b6149f389828a01614824565b979a9699509497509295939492505050565b600060208284031215614a1757600080fd5b81356108bc81614798565b600080600060608486031215614a3757600080fd5b8335614a4281614798565b92506020840135614a5281614798565b929592945050506040919091013590565b600080600080600060808688031215614a7b57600080fd5b8535614a8681614798565b94506020860135614a9681614798565b93506040860135614aa681614798565b9250606086013567ffffffffffffffff811115614ac257600080fd5b614ace88828901614824565b969995985093965092949392505050565b600080600080600060808688031215614af757600080fd5b8535614b0281614798565b94506020860135614b1281614798565b9350614aa660408701614967565b60ff811681146107e957600080fd5b60008060008060008060a08789031215614b4857600080fd5b8635614b5381614798565b95506020870135614b6381614798565b945060408701356149bd81614b20565b60008060408385031215614b8657600080fd5b8235614b9181614798565b9150614b9f60208401614967565b90509250929050565b634e487b7160e01b600052601160045260246000fd5b600b82810b9082900b036b7fffffffffffffffffffffff19811260016001605f1b038213171561123157611231614ba8565b600080600060608486031215614c0557600080fd5b8351925060208401519150604084015190509250925092565b600060208284031215614c3057600080fd5b5051919050565b600081518084526020808501945080840160005b83811015614c6757815187529582019590820190600101614c4b565b509495945050505050565b8281526040602082015260006105566040830184614c37565b600060208284031215614c9d57600080fd5b81516108bc81614798565b6001600160a01b039384168152919092166020820152604081019190915260600190565b8181036000831280158383131683831282161715614cec57614cec614ba8565b5092915050565b80820260008212600160ff1b84141615614d0f57614d0f614ba8565b818105831482151761123157611231614ba8565b600b81810b9083900b0160016001605f1b0381136b7fffffffffffffffffffffff198212171561123157611231614ba8565b634e487b7160e01b600052604160045260246000fd5b604051610160810167ffffffffffffffff81118282101715614d8f57614d8f614d55565b60405290565b604051601f8201601f1916810167ffffffffffffffff81118282101715614dbe57614dbe614d55565b604052919050565b60006020808385031215614dd957600080fd5b825167ffffffffffffffff80821115614df157600080fd5b818501915085601f830112614e0557600080fd5b815181811115614e1757614e17614d55565b8060051b9150614e28848301614d95565b8181529183018401918481019088841115614e4257600080fd5b938501935b83851015610e0657845182529385019390850190614e47565b634e487b7160e01b600052603260045260246000fd5b634e487b7160e01b600052601260045260246000fd5b600082614e9b57614e9b614e76565b500490565b805161467681614798565b8051801515811461467657600080fd5b600060208284031215614ecd57600080fd5b6108bc82614eab565b805161467681614b20565b80516001600160e01b03198116811461467657600080fd5b600082601f830112614f0a57600080fd5b815167ffffffffffffffff811115614f2457614f24614d55565b614f37601f8201601f1916602001614d95565b818152846020838601011115614f4c57600080fd5b6105568260208301602087016148cb565b600060208284031215614f6f57600080fd5b815167ffffffffffffffff80821115614f8757600080fd5b908301906101608286031215614f9c57600080fd5b614fa4614d6b565b614fad83614ed6565b8152614fbb60208401614ed6565b602082015260408301516040820152614fd660608401614ea0565b6060820152614fe760808401614ee1565b608082015260a083015182811115614ffe57600080fd5b61500a87828601614ef9565b60a08301525060c083015160c082015260e083015160e0820152610100915081830151828201526101209150615041828401614ea0565b828201526101409150615055828401614ea0565b91810191909152949350505050565b634e487b7160e01b600052602160045260246000fd5b808201828112600083128015821682158216171561509a5761509a614ba8565b505092915050565b6000826150b1576150b1614e76565b600160ff1b8214600019841416156150cb576150cb614ba8565b500590565b8181038181111561123157611231614ba8565b6060815260006150f660608301866148ef565b6001600160a01b039490941660208301525060400152919050565b60006020828403121561512357600080fd5b815167ffffffffffffffff81111561513a57600080fd5b61055684828501614ef9565b634e487b7160e01b600052600160045260246000fd5b808202811582820484141761123157611231614ba8565b8082018082111561123157611231614ba8565b60408152600061519960408301856148ef565b90508260208301529392505050565b6000600160ff1b82016151bd576151bd614ba8565b5060000390565b87815260e0602082015260006151dd60e08301896148ef565b6001600160a01b03978816604084015295151560608301525092909416608083015260a082015260c0019190915292915050565b600082600b0b82600b0b0280600b0b9150808214614cec57614cec614ba8565b60008060006060848603121561524657600080fd5b61524f84614eab565b925061525d60208501614eab565b9150604084015190509250925092565b6001600160a01b038681168252851660208201526040810184905260a0606082018190526000906152a0908301856148ef565b8281036080840152610e0681856148ef565b6001600160a01b03851681526080602082018190526000906152d6908301866148ef565b841515604084015282810360608401526152f081856148ef565b979650505050505050565b84600b0b815283600b0b602082015282600b0b604082015260806060820152600061532960808301846148ef565b9695505050505050565b6001600160a01b038781168252861660208201526040810185905260c060608201819052600090615366908301866148ef565b828103608084015261537881866148ef565b905082810360a08401526113ad81856148ef565b60018060a01b038416815282602082015260606040820152600061056f6060830184614c37565b600082516153c58184602087016148cb565b9190910192915050565b60a0815260006153e260a08301886148ef565b6001600160a01b039687166020840152604083019590955250606081019290925290921660809092019190915291905056fea26469706673582212205b7a6699cec5ce85147cc52d48df6ea5277530bc7a4c9ff1018de2108122335364736f6c63430008130033",
  "immutableReferences": {
    "6298": [
      {
        "length": 32,
        "start": 1954
      },
      {
        "length": 32,
        "start": 2483
      },
      {
        "length": 32,
        "start": 4136
      },
      {
        "length": 32,
        "start": 4285
      },
      {
        "length": 32,
        "start": 4466
      },
      {
        "length": 32,
        "start": 6242
      },
      {
        "length": 32,
        "start": 6391
      }
    ]
  },
  "source": "// SPDX-License-Identifier: AGPLv3\npragma solidity 0.8.19;\n\nimport {\n    IConstantFlowAgreementV1,\n    ISuperfluidToken\n} from \"../interfaces/agreements/IConstantFlowAgreementV1.sol\";\nimport {\n    ISuperfluid,\n    ISuperfluidGovernance,\n    ISuperApp,\n    ISuperToken,\n    FlowOperatorDefinitions,\n    SuperAppDefinitions,\n    ContextDefinitions,\n    SuperfluidGovernanceConfigs\n} from \"../interfaces/superfluid/ISuperfluid.sol\";\nimport { IConstantOutflowNFT } from \"../interfaces/superfluid/IConstantOutflowNFT.sol\";\nimport { AgreementBase } from \"./AgreementBase.sol\";\nimport { SafeCast } from \"@openzeppelin/contracts/utils/math/SafeCast.sol\";\nimport { AgreementLibrary } from \"./AgreementLibrary.sol\";\nimport { SafeGasLibrary } from \"../libs/SafeGasLibrary.sol\";\n\n/**\n * @title ConstantFlowAgreementV1 contract\n * @author Superfluid\n * @dev Please read IConstantFlowAgreementV1 for implementation notes.\n * @dev For more technical notes, please visit protocol-monorepo wiki area.\n * \n * Storage Layout Notes\n * Agreement State\n * NOTE The Agreement State slot is computed with the following function:\n * keccak256(abi.encode(\"AgreementState\", msg.sender, account, slotId))\n * slotId           = 0\n * msg.sender       = address of CFAv1\n * account          = context.msgSender \n * Flow Agreement State stores the global FlowData state for an account.\n * \n * \n * Agreement Data\n * NOTE The Agreement Data slot is calculated with the following function:\n * keccak256(abi.encode(\"AgreementData\", agreementClass, agreementId))\n * agreementClass   = address of CFAv1\n * agreementId      = FlowId | FlowOperatorId\n * \n * FlowId           = keccak256(abi.encode(flowSender, flowReceiver))\n * FlowId stores FlowData between a flowSender and flowReceiver.\n * \n * FlowOperatorId   = keccak256(abi.encode(\"flowOperator\", flowSender, flowOperator))\n * FlowOperatorId stores FlowOperatorData between a flowSender and flowOperator.\n */\ncontract ConstantFlowAgreementV1 is\n    AgreementBase,\n    IConstantFlowAgreementV1\n{\n    /**\n     * @dev Default minimum deposit value\n     *\n     * NOTE:\n     * - It may come as a surprise that it is not 0, this is the minimum friction we have in the system for the\n     *   imperfect blockchain system we live in.\n     * - It is related to deposit clipping, and it is always rounded-up when clipping.\n     */\n    uint256 public constant DEFAULT_MINIMUM_DEPOSIT = uint256(uint96(1 << 32));\n    /// @dev Maximum deposit value\n    uint256 public constant MAXIMUM_DEPOSIT = uint256(uint96(type(int96).max));\n\n    /// @dev Maximum flow rate\n    uint256 public constant MAXIMUM_FLOW_RATE = uint256(uint96(type(int96).max));\n\n    bytes32 private constant CFAV1_PPP_CONFIG_KEY =\n        keccak256(\"org.superfluid-finance.agreements.ConstantFlowAgreement.v1.PPPConfiguration\");\n\n    bytes32 private constant SUPERTOKEN_MINIMUM_DEPOSIT_KEY =\n        keccak256(\"org.superfluid-finance.superfluid.superTokenMinimumDeposit\");\n\n    // An arbitrarily chosen safety limit for the external calls to protect against out-of-gas grief exploits.\n    // solhint-disable-next-line var-name-mixedcase\n    uint64 constant public CFA_HOOK_GAS_LIMIT = 250000;\n\n    using SafeCast for uint256;\n    using SafeCast for int256;\n\n    struct FlowData {\n        uint256 timestamp; // stored as uint32\n        int96 flowRate; // stored also as int96\n        uint256 deposit; // stored as int96 with lower 32 bits clipped to 0\n        uint256 owedDeposit; // stored as int96 with lower 32 bits clipped to 0\n    }\n\n    struct FlowParams {\n        bytes32 flowId;\n        address sender;\n        address receiver;\n        address flowOperator;\n        int96 flowRate;\n        bytes userData;\n    }\n\n    struct FlowOperatorData {\n        uint8 permissions;\n        int96 flowRateAllowance;\n    }\n\n    // solhint-disable-next-line no-empty-blocks\n    constructor(\n        ISuperfluid host\n    ) AgreementBase(address(host)) {}\n\n    /**************************************************************************\n     * ISuperAgreement interface\n     *************************************************************************/\n\n    /// @dev ISuperAgreement.realtimeBalanceOf implementation\n    function realtimeBalanceOf(\n        ISuperfluidToken token,\n        address account,\n        uint256 time\n    )\n        external\n        view\n        override\n        returns (int256 dynamicBalance, uint256 deposit, uint256 owedDeposit)\n    {\n        (bool exist, FlowData memory state) = _getAccountFlowState(token, account);\n        if(exist) {\n            dynamicBalance = ((int256(time) - (int256(state.timestamp))) * state.flowRate);\n            deposit = state.deposit;\n            owedDeposit = state.owedDeposit;\n        }\n    }\n\n    /**************************************************************************\n     * IConstantFlowAgreementV1 interface\n     *************************************************************************/\n\n     function _getMaximumFlowRateFromDepositPure(\n         uint256 liquidationPeriod,\n         uint256 deposit)\n         internal pure\n         returns (int96 flowRate)\n     {\n        if (deposit > MAXIMUM_DEPOSIT) revert CFA_DEPOSIT_TOO_BIG();\n         deposit = _clipDepositNumberRoundingDown(deposit);\n\n         uint256 flowrate1 = deposit / liquidationPeriod;\n\n         // NOTE downcasting is safe as we constrain deposit to less than\n         // 2 ** 95 (MAXIMUM_DEPOSIT) so the resulting value flowRate1 will fit into int96\n         return int96(int256(flowrate1));\n     }\n\n     function _getDepositRequiredForFlowRatePure(\n         uint256 minimumDeposit,\n         uint256 liquidationPeriod,\n         int96 flowRate)\n         internal pure\n         returns (uint256 deposit)\n     {\n        if (flowRate < 0) revert CFA_INVALID_FLOW_RATE();\n        if (uint256(int256(flowRate)) * liquidationPeriod > uint256(int256(type(int96).max))) {\n            revert CFA_FLOW_RATE_TOO_BIG();\n        }\n         uint256 calculatedDeposit = _calculateDeposit(flowRate, liquidationPeriod);\n         return AgreementLibrary.max(minimumDeposit, calculatedDeposit);\n     }\n\n     /// @dev IConstantFlowAgreementV1.getMaximumFlowRateFromDeposit implementation\n     function getMaximumFlowRateFromDeposit(\n         ISuperfluidToken token,\n         uint256 deposit)\n         external view override\n         returns (int96 flowRate)\n     {\n         (uint256 liquidationPeriod, ) = _decode3PsData(token);\n         flowRate = _getMaximumFlowRateFromDepositPure(liquidationPeriod, deposit);\n     }\n\n     /// @dev IConstantFlowAgreementV1.getDepositRequiredForFlowRate implementation\n     function getDepositRequiredForFlowRate(\n         ISuperfluidToken token,\n         int96 flowRate)\n         external view override\n         returns (uint256 deposit)\n     {\n        // base case: 0 flow rate\n        if (flowRate == 0) return 0;\n         ISuperfluidGovernance gov = ISuperfluidGovernance(ISuperfluid(_host).getGovernance());\n         uint256 minimumDeposit = gov.getConfigAsUint256(ISuperfluid(_host), token, SUPERTOKEN_MINIMUM_DEPOSIT_KEY);\n         uint256 pppConfig = gov.getConfigAsUint256(ISuperfluid(_host), token, CFAV1_PPP_CONFIG_KEY);\n         (uint256 liquidationPeriod, ) = SuperfluidGovernanceConfigs.decodePPPConfig(pppConfig);\n         return _getDepositRequiredForFlowRatePure(minimumDeposit, liquidationPeriod, flowRate);\n     }\n\n    function isPatricianPeriodNow(\n        ISuperfluidToken token,\n        address account)\n        external view override\n        returns (bool isCurrentlyPatricianPeriod, uint256 timestamp)\n    {\n        timestamp = ISuperfluid(_host).getNow();\n        isCurrentlyPatricianPeriod = isPatricianPeriod(token, account, timestamp);\n    }\n\n    function isPatricianPeriod(\n        ISuperfluidToken token,\n        address account,\n        uint256 timestamp)\n        public view override\n        returns (bool)\n    {\n        (int256 availableBalance, ,) = token.realtimeBalanceOf(account, timestamp);\n        if (availableBalance >= 0) {\n            return true;\n        }\n\n        (uint256 liquidationPeriod, uint256 patricianPeriod) = _decode3PsData(token);\n        (,FlowData memory senderAccountState) = _getAccountFlowState(token, account);\n        int256 signedTotalCFADeposit = senderAccountState.deposit.toInt256();\n\n        return _isPatricianPeriod(\n            availableBalance,\n            signedTotalCFADeposit,\n            liquidationPeriod,\n            patricianPeriod\n        );\n    }\n\n    /// @dev IConstantFlowAgreementV1.createFlow implementation\n    function createFlow(\n        ISuperfluidToken token,\n        address receiver,\n        int96 flowRate,\n        bytes calldata ctx\n    )\n        external\n        override\n        returns(bytes memory newCtx)\n    {\n        ISuperfluid.Context memory currentContext = AgreementLibrary.authorizeTokenAccess(token, ctx);\n\n        _StackVars_createOrUpdateFlow memory flowVars;\n        flowVars.token = token;\n        flowVars.sender = currentContext.msgSender;\n        flowVars.receiver = receiver;\n        flowVars.flowRate = flowRate;\n\n        newCtx = _createFlow(\n            flowVars,\n            ctx,\n            currentContext\n        );\n    }\n\n    /// @dev IConstantFlowAgreementV1.updateFlow implementation\n    function updateFlow(\n        ISuperfluidToken token,\n        address receiver,\n        int96 flowRate,\n        bytes calldata ctx\n    )\n        external\n        override\n        returns(bytes memory newCtx)\n    {\n        ISuperfluid.Context memory currentContext = AgreementLibrary.authorizeTokenAccess(token, ctx);\n\n        _StackVars_createOrUpdateFlow memory flowVars;\n        flowVars.token = token;\n        flowVars.sender = currentContext.msgSender;\n        flowVars.receiver = receiver;\n        flowVars.flowRate = flowRate;\n\n        bytes32 flowId = _generateFlowId(flowVars.sender, flowVars.receiver);\n        (bool exist, FlowData memory oldFlowData) = _getAgreementData(flowVars.token, flowId);\n\n        newCtx = _updateFlow(\n            flowVars,\n            oldFlowData,\n            exist,\n            ctx,\n            currentContext\n        );\n    }\n\n    /// @dev IConstantFlowAgreementV1.deleteFlow implementation\n    function deleteFlow(\n        ISuperfluidToken token,\n        address sender,\n        address receiver,\n        bytes calldata ctx\n    )\n        external\n        override\n        returns(bytes memory newCtx)\n    {\n        ISuperfluid.Context memory currentContext = AgreementLibrary.authorizeTokenAccess(token, ctx);\n        (,uint8 permissions,) = getFlowOperatorData(token, sender, currentContext.msgSender);\n        bool hasPermissions = _getBooleanFlowOperatorPermissions(permissions, FlowChangeType.DELETE_FLOW);\n\n        _StackVars_createOrUpdateFlow memory flowVars;\n        flowVars.token = token;\n        flowVars.sender = sender;\n        flowVars.receiver = receiver;\n        flowVars.flowRate = 0;\n\n        newCtx = _deleteFlow(flowVars, hasPermissions, ctx, currentContext);\n    }\n\n    /// @dev IConstantFlowAgreementV1.getFlow implementation\n    function getFlow(\n        ISuperfluidToken token,\n        address sender,\n        address receiver\n    )\n        external\n        view\n        override\n        returns (\n            uint256 timestamp,\n            int96 flowRate,\n            uint256 deposit,\n            uint256 owedDeposit\n        )\n    {\n        (, FlowData memory data) = _getAgreementData(\n            token,\n            _generateFlowId(sender, receiver));\n\n        return(\n            data.timestamp,\n            data.flowRate,\n            data.deposit,\n            data.owedDeposit\n        );\n    }\n\n    /// @dev IConstantFlowAgreementV1.getFlow implementation\n    function getFlowByID(\n        ISuperfluidToken token,\n        bytes32 flowId\n    )\n        external\n        view\n        override\n        returns(\n            uint256 timestamp,\n            int96 flowRate,\n            uint256 deposit,\n            uint256 owedDeposit\n        )\n    {\n        (, FlowData memory data) = _getAgreementData(\n            token,\n            flowId\n        );\n\n        return (\n            data.timestamp,\n            data.flowRate,\n            data.deposit,\n            data.owedDeposit\n        );\n    }\n\n    /// @dev IConstantFlowAgreementV1.getAccountFlowInfo implementation\n    function getAccountFlowInfo(\n        ISuperfluidToken token,\n        address account\n    )\n        external view override\n        returns (\n            uint256 timestamp,\n            int96 flowRate,\n            uint256 deposit,\n            uint256 owedDeposit)\n    {\n        (, FlowData memory state) = _getAccountFlowState(token, account);\n        return (\n            state.timestamp,\n            state.flowRate,\n            state.deposit,\n            state.owedDeposit\n        );\n    }\n\n    /// @dev IConstantFlowAgreementV1.getNetFlow implementation\n    function getNetFlow(\n        ISuperfluidToken token,\n        address account\n    )\n        external view override\n        returns (int96 flowRate)\n    {\n        (, FlowData memory state) = _getAccountFlowState(token, account);\n        return state.flowRate;\n    }\n\n    /**************************************************************************\n     * Internal Helper Functions\n     *************************************************************************/\n\n    // Stack variables for _createOrUpdateFlow function, to avoid stack too deep issue\n    // solhint-disable-next-line contract-name-camelcase\n    struct _StackVars_createOrUpdateFlow {\n        ISuperfluidToken token;\n        address sender;\n        address receiver;\n        int96 flowRate;\n    }\n\n    /**\n     * @dev Checks conditions for both create/update flow\n     * returns the flowId and flowParams\n     */\n    function _createOrUpdateFlowCheck(\n        _StackVars_createOrUpdateFlow memory flowVars,\n        ISuperfluid.Context memory currentContext\n    )\n        internal pure\n        returns(bytes32 flowId, FlowParams memory flowParams)\n    {\n        if (flowVars.receiver == address(0)) {\n            revert CFA_ZERO_ADDRESS_RECEIVER();\n        }\n\n        flowId = _generateFlowId(flowVars.sender, flowVars.receiver);\n        flowParams.flowId = flowId;\n        flowParams.sender = flowVars.sender;\n        flowParams.receiver = flowVars.receiver;\n        flowParams.flowOperator = currentContext.msgSender;\n        flowParams.flowRate = flowVars.flowRate;\n        flowParams.userData = currentContext.userData;\n        if (flowParams.sender == flowParams.receiver) revert CFA_NO_SELF_FLOW();\n        if (flowParams.flowRate <= 0) revert CFA_INVALID_FLOW_RATE();\n    }\n\n    \n    /**\n     * @notice Checks whether or not the NFT hook can be called.\n     * @dev A staticcall, so `CONSTANT_OUTFLOW_NFT` must be a view otherwise the assumption is that it reverts\n     * @param token the super token that is being streamed\n     * @return constantOutflowNFTAddress the address returned by low level call\n     */\n    function _canCallNFTHook(\n        ISuperfluidToken token\n    ) internal view returns (address constantOutflowNFTAddress) {\n        // solhint-disable-next-line avoid-low-level-calls\n        (bool success, bytes memory data) = address(token).staticcall(\n            abi.encodeWithSelector(ISuperToken.CONSTANT_OUTFLOW_NFT.selector)\n        );\n\n        if (success) {\n            // @note We are aware this may revert if a Custom SuperToken's\n            // CONSTANT_OUTFLOW_NFT does not return data that can be\n            // decoded to an address. This would mean it was intentionally\n            // done by the creator of the Custom SuperToken logic and is\n            // fully expected to revert in that case as the author desired.\n            constantOutflowNFTAddress = abi.decode(data, (address));\n        }\n    }\n\n    function _handleOnCreateHook(\n        _StackVars_createOrUpdateFlow memory flowVars\n    ) internal {\n        uint256 gasLeftBefore = gasleft();\n\n        address constantOutflowNFTAddress = _canCallNFTHook(flowVars.token);\n\n        if (constantOutflowNFTAddress != address(0)) {\n            try\n                IConstantOutflowNFT(constantOutflowNFTAddress).onCreate(\n                    flowVars.token,\n                    flowVars.sender,\n                    flowVars.receiver\n                )\n            // solhint-disable-next-line no-empty-blocks\n            {\n\n            } catch {\n                SafeGasLibrary._revertWhenOutOfGas(gasLeftBefore);\n            }\n        }\n    }\n\n    function _handleOnUpdateHook(\n        _StackVars_createOrUpdateFlow memory flowVars\n    ) internal {\n        uint256 gasLeftBefore = gasleft();\n\n        address constantOutflowNFTAddress = _canCallNFTHook(flowVars.token);\n\n        if (constantOutflowNFTAddress != address(0)) {\n            try\n                IConstantOutflowNFT(constantOutflowNFTAddress).onUpdate(\n                    flowVars.token,\n                    flowVars.sender,\n                    flowVars.receiver\n                )\n            // solhint-disable-next-line no-empty-blocks\n            {\n\n            } catch {\n                SafeGasLibrary._revertWhenOutOfGas(gasLeftBefore);\n            }\n        }\n    }\n\n    function _handleOnDeleteHook(\n        _StackVars_createOrUpdateFlow memory flowVars\n    ) internal {\n        uint256 gasLeftBefore = gasleft();\n\n        address constantOutflowNFTAddress = _canCallNFTHook(flowVars.token);\n\n        if (constantOutflowNFTAddress != address(0)) {\n            try\n                IConstantOutflowNFT(constantOutflowNFTAddress).onDelete(\n                    flowVars.token,\n                    flowVars.sender,\n                    flowVars.receiver\n                )\n            // solhint-disable-next-line no-empty-blocks\n            {\n\n            } catch {\n                SafeGasLibrary._revertWhenOutOfGas(gasLeftBefore);\n            }\n        }\n    }\n\n    function _createFlow(\n        _StackVars_createOrUpdateFlow memory flowVars,\n        bytes calldata ctx,\n        ISuperfluid.Context memory currentContext\n    )\n        internal\n        returns(bytes memory newCtx)\n    {\n        (bytes32 flowId, FlowParams memory flowParams) = _createOrUpdateFlowCheck(flowVars, currentContext);\n\n        (bool exist, FlowData memory oldFlowData) = _getAgreementData(flowVars.token, flowId);\n        if (exist) revert CFA_FLOW_ALREADY_EXISTS();\n\n        if (ISuperfluid(msg.sender).isApp(ISuperApp(flowVars.receiver))) {\n            newCtx = _changeFlowToApp(\n                flowVars.receiver,\n                flowVars.token, flowParams, oldFlowData,\n                ctx, currentContext, FlowChangeType.CREATE_FLOW);\n        } else {\n            newCtx = _changeFlowToNonApp(\n                flowVars.token, flowParams, oldFlowData,\n                ctx, currentContext);\n        }\n\n        _requireAvailableBalance(flowVars.token, flowVars.sender, currentContext);\n\n        _handleOnCreateHook(flowVars);\n    }\n\n    function _updateFlow(\n        _StackVars_createOrUpdateFlow memory flowVars,\n        FlowData memory oldFlowData,\n        bool exist,\n        bytes calldata ctx,\n        ISuperfluid.Context memory currentContext\n    )\n        internal\n        returns(bytes memory newCtx)\n    {\n        (, FlowParams memory flowParams) = _createOrUpdateFlowCheck(flowVars, currentContext);\n\n        if (!exist) revert CFA_FLOW_DOES_NOT_EXIST();\n\n        if (ISuperfluid(msg.sender).isApp(ISuperApp(flowVars.receiver))) {\n            newCtx = _changeFlowToApp(\n                flowVars.receiver,\n                flowVars.token, flowParams, oldFlowData,\n                ctx, currentContext, FlowChangeType.UPDATE_FLOW);\n        } else {\n            newCtx = _changeFlowToNonApp(\n                flowVars.token, flowParams, oldFlowData,\n                ctx, currentContext);\n        }\n\n        _requireAvailableBalance(flowVars.token, flowVars.sender, currentContext);\n\n        _handleOnUpdateHook(flowVars);\n    }\n\n    function _deleteFlow(\n        _StackVars_createOrUpdateFlow memory flowVars,\n        bool hasPermissions,\n        bytes calldata ctx,\n        ISuperfluid.Context memory currentContext\n    )\n        internal\n        returns(bytes memory newCtx)\n    {\n        FlowParams memory flowParams;\n        if (flowVars.sender == address(0)) {\n            revert CFA_ZERO_ADDRESS_SENDER();\n        }\n        if (flowVars.receiver == address(0)) {\n            revert CFA_ZERO_ADDRESS_RECEIVER();\n        }\n        flowParams.flowId = _generateFlowId(flowVars.sender, flowVars.receiver);\n        flowParams.sender = flowVars.sender;\n        flowParams.receiver = flowVars.receiver;\n        flowParams.flowOperator = currentContext.msgSender;\n        flowParams.flowRate = 0;\n        flowParams.userData = currentContext.userData;\n        (bool exist, FlowData memory oldFlowData) = _getAgreementData(flowVars.token, flowParams.flowId);\n        if (!exist) revert CFA_FLOW_DOES_NOT_EXIST();\n\n        (int256 availableBalance,,) = flowVars.token.realtimeBalanceOf(flowVars.sender, currentContext.timestamp);\n\n        // delete should only be called by sender, receiver or flowOperator\n        // unless it is a liquidation (availale balance < 0)\n        if (currentContext.msgSender != flowVars.sender &&\n            currentContext.msgSender != flowVars.receiver &&\n            !hasPermissions)\n        {\n            if (!ISuperfluid(msg.sender).isAppJailed(ISuperApp(flowVars.sender)) &&\n                !ISuperfluid(msg.sender).isAppJailed(ISuperApp(flowVars.receiver))) {\n                if (availableBalance >= 0) revert CFA_NON_CRITICAL_SENDER();\n            }\n        }\n\n        if (availableBalance < 0) {\n            _makeLiquidationPayouts(\n                flowVars.token,\n                availableBalance,\n                flowParams,\n                oldFlowData,\n                currentContext.msgSender);\n        }\n\n        newCtx = ctx;\n        // if the sender of the flow is deleting the flow\n        if (currentContext.msgSender == flowVars.sender) {\n            // if the sender is deleting a flow to a super app receiver\n            if (ISuperfluid(msg.sender).isApp(ISuperApp(flowVars.receiver))) {\n                newCtx = _changeFlowToApp(\n                    flowVars.receiver,\n                    flowVars.token, flowParams, oldFlowData,\n                    newCtx, currentContext, FlowChangeType.DELETE_FLOW);\n            } else {\n                // if the receiver is not a super app (sender may be a super app or non super app)\n                newCtx = _changeFlowToNonApp(\n                    flowVars.token, flowParams, oldFlowData,\n                    newCtx, currentContext);\n            }\n        // if the receiver of the flow is deleting the flow\n        } else if (currentContext.msgSender == flowVars.receiver) {\n            // if the flow being deleted by the receiver has a super app sender\n            if (ISuperfluid(msg.sender).isApp(ISuperApp(flowVars.sender))) {\n                newCtx = _changeFlowToApp(\n                    flowVars.sender,\n                    flowVars.token, flowParams, oldFlowData,\n                    newCtx, currentContext, FlowChangeType.DELETE_FLOW);\n            // if the receiver of the flow deleting the flow is a super app\n            } else if (ISuperfluid(msg.sender).isApp(ISuperApp(flowVars.receiver))) {\n                newCtx = _changeFlowToApp(\n                    address(0),\n                    flowVars.token, flowParams, oldFlowData,\n                    newCtx, currentContext, FlowChangeType.DELETE_FLOW);\n            // if the sender is not a super app (the stream is not coming to or from a super app)\n            } else {\n                newCtx = _changeFlowToNonApp(\n                    flowVars.token, flowParams, oldFlowData,\n                    newCtx, currentContext);\n            }\n        // flowOperator case OR liquidation case (when the msgSender isn't the sender or receiver)\n        } else /* liquidations or flowOperator deleting a flow */ {\n            // if the sender is an app and is critical\n            // we jail the app\n            if (ISuperfluid(msg.sender).isApp(ISuperApp(flowVars.sender)) && availableBalance < 0) {\n                newCtx = ISuperfluid(msg.sender).jailApp(\n                    newCtx,\n                    ISuperApp(flowVars.sender),\n                    SuperAppDefinitions.APP_RULE_NO_CRITICAL_SENDER_ACCOUNT);\n            }\n            // if the stream we're deleting (possibly liquidating) has a receiver that is a super app\n            // always attempt to call receiver callback\n            if (ISuperfluid(msg.sender).isApp(ISuperApp(flowVars.receiver))) {\n                newCtx = _changeFlowToApp(\n                    flowVars.receiver,\n                    flowVars.token, flowParams, oldFlowData,\n                    newCtx, currentContext, FlowChangeType.DELETE_FLOW);\n            // if the stream we're deleting (possibly liquidating) has a receiver that is not a super app\n            // or the sender is a super app or the sender is not a super app\n            } else {\n                newCtx = _changeFlowToNonApp(\n                    flowVars.token, flowParams, oldFlowData,\n                    newCtx, currentContext);\n            }\n        }\n\n        _handleOnDeleteHook(flowVars);\n    }\n\n    /**************************************************************************\n     * ACL Functions\n     *************************************************************************/\n\n    /// @dev IConstantFlowAgreementV1.createFlowByOperator implementation\n    function createFlowByOperator(\n        ISuperfluidToken token,\n        address sender,\n        address receiver,\n        int96 flowRate,\n        bytes calldata ctx\n    )\n        external override\n        returns(bytes memory newCtx)\n    {\n        ISuperfluid.Context memory currentContext = AgreementLibrary.authorizeTokenAccess(token, ctx);\n        if (currentContext.msgSender == sender) revert CFA_ACL_NO_SENDER_CREATE();\n\n        {\n            // check if flow operator has create permissions\n            (\n                bytes32 flowOperatorId,\n                uint8 permissions,\n                int96 flowRateAllowance\n            ) = getFlowOperatorData(token, sender, currentContext.msgSender);\n            if (!_getBooleanFlowOperatorPermissions(permissions, FlowChangeType.CREATE_FLOW)) {\n                revert CFA_ACL_OPERATOR_NO_CREATE_PERMISSIONS();\n            }\n\n            // check if desired flow rate is allowed and update flow rate allowance\n            int96 updatedFlowRateAllowance = flowRateAllowance == type(int96).max\n                ? flowRateAllowance\n                : flowRateAllowance - flowRate;\n            if (updatedFlowRateAllowance < 0) revert CFA_ACL_FLOW_RATE_ALLOWANCE_EXCEEDED();\n            _updateFlowRateAllowance(token, flowOperatorId, permissions, updatedFlowRateAllowance);\n        }\n        {\n            _StackVars_createOrUpdateFlow memory flowVars;\n            flowVars.token = token;\n            flowVars.sender = sender;\n            flowVars.receiver = receiver;\n            flowVars.flowRate = flowRate;\n            newCtx = _createFlow(\n                flowVars,\n                ctx,\n                currentContext\n            );\n        }\n    }\n\n    /// @dev IConstantFlowAgreementV1.updateFlowByOperator implementation\n    function updateFlowByOperator(\n        ISuperfluidToken token,\n        address sender,\n        address receiver,\n        int96 flowRate,\n        bytes calldata ctx\n    )\n        external override\n        returns(bytes memory newCtx)\n    {\n        ISuperfluid.Context memory currentContext = AgreementLibrary.authorizeTokenAccess(token, ctx);\n        if (currentContext.msgSender == sender) revert CFA_ACL_NO_SENDER_UPDATE();\n\n        // check if flow exists\n        (bool exist, FlowData memory oldFlowData) = _getAgreementData(token, _generateFlowId(sender, receiver));\n\n        {\n            // check if flow operator has create permissions\n            (\n                bytes32 flowOperatorId,\n                uint8 permissions,\n                int96 flowRateAllowance\n            ) = getFlowOperatorData(token, sender, currentContext.msgSender);\n            if (!_getBooleanFlowOperatorPermissions(permissions, FlowChangeType.UPDATE_FLOW)) {\n                revert CFA_ACL_OPERATOR_NO_UPDATE_PERMISSIONS();\n            }\n\n            // check if desired flow rate is allowed and update flow rate allowance\n            int96 updatedFlowRateAllowance = flowRateAllowance == type(int96).max || oldFlowData.flowRate >= flowRate\n                ? flowRateAllowance\n                : flowRateAllowance - (flowRate - oldFlowData.flowRate);\n            if (updatedFlowRateAllowance < 0) revert CFA_ACL_FLOW_RATE_ALLOWANCE_EXCEEDED();\n            _updateFlowRateAllowance(token, flowOperatorId, permissions, updatedFlowRateAllowance);\n        }\n\n        {\n            _StackVars_createOrUpdateFlow memory flowVars;\n            flowVars.token = token;\n            flowVars.sender = sender;\n            flowVars.receiver = receiver;\n            flowVars.flowRate = flowRate;\n            newCtx = _updateFlow(\n                flowVars,\n                oldFlowData,\n                exist,\n                ctx,\n                currentContext\n            );\n        }\n    }\n\n    /// @dev IConstantFlowAgreementV1.deleteFlowByOperator implementation\n    function deleteFlowByOperator(\n        ISuperfluidToken token,\n        address sender,\n        address receiver,\n        bytes calldata ctx\n    )\n        external override\n        returns(bytes memory newCtx)\n    {\n        ISuperfluid.Context memory currentContext = AgreementLibrary.authorizeTokenAccess(token, ctx);\n        (,uint8 permissions,) = getFlowOperatorData(token, sender, currentContext.msgSender);\n        bool hasPermissions = _getBooleanFlowOperatorPermissions(permissions, FlowChangeType.DELETE_FLOW);\n        if (!hasPermissions) revert CFA_ACL_OPERATOR_NO_DELETE_PERMISSIONS();\n\n        _StackVars_createOrUpdateFlow memory flowVars;\n        flowVars.token = token;\n        flowVars.sender = sender;\n        flowVars.receiver = receiver;\n        flowVars.flowRate = 0;\n\n        newCtx = _deleteFlow(flowVars, hasPermissions, ctx, currentContext);\n    }\n\n    /// @dev IConstantFlowAgreementV1.updateFlowOperatorPermissions implementation\n    function updateFlowOperatorPermissions(\n        ISuperfluidToken token,\n        address flowOperator,\n        uint8 permissions,\n        int96 flowRateAllowance, // flowRateBudget\n        bytes calldata ctx\n    ) public override returns(bytes memory newCtx) {\n        newCtx = ctx;\n        if (!FlowOperatorDefinitions.isPermissionsClean(permissions)) revert CFA_ACL_UNCLEAN_PERMISSIONS();\n        ISuperfluid.Context memory currentContext = AgreementLibrary.authorizeTokenAccess(token, ctx);\n        // [SECURITY] NOTE: we are holding the assumption here that ctx is correct and we validate it with\n        // authorizeTokenAccess:\n        if (currentContext.msgSender == flowOperator) revert CFA_ACL_NO_SENDER_FLOW_OPERATOR();\n        if (flowRateAllowance < 0) revert CFA_ACL_NO_NEGATIVE_ALLOWANCE();\n        FlowOperatorData memory flowOperatorData;\n        flowOperatorData.permissions = permissions;\n        flowOperatorData.flowRateAllowance = flowRateAllowance;\n        bytes32 flowOperatorId = _generateFlowOperatorId(currentContext.msgSender, flowOperator);\n        token.updateAgreementData(flowOperatorId, _encodeFlowOperatorData(flowOperatorData));\n\n        emit FlowOperatorUpdated(token, currentContext.msgSender, flowOperator, permissions, flowRateAllowance);\n    }\n\n    /// @dev IConstantFlowAgreementV1.increaseFlowRateAllowance implementation\n    function increaseFlowRateAllowance(\n        ISuperfluidToken token,\n        address flowOperator,\n        int96 addedFlowRateAllowance, // flowRateBudget\n        bytes calldata ctx\n    ) public override returns (bytes memory newCtx) {\n        newCtx = ctx;\n\n        // [SECURITY] NOTE: we are holding the assumption here that ctx is correct and we validate it with\n        // authorizeTokenAccess:\n        ISuperfluid.Context memory currentContext = AgreementLibrary.authorizeTokenAccess(token, ctx);\n\n        if (currentContext.msgSender == flowOperator) revert CFA_ACL_NO_SENDER_FLOW_OPERATOR();\n        if (addedFlowRateAllowance < 0) revert CFA_ACL_NO_NEGATIVE_ALLOWANCE();\n        \n        (\n            bytes32 flowOperatorId,\n            uint8 oldPermissions,\n            int96 oldFlowRateAllowance\n        ) = getFlowOperatorData(token, currentContext.msgSender, flowOperator);\n\n        // @note this will revert if it overflows\n        int96 newFlowRateAllowance = oldFlowRateAllowance + addedFlowRateAllowance;\n        _updateFlowRateAllowance(\n            token,\n            flowOperatorId,\n            oldPermissions,\n            newFlowRateAllowance\n        );\n\n        emit FlowOperatorUpdated(\n            token,\n            currentContext.msgSender,\n            flowOperator,\n            oldPermissions,\n            newFlowRateAllowance\n        );\n    }\n\n    /// @dev IConstantFlowAgreementV1.decreaseFlowRateAllowance implementation\n    function decreaseFlowRateAllowance(\n        ISuperfluidToken token,\n        address flowOperator,\n        int96 subtractedFlowRateAllowance, // flowRateBudget\n        bytes calldata ctx\n    ) public override returns (bytes memory newCtx) {\n        newCtx = ctx;\n\n        // [SECURITY] NOTE: we are holding the assumption here that ctx is correct and we validate it with\n        // authorizeTokenAccess:\n        ISuperfluid.Context memory currentContext = AgreementLibrary\n            .authorizeTokenAccess(token, ctx);\n\n        if (currentContext.msgSender == flowOperator) revert CFA_ACL_NO_SENDER_FLOW_OPERATOR();\n        if (subtractedFlowRateAllowance < 0) revert CFA_ACL_NO_NEGATIVE_ALLOWANCE();\n\n        (\n            bytes32 flowOperatorId,\n            uint8 oldPermissions,\n            int96 oldFlowRateAllowance\n        ) = getFlowOperatorData(token, currentContext.msgSender, flowOperator);\n        \n        int96 newFlowRateAllowance = oldFlowRateAllowance - subtractedFlowRateAllowance;\n\n        // @note this defends against negative allowance\n        if (newFlowRateAllowance < 0) revert CFA_ACL_NO_NEGATIVE_ALLOWANCE();\n\n        _updateFlowRateAllowance(\n            token,\n            flowOperatorId,\n            oldPermissions,\n            newFlowRateAllowance\n        );\n\n        emit FlowOperatorUpdated(\n            token,\n            currentContext.msgSender,\n            flowOperator,\n            oldPermissions,\n            newFlowRateAllowance\n        );\n    }\n\n    /// @dev IConstantFlowAgreementV1.authorizeFlowOperatorWithFullControl implementation\n    function authorizeFlowOperatorWithFullControl(\n        ISuperfluidToken token,\n        address flowOperator,\n        bytes calldata ctx\n    )\n        external override\n        returns(bytes memory newCtx)\n    {\n        newCtx = updateFlowOperatorPermissions(\n            token,\n            flowOperator,\n            FlowOperatorDefinitions.AUTHORIZE_FULL_CONTROL,\n            type(int96).max,\n            ctx\n        );\n    }\n\n    /// @dev IConstantFlowAgreementV1.revokeFlowOperatorWithFullControl implementation\n    function revokeFlowOperatorWithFullControl(\n        ISuperfluidToken token,\n        address flowOperator,\n        bytes calldata ctx\n    )\n        external override\n        returns(bytes memory newCtx)\n    {\n        // NOTE: REVOKE_FULL_CONTROL = 0\n        newCtx = updateFlowOperatorPermissions(token, flowOperator, 0, 0, ctx);\n    }\n\n    /// @dev IConstantFlowAgreementV1.getFlowOperatorData implementation\n    function getFlowOperatorData(\n        ISuperfluidToken token,\n        address sender,\n        address flowOperator\n    )\n        public view override\n        returns(bytes32 flowOperatorId, uint8 permissions, int96 flowRateAllowance)\n    {\n        flowOperatorId = _generateFlowOperatorId(sender, flowOperator);\n        (, FlowOperatorData memory flowOperatorData) = _getFlowOperatorData(token, flowOperatorId);\n        permissions = flowOperatorData.permissions;\n        flowRateAllowance = flowOperatorData.flowRateAllowance;\n    }\n\n    /// @dev IConstantFlowAgreementV1.getFlowOperatorDataByID implementation\n    function getFlowOperatorDataByID(\n        ISuperfluidToken token,\n        bytes32 flowOperatorId\n    )\n        external view override\n        returns(uint8 permissions, int96 flowRateAllowance)\n    {\n        (, FlowOperatorData memory flowOperatorData) = _getFlowOperatorData(token, flowOperatorId);\n        permissions = flowOperatorData.permissions;\n        flowRateAllowance = flowOperatorData.flowRateAllowance;\n    }\n\n    /**************************************************************************\n     * Internal State Functions\n     *************************************************************************/\n\n    enum FlowChangeType {\n        CREATE_FLOW,\n        UPDATE_FLOW,\n        DELETE_FLOW\n    }\n\n    function _getAccountFlowState\n    (\n        ISuperfluidToken token,\n        address account\n    )\n        private view\n        returns(bool exist, FlowData memory)\n    {\n        bytes32[] memory data = token.getAgreementStateSlot(address(this), account, 0 /* slotId */, 1 /* length */);\n        return _decodeFlowData(uint256(data[0]));\n    }\n\n    function _getAgreementData\n    (\n        ISuperfluidToken token,\n        bytes32 dId\n    )\n        private view\n        returns (bool exist, FlowData memory)\n    {\n        bytes32[] memory data = token.getAgreementData(address(this), dId, 1);\n        return _decodeFlowData(uint256(data[0]));\n    }\n\n    function _getFlowOperatorData\n    (\n        ISuperfluidToken token,\n        bytes32 flowOperatorId\n    )\n        private view\n        returns (bool exist, FlowOperatorData memory)\n    {\n        // 1 because we are storing the flowOperator data in one word\n        bytes32[] memory data = token.getAgreementData(address(this), flowOperatorId, 1);\n        return _decodeFlowOperatorData(uint256(data[0]));\n    }\n\n    function _updateFlowRateAllowance\n    (\n        ISuperfluidToken token,\n        bytes32 flowOperatorId,\n        uint8 existingPermissions,\n        int96 updatedFlowRateAllowance\n    )\n        private\n    {\n        FlowOperatorData memory flowOperatorData;\n        flowOperatorData.permissions = existingPermissions;\n        flowOperatorData.flowRateAllowance = updatedFlowRateAllowance;\n        token.updateAgreementData(flowOperatorId, _encodeFlowOperatorData(flowOperatorData));\n    }\n\n    function _updateAccountFlowState(\n        ISuperfluidToken token,\n        address account,\n        int96 flowRateDelta,\n        int256 depositDelta,\n        int256 owedDepositDelta,\n        uint256 currentTimestamp\n    )\n        private\n        returns (int96 newNetFlowRate)\n    {\n        (, FlowData memory state) = _getAccountFlowState(token, account);\n        int256 dynamicBalance = (currentTimestamp - state.timestamp).toInt256()\n            * int256(state.flowRate);\n        if (dynamicBalance != 0) {\n            token.settleBalance(account, dynamicBalance);\n        }\n        state.flowRate = state.flowRate + flowRateDelta;\n        state.timestamp = currentTimestamp;\n        state.deposit = (state.deposit.toInt256() + depositDelta).toUint256();\n        state.owedDeposit = (state.owedDeposit.toInt256() + owedDepositDelta).toUint256();\n\n        token.updateAgreementStateSlot(account, 0 /* slot id */, _encodeFlowData(state));\n\n        return state.flowRate;\n    }\n\n    /**\n     * @dev update a flow to a non-app receiver\n     */\n    function _changeFlowToNonApp(\n        ISuperfluidToken token,\n        FlowParams memory flowParams,\n        FlowData memory oldFlowData,\n        bytes memory ctx,\n        ISuperfluid.Context memory currentContext\n    )\n        private\n        returns (bytes memory newCtx)\n    {\n        // owed deposit should have been always zero, since an app should never become a non app\n        assert(oldFlowData.owedDeposit == 0);\n\n        // STEP 1: update the flow\n        int256 depositDelta;\n        FlowData memory newFlowData;\n        (depositDelta,,newFlowData) = _changeFlow(\n            currentContext.timestamp,\n            currentContext.appCreditToken,\n            token, flowParams, oldFlowData);\n\n        // STEP 2: update app credit used\n        if (currentContext.appCreditToken == token) {\n            newCtx = ISuperfluid(msg.sender).ctxUseCredit(\n                ctx,\n                depositDelta\n            );\n        } else {\n            newCtx = ctx;\n        }\n    }\n\n    /**\n     * @dev change a flow to a app receiver\n     */\n\n    // Stack variables for _changeFlowToApp function, to avoid stack too deep issue\n    // solhint-disable-next-line contract-name-camelcase\n    struct _StackVars_changeFlowToApp {\n        bytes cbdata;\n        FlowData newFlowData;\n        ISuperfluid.Context appContext;\n    }\n    function _changeFlowToApp(\n        address appToCallback,\n        ISuperfluidToken token,\n        FlowParams memory flowParams,\n        FlowData memory oldFlowData,\n        bytes memory ctx,\n        ISuperfluid.Context memory currentContext,\n        FlowChangeType optype\n    )\n        private\n        returns (bytes memory newCtx)\n    {\n        newCtx = ctx;\n        // apply callbacks\n        _StackVars_changeFlowToApp memory vars;\n\n        // call callback\n        if (appToCallback != address(0)) {\n            AgreementLibrary.CallbackInputs memory cbStates = AgreementLibrary.createCallbackInputs(\n                token,\n                appToCallback,\n                flowParams.flowId,\n                abi.encode(flowParams.sender, flowParams.receiver)\n            );\n\n            // call the before callback\n            if (optype == FlowChangeType.CREATE_FLOW) {\n                cbStates.noopBit = SuperAppDefinitions.BEFORE_AGREEMENT_CREATED_NOOP;\n            } else if (optype == FlowChangeType.UPDATE_FLOW) {\n                cbStates.noopBit = SuperAppDefinitions.BEFORE_AGREEMENT_UPDATED_NOOP;\n            } else /* if (optype == FlowChangeType.DELETE_FLOW) */ {\n                cbStates.noopBit = SuperAppDefinitions.BEFORE_AGREEMENT_TERMINATED_NOOP;\n            }\n            vars.cbdata = AgreementLibrary.callAppBeforeCallback(cbStates, ctx);\n\n            ISuperfluidGovernance gov = ISuperfluidGovernance(ISuperfluid(msg.sender).getGovernance());\n\n            (,cbStates.appCreditGranted,) = _changeFlow(\n                    currentContext.timestamp,\n                    currentContext.appCreditToken,\n                    token, flowParams, oldFlowData);\n\n\n            // Rule CFA-2\n            // https://github.com/superfluid-finance/protocol-monorepo/wiki/About-App-Credit\n            // Allow apps to take an additional amount of app credit (minimum deposit)\n            uint256 minimumDeposit = gov.getConfigAsUint256(\n                ISuperfluid(msg.sender), token, SUPERTOKEN_MINIMUM_DEPOSIT_KEY);\n\n            // NOTE: we do not provide additionalAppCreditAmount when cbStates.appCreditGranted is 0\n            // (closing streams)\n            uint256 additionalAppCreditAmount = cbStates.appCreditGranted == 0\n                ? 0\n                : AgreementLibrary.max(\n                    DEFAULT_MINIMUM_DEPOSIT,\n                    minimumDeposit\n                );\n            cbStates.appCreditGranted = cbStates.appCreditGranted + additionalAppCreditAmount;\n\n            cbStates.appCreditUsed = oldFlowData.owedDeposit.toInt256();\n\n            // - each app level can at least \"relay\" the same amount of input flow rate to others\n            // - each app level gets the same amount of credit\n\n            if (optype == FlowChangeType.CREATE_FLOW) {\n                cbStates.noopBit = SuperAppDefinitions.AFTER_AGREEMENT_CREATED_NOOP;\n            } else if (optype == FlowChangeType.UPDATE_FLOW) {\n                cbStates.noopBit = SuperAppDefinitions.AFTER_AGREEMENT_UPDATED_NOOP;\n            } else /* if (optype == FlowChangeType.DELETE_FLOW) */ {\n                cbStates.noopBit = SuperAppDefinitions.AFTER_AGREEMENT_TERMINATED_NOOP;\n            }\n            (vars.appContext, newCtx) = AgreementLibrary.callAppAfterCallback(cbStates, vars.cbdata, newCtx);\n\n            // NB: the callback might update the same flow!!\n            // reload the flow data\n            (, vars.newFlowData) = _getAgreementData(token, flowParams.flowId);\n        } else {\n            (,,vars.newFlowData) = _changeFlow(\n                    currentContext.timestamp,\n                    currentContext.appCreditToken,\n                    token, flowParams, oldFlowData);\n        }\n\n        // REVIEW the re-entrace assumptions from this point on\n\n        // NOTE: vars.appContext.appCreditUsed will be adjusted by callAppAfterCallback\n        // and its range will be [0, currentContext.appCreditGranted]\n        {\n            int256 appCreditDelta = vars.appContext.appCreditUsed\n                - oldFlowData.owedDeposit.toInt256();\n\n            // update flow data and account state with the credit delta\n            {\n                vars.newFlowData.deposit = (vars.newFlowData.deposit.toInt256()\n                    + appCreditDelta).toUint256();\n                vars.newFlowData.owedDeposit = (vars.newFlowData.owedDeposit.toInt256()\n                    + appCreditDelta).toUint256();\n                token.updateAgreementData(flowParams.flowId, _encodeFlowData(vars.newFlowData));\n                // update sender and receiver deposit (for sender) and owed deposit (for receiver)\n                _updateAccountFlowState(\n                    token,\n                    flowParams.sender,\n                    0, // flow rate delta\n                    appCreditDelta, // deposit delta\n                    0, // owed deposit delta\n                    currentContext.timestamp\n                );\n                _updateAccountFlowState(\n                    token,\n                    flowParams.receiver,\n                    0, // flow rate delta\n                    0, // deposit delta\n                    appCreditDelta, // owed deposit delta\n                    currentContext.timestamp\n                );\n            }\n\n            if (address(currentContext.appCreditToken) == address(0) ||\n                currentContext.appCreditToken == token)\n            {\n                newCtx = ISuperfluid(msg.sender).ctxUseCredit(\n                    newCtx,\n                    appCreditDelta\n                );\n            }\n\n            // if receiver super app doesn't have enough available balance to give back app credit\n            // revert (non termination callbacks),\n            // or take it from the sender and jail the app\n            if (ISuperfluid(msg.sender).isApp(ISuperApp(flowParams.receiver))) {\n                int256 availableBalance;\n                (availableBalance,,) = token.realtimeBalanceOf(flowParams.receiver, currentContext.timestamp);\n                if (availableBalance < 0) {\n                    // app goes broke, send the app to jail\n                    if (optype == FlowChangeType.DELETE_FLOW) {\n                        newCtx = ISuperfluid(msg.sender).jailApp(\n                            newCtx,\n                            ISuperApp(flowParams.receiver),\n                            SuperAppDefinitions.APP_RULE_NO_CRITICAL_RECEIVER_ACCOUNT);\n                        // calculate user's damage\n                        int256 userDamageAmount = AgreementLibrary.min(\n                            // user will take the damage if the app is broke,\n                            -availableBalance,\n                            // but user's damage is limited to the amount of app credit it gives to the app\n                            // appCreditDelta should ALWAYS be negative because we are closing an agreement\n                            // therefore the value will be positive due to the '-' sign in front of it\n                            -appCreditDelta);\n                        token.settleBalance(\n                            flowParams.sender,\n                            -userDamageAmount\n                        );\n                        token.settleBalance(\n                            flowParams.receiver,\n                            userDamageAmount\n                        );\n                    } else {\n                        revert ISuperfluid.APP_RULE(SuperAppDefinitions.APP_RULE_NO_CRITICAL_RECEIVER_ACCOUNT);\n                    }\n                }\n            }\n        }\n    }\n\n    // Stack variables for _changeFlow function, to avoid stack too deep issue\n    // solhint-disable-next-line contract-name-camelcase\n    struct _StackVars_changeFlow {\n        int96 totalSenderFlowRate;\n        int96 totalReceiverFlowRate;\n    }\n\n    /**\n     * @dev change flow between sender and receiver with new flow rate\n     *\n     * NOTE:\n     * - leaving owed deposit unchanged for later adjustment\n     * - depositDelta output is always clipped (see _clipDepositNumberRoundingUp)\n     */\n    function _changeFlow(\n        uint256 currentTimestamp,\n        ISuperfluidToken appCreditToken,\n        ISuperfluidToken token,\n        FlowParams memory flowParams,\n        FlowData memory oldFlowData\n    )\n        private\n        returns (\n            int256 depositDelta,\n            uint256 appCreditBase,\n            FlowData memory newFlowData\n        )\n    {\n        uint256 newDeposit;\n        { // enclosed block to avoid stack too deep error\n            uint256 minimumDeposit;\n            // STEP 1: calculate deposit required for the flow\n            {\n                (uint256 liquidationPeriod, ) = _decode3PsData(token);\n                ISuperfluidGovernance gov = ISuperfluidGovernance(ISuperfluid(msg.sender).getGovernance());\n                minimumDeposit = gov.getConfigAsUint256(\n                    ISuperfluid(msg.sender), token, SUPERTOKEN_MINIMUM_DEPOSIT_KEY);\n                // rounding up the number for app credit too\n                // CAVEAT:\n                // - Now app could create a flow rate that is slightly higher than the incoming flow rate.\n                // - The app may be jailed due to negative balance if it does this without its own balance.\n                // Rule of thumbs:\n                // - App can use app credit to create a flow that has the same incoming flow rate\n                // - But due to deposit clipping, there is no guarantee that the sum of the out going flow\n                //   deposit can be covered by the credit always.\n                // - It is advisable for the app to check the credit usages carefully, and if possible\n                //   Always have some its own balances to cover the deposits.\n\n                // preliminary calc of new deposit required, may be changed later in step 2.\n                // used as a variable holding the new deposit amount in the meantime\n                appCreditBase = _calculateDeposit(flowParams.flowRate, liquidationPeriod);\n            }\n\n            // STEP 2: apply minimum deposit rule and calculate deposit delta\n            // preliminary calc depositDelta (minimum deposit rule not yet applied)\n            depositDelta = appCreditBase.toInt256()\n                - oldFlowData.deposit.toInt256()\n                + oldFlowData.owedDeposit.toInt256();\n\n            // preliminary calc newDeposit (minimum deposit rule not yet applied)\n            newDeposit = (oldFlowData.deposit.toInt256() + depositDelta).toUint256();\n\n            // calc depositDelta and newDeposit with minimum deposit rule applied\n            if (newDeposit < minimumDeposit && flowParams.flowRate > 0) {\n                depositDelta = minimumDeposit.toInt256()\n                    - oldFlowData.deposit.toInt256()\n                    + oldFlowData.owedDeposit.toInt256();\n                newDeposit = minimumDeposit;\n            }\n\n            // credit should be of the same token\n            if (address(appCreditToken) != address(0) &&\n                appCreditToken != token)\n            {\n                appCreditBase = 0;\n            }\n\n            // STEP 3: update current flow info\n            newFlowData = FlowData(\n                flowParams.flowRate > 0 ? currentTimestamp : 0,\n                flowParams.flowRate,\n                newDeposit,\n                oldFlowData.owedDeposit // leaving it unchanged for later adjustment\n            );\n            token.updateAgreementData(flowParams.flowId, _encodeFlowData(newFlowData));\n        }\n        {\n            _StackVars_changeFlow memory vars;\n            // STEP 4: update sender and receiver account flow state with the deltas\n            vars.totalSenderFlowRate = _updateAccountFlowState(\n                token,\n                flowParams.sender,\n                oldFlowData.flowRate - flowParams.flowRate,\n                depositDelta,\n                0,\n                currentTimestamp\n            );\n            vars.totalReceiverFlowRate = _updateAccountFlowState(\n                token,\n                flowParams.receiver,\n                flowParams.flowRate - oldFlowData.flowRate,\n                0,\n                0, // leaving owed deposit unchanged for later adjustment\n                currentTimestamp\n            );\n\n            // STEP 5: emit the FlowUpdated Event\n            // NOTE we emit these two events one after the other\n            // so the subgraph can properly handle this in the\n            // mapping function\n            emit FlowUpdated(\n                token,\n                flowParams.sender,\n                flowParams.receiver,\n                flowParams.flowRate,\n                vars.totalSenderFlowRate,\n                vars.totalReceiverFlowRate,\n                flowParams.userData\n            );\n            emit FlowUpdatedExtension(\n                flowParams.flowOperator,\n                newDeposit\n            );\n        }\n    }\n    function _requireAvailableBalance(\n        ISuperfluidToken token,\n        address flowSender,\n        ISuperfluid.Context memory currentContext\n    )\n        private view\n    {\n        // do not enforce balance checks during callbacks for the appCreditToken\n        if (currentContext.callType != ContextDefinitions.CALL_INFO_CALL_TYPE_APP_CALLBACK ||\n            currentContext.appCreditToken != token) {\n            (int256 availableBalance,,) = token.realtimeBalanceOf(flowSender, currentContext.timestamp);\n            if (availableBalance < 0) {\n                revert CFA_INSUFFICIENT_BALANCE();\n            }\n        }\n    }\n\n    function _makeLiquidationPayouts(\n        ISuperfluidToken token,\n        int256 availableBalance,\n        FlowParams memory flowParams,\n        FlowData memory flowData,\n        address liquidator\n    )\n        private\n    {\n        (,FlowData memory senderAccountState) = _getAccountFlowState(token, flowParams.sender);\n\n        int256 signedSingleDeposit = flowData.deposit.toInt256();\n        // TODO: GDA deposit should be considered here too\n        int256 signedTotalCFADeposit = senderAccountState.deposit.toInt256();\n        bytes memory liquidationTypeData;\n        bool isCurrentlyPatricianPeriod;\n\n        // Liquidation rules:\n        //    - let Available Balance = AB (is negative)\n        //    -     Agreement Single Deposit = SD\n        //    -     Agreement Total Deposit = TD\n        //    -     Total Reward Left = RL = AB + TD\n        // #1 Can the total account deposit still cover the available balance deficit?\n        int256 totalRewardLeft = availableBalance + signedTotalCFADeposit;\n\n        // To retrieve patrician period\n        // Note: curly brackets are to handle stack too deep overflow issue\n        {\n            (uint256 liquidationPeriod, uint256 patricianPeriod) = _decode3PsData(token);\n            isCurrentlyPatricianPeriod = _isPatricianPeriod(\n                availableBalance,\n                signedTotalCFADeposit,\n                liquidationPeriod,\n                patricianPeriod\n            );\n        }\n\n        // user is in a critical state\n        if (totalRewardLeft >= 0) {\n            // the liquidator is always whoever triggers the liquidation, but the\n            // account which receives the reward will depend on the period (Patrician or Pleb)\n            // #1.a.1 yes: then reward = (SD / TD) * RL\n            int256 rewardAmount = signedSingleDeposit * totalRewardLeft / signedTotalCFADeposit;\n            liquidationTypeData = abi.encode(1, isCurrentlyPatricianPeriod ? 0 : 1);\n            token.makeLiquidationPayoutsV2(\n                flowParams.flowId, // id\n                liquidationTypeData, // (1 means \"v1\" of this encoding schema) - 0 or 1 for patrician or pleb\n                liquidator, // liquidatorAddress\n\n                // useDefaultRewardAccount: true in patrician period, else liquidator gets reward\n                isCurrentlyPatricianPeriod,\n\n                flowParams.sender, // targetAccount\n                rewardAmount.toUint256(), // rewardAmount: remaining deposit of the flow to be liquidated\n                rewardAmount * -1 // targetAccountBalanceDelta: amount deducted from the flow sender\n            );\n        } else {\n            // #1.b.1 no: then the liquidator takes full amount of the single deposit\n            int256 rewardAmount = signedSingleDeposit;\n            liquidationTypeData = abi.encode(1, 2);\n            token.makeLiquidationPayoutsV2(\n                flowParams.flowId, // id\n                liquidationTypeData, // (1 means \"v1\" of this encoding schema) - 2 for pirate/bailout period\n                liquidator, // liquidatorAddress\n                false, // useDefaultRewardAccount: out of patrician period, in pirate period, so always false\n                flowParams.sender, // targetAccount\n                rewardAmount.toUint256(), // rewardAmount: single deposit of flow\n                totalRewardLeft * -1 // targetAccountBalanceDelta: amount to bring sender AB to 0\n                // NOTE: bailoutAmount = rewardAmount + targetAccountBalanceDelta + paid by rewardAccount\n            );\n        }\n    }\n\n    /**************************************************************************\n     * Deposit Calculation Pure Functions\n     *************************************************************************/\n\n    function _clipDepositNumberRoundingDown(uint256 deposit)\n        internal pure\n        returns(uint256)\n    {\n        return ((deposit >> 32)) << 32;\n    }\n\n    function _clipDepositNumberRoundingUp(uint256 deposit)\n        internal pure\n        returns(uint256)\n    {\n        // clipping the value, rounding up\n        uint256 rounding = (deposit & type(uint32).max) > 0 ? 1 : 0;\n        return ((deposit >> 32) + rounding) << 32;\n    }\n\n    function _calculateDeposit(\n        int96 flowRate,\n        uint256 liquidationPeriod\n    )\n        internal pure\n        returns(uint256 deposit)\n    {\n        if (flowRate == 0) return 0;\n\n        // NOTE: safecast for int96 with extra assertion\n        assert(liquidationPeriod <= uint256(int256(type(int96).max)));\n        deposit = uint256(int256(flowRate * int96(uint96(liquidationPeriod))));\n        return _clipDepositNumberRoundingUp(deposit);\n    }\n\n    /**************************************************************************\n     * Flow Data Pure Functions\n     *************************************************************************/\n\n    function _generateFlowId(address sender, address receiver) private pure returns(bytes32 id) {\n        return keccak256(abi.encode(sender, receiver));\n    }\n\n    //\n    // Data packing:\n    //\n    // WORD A: | timestamp  | flowRate | deposit | owedDeposit |\n    //         | 32b        | 96b      | 64      | 64          |\n    //\n    // NOTE:\n    // - flowRate has 96 bits length\n    // - deposit has 96 bits length too, but 32 bits are clipped-off when storing\n\n    function _encodeFlowData\n    (\n        FlowData memory flowData\n    )\n        internal pure\n        returns(bytes32[] memory data)\n    {\n        // enable these for debugging\n        // assert(flowData.deposit & type(uint32).max == 0);\n        // assert(flowData.owedDeposit & type(uint32).max == 0);\n        data = new bytes32[](1);\n        data[0] = bytes32(\n            ((uint256(flowData.timestamp)) << 224) |\n            ((uint256(uint96(flowData.flowRate)) << 128)) |\n            (uint256(flowData.deposit) >> 32 << 64) |\n            (uint256(flowData.owedDeposit) >> 32)\n        );\n    }\n\n    function _decodeFlowData\n    (\n        uint256 wordA\n    )\n        internal pure\n        returns(bool exist, FlowData memory flowData)\n    {\n        exist = wordA > 0;\n        if (exist) {\n            flowData.timestamp = uint32(wordA >> 224);\n            // NOTE because we are upcasting from type(uint96).max to uint256 to int256, we do not need to use safecast\n            flowData.flowRate = int96(int256(wordA >> 128) & int256(uint256(type(uint96).max)));\n            flowData.deposit = ((wordA >> 64) & uint256(type(uint64).max)) << 32 /* recover clipped bits*/;\n            flowData.owedDeposit = (wordA & uint256(type(uint64).max)) << 32 /* recover clipped bits*/;\n        }\n    }\n\n    /**************************************************************************\n     * 3P's Pure Functions\n     *************************************************************************/\n\n    //\n    // Data packing:\n    //\n    // WORD A: |    reserved    | patricianPeriod | liquidationPeriod |\n    //         |      192       |        32       |         32        |\n    //\n    // NOTE:\n    // - liquidation period has 32 bits length\n    // - patrician period also has 32 bits length\n\n    function _decode3PsData(\n        ISuperfluidToken token\n    )\n        internal view\n        returns(uint256 liquidationPeriod, uint256 patricianPeriod)\n    {\n        ISuperfluidGovernance gov = ISuperfluidGovernance(ISuperfluid(_host).getGovernance());\n        uint256 pppConfig = gov.getConfigAsUint256(ISuperfluid(_host), token, CFAV1_PPP_CONFIG_KEY);\n        (liquidationPeriod, patricianPeriod) = SuperfluidGovernanceConfigs.decodePPPConfig(pppConfig);\n    }\n\n    function _isPatricianPeriod(\n        int256 availableBalance,\n        int256 signedTotalCFADeposit,\n        uint256 liquidationPeriod,\n        uint256 patricianPeriod\n    )\n        internal pure\n        returns (bool)\n    {\n        if (signedTotalCFADeposit == 0) {\n            return false;\n        }\n\n        int256 totalRewardLeft = availableBalance + signedTotalCFADeposit;\n        int256 totalCFAOutFlowrate = signedTotalCFADeposit / int256(liquidationPeriod);\n        // divisor cannot be zero with existing outflow\n        return totalRewardLeft / totalCFAOutFlowrate > int256(liquidationPeriod - patricianPeriod);\n    }\n\n    /**************************************************************************\n     * ACL Pure Functions\n     *************************************************************************/\n\n    function _generateFlowOperatorId(address sender, address flowOperator) private pure returns(bytes32 id) {\n        return keccak256(abi.encode(\"flowOperator\", sender, flowOperator));\n    }\n\n    //\n    // Data packing:\n    //\n    // WORD A: | reserved  | permissions | reserved | flowRateAllowance |\n    //         | 120       | 8           | 32       | 96                |\n    //\n    // NOTE:\n    // - flowRateAllowance has 96 bits length\n    // - permissions is an 8-bit octo bitmask\n    // - ...0 0 0 (...delete update create)\n\n    function _encodeFlowOperatorData\n    (\n        FlowOperatorData memory flowOperatorData\n    )\n        internal pure\n        returns(bytes32[] memory data)\n    {\n        // last line of defence against negative flowRateAllowance\n        assert(flowOperatorData.flowRateAllowance >= 0); // flowRateAllowance must not be less than 0\n        data = new bytes32[](1);\n        data[0] = bytes32(\n            uint256(flowOperatorData.permissions) << 128 |\n            uint256(int256(flowOperatorData.flowRateAllowance))\n        );\n    }\n\n    function _decodeFlowOperatorData\n    (\n        uint256 wordA\n    )\n        internal pure\n        returns(bool exist, FlowOperatorData memory flowOperatorData)\n    {\n        exist = wordA > 0;\n        if (exist) {\n            // NOTE: For safecast, doing extra bitmasking to not to have any trust assumption of token storage\n            flowOperatorData.flowRateAllowance = int96(int256(wordA & uint256(int256(type(int96).max))));\n            flowOperatorData.permissions = uint8(wordA >> 128) & type(uint8).max;\n        }\n    }\n\n    function _getBooleanFlowOperatorPermissions\n    (\n        uint8 permissions,\n        FlowChangeType flowChangeType\n    )\n        internal pure\n        returns (bool flowchangeTypeAllowed)\n    {\n        if (flowChangeType == FlowChangeType.CREATE_FLOW) {\n            flowchangeTypeAllowed = permissions & uint8(1) == 1;\n        } else if (flowChangeType == FlowChangeType.UPDATE_FLOW) {\n            flowchangeTypeAllowed = (permissions >> 1) & uint8(1) == 1;\n        } else { /** flowChangeType === FlowChangeType.DELETE_FLOW */\n            flowchangeTypeAllowed = (permissions >> 2) & uint8(1) == 1;\n        }\n    }\n}\n",
  "sourcePath": "/home/runner/work/protocol-monorepo/protocol-monorepo/packages/ethereum-contracts/contracts/agreements/ConstantFlowAgreementV1.sol",
  "compiler": {
    "name": "solc",
    "version": "0.8.19+commit.7dd6d404.Emscripten.clang"
  },
  "schemaVersion": "3.4.13",
  "updatedAt": "2023-06-28T07:35:59.603Z",
  "devdoc": {
    "author": "Superfluid",
    "details": "Please read IConstantFlowAgreementV1 for implementation notes.For more technical notes, please visit protocol-monorepo wiki area.  Storage Layout Notes Agreement State NOTE The Agreement State slot is computed with the following function: keccak256(abi.encode(\"AgreementState\", msg.sender, account, slotId)) slotId           = 0 msg.sender       = address of CFAv1 account          = context.msgSender  Flow Agreement State stores the global FlowData state for an account.   Agreement Data NOTE The Agreement Data slot is calculated with the following function: keccak256(abi.encode(\"AgreementData\", agreementClass, agreementId)) agreementClass   = address of CFAv1 agreementId      = FlowId | FlowOperatorId  FlowId           = keccak256(abi.encode(flowSender, flowReceiver)) FlowId stores FlowData between a flowSender and flowReceiver.  FlowOperatorId   = keccak256(abi.encode(\"flowOperator\", flowSender, flowOperator)) FlowOperatorId stores FlowOperatorData between a flowSender and flowOperator.",
    "events": {
      "FlowOperatorUpdated(address,address,address,uint8,int96)": {
        "details": "Flow operator updated event",
        "params": {
          "flowOperator": "Flow operator address",
          "flowRateAllowance": "The flow rate allowance the `flowOperator` is granted (only goes down)",
          "permissions": "Octo bitmask representation of permissions",
          "sender": "Flow sender address",
          "token": "Super token address"
        }
      },
      "FlowUpdated(address,address,address,int96,int256,int256,bytes)": {
        "details": "Flow updated event",
        "params": {
          "flowRate": "Flow rate in amount per second for this flow",
          "receiver": "Flow recipient address",
          "sender": "Flow sender address",
          "token": "Super token address",
          "totalReceiverFlowRate": "Total flow rate in amount per second for the receiver",
          "totalSenderFlowRate": "Total flow rate in amount per second for the sender",
          "userData": "The user provided data"
        }
      },
      "FlowUpdatedExtension(address,uint256)": {
        "details": "Flow updated extension event",
        "params": {
          "deposit": "The deposit amount for the stream",
          "flowOperator": "Flow operator address - the Context.msgSender"
        }
      },
      "Initialized(uint8)": {
        "details": "Triggered when the contract has been initialized or reinitialized."
      }
    },
    "kind": "dev",
    "methods": {
      "agreementType()": {
        "details": "ISuperAgreement.agreementType implementation"
      },
      "authorizeFlowOperatorWithFullControl(address,address,bytes)": {
        "details": "IConstantFlowAgreementV1.authorizeFlowOperatorWithFullControl implementation"
      },
      "createFlow(address,address,int96,bytes)": {
        "details": "IConstantFlowAgreementV1.createFlow implementation"
      },
      "createFlowByOperator(address,address,address,int96,bytes)": {
        "details": "IConstantFlowAgreementV1.createFlowByOperator implementation"
      },
      "decreaseFlowRateAllowance(address,address,int96,bytes)": {
        "details": "IConstantFlowAgreementV1.decreaseFlowRateAllowance implementation"
      },
      "deleteFlow(address,address,address,bytes)": {
        "details": "IConstantFlowAgreementV1.deleteFlow implementation"
      },
      "deleteFlowByOperator(address,address,address,bytes)": {
        "details": "IConstantFlowAgreementV1.deleteFlowByOperator implementation"
      },
      "getAccountFlowInfo(address,address)": {
        "details": "IConstantFlowAgreementV1.getAccountFlowInfo implementation"
      },
      "getCodeAddress()": {
        "details": "Get current implementation code address."
      },
      "getDepositRequiredForFlowRate(address,int96)": {
        "details": "IConstantFlowAgreementV1.getDepositRequiredForFlowRate implementation"
      },
      "getFlow(address,address,address)": {
        "details": "IConstantFlowAgreementV1.getFlow implementation"
      },
      "getFlowByID(address,bytes32)": {
        "details": "IConstantFlowAgreementV1.getFlow implementation"
      },
      "getFlowOperatorData(address,address,address)": {
        "details": "IConstantFlowAgreementV1.getFlowOperatorData implementation"
      },
      "getFlowOperatorDataByID(address,bytes32)": {
        "details": "IConstantFlowAgreementV1.getFlowOperatorDataByID implementation"
      },
      "getMaximumFlowRateFromDeposit(address,uint256)": {
        "details": "IConstantFlowAgreementV1.getMaximumFlowRateFromDeposit implementation"
      },
      "getNetFlow(address,address)": {
        "details": "IConstantFlowAgreementV1.getNetFlow implementation"
      },
      "increaseFlowRateAllowance(address,address,int96,bytes)": {
        "details": "IConstantFlowAgreementV1.increaseFlowRateAllowance implementation"
      },
      "isPatricianPeriod(address,address,uint256)": {
        "details": "Returns whether it is the patrician period based on timestamp",
        "params": {
          "account": "The account we are interested in",
          "timestamp": "The timestamp we are interested in observing the result of isPatricianPeriod"
        },
        "returns": {
          "_0": "bool Whether it is currently the patrician period dictated by governance"
        }
      },
      "isPatricianPeriodNow(address,address)": {
        "details": "Returns whether it is the patrician period based on host.getNow()",
        "params": {
          "account": "The account we are interested in"
        },
        "returns": {
          "isCurrentlyPatricianPeriod": "Whether it is currently the patrician period dictated by governance",
          "timestamp": "The value of host.getNow()"
        }
      },
      "proxiableUUID()": {
        "details": "Proxiable UUID marker function, this would help to avoid wrong logic      contract to be used for upgrading. NOTE: The semantics of the UUID deviates from the actual UUPS standard,       where it is equivalent of _IMPLEMENTATION_SLOT."
      },
      "realtimeBalanceOf(address,address,uint256)": {
        "details": "ISuperAgreement.realtimeBalanceOf implementation"
      },
      "revokeFlowOperatorWithFullControl(address,address,bytes)": {
        "details": "IConstantFlowAgreementV1.revokeFlowOperatorWithFullControl implementation"
      },
      "updateFlow(address,address,int96,bytes)": {
        "details": "IConstantFlowAgreementV1.updateFlow implementation"
      },
      "updateFlowByOperator(address,address,address,int96,bytes)": {
        "details": "IConstantFlowAgreementV1.updateFlowByOperator implementation"
      },
      "updateFlowOperatorPermissions(address,address,uint8,int96,bytes)": {
        "details": "IConstantFlowAgreementV1.updateFlowOperatorPermissions implementation"
      }
    },
    "stateVariables": {
      "DEFAULT_MINIMUM_DEPOSIT": {
        "details": "Default minimum deposit value NOTE: - It may come as a surprise that it is not 0, this is the minimum friction we have in the system for the   imperfect blockchain system we live in. - It is related to deposit clipping, and it is always rounded-up when clipping."
      },
      "MAXIMUM_DEPOSIT": {
        "details": "Maximum deposit value"
      },
      "MAXIMUM_FLOW_RATE": {
        "details": "Maximum flow rate"
      }
    },
    "title": "ConstantFlowAgreementV1 contract",
    "version": 1
  },
  "userdoc": {
    "kind": "user",
    "methods": {},
    "version": 1
  }
}