{
  "contractName": "ERC777RecipientReverting",
  "abi": [
    {
      "inputs": [],
      "stateMutability": "nonpayable",
      "type": "constructor"
    },
    {
      "inputs": [
        {
          "internalType": "address",
          "name": "",
          "type": "address"
        },
        {
          "internalType": "address",
          "name": "",
          "type": "address"
        },
        {
          "internalType": "address",
          "name": "",
          "type": "address"
        },
        {
          "internalType": "uint256",
          "name": "",
          "type": "uint256"
        },
        {
          "internalType": "bytes",
          "name": "",
          "type": "bytes"
        },
        {
          "internalType": "bytes",
          "name": "",
          "type": "bytes"
        }
      ],
      "name": "tokensReceived",
      "outputs": [],
      "stateMutability": "pure",
      "type": "function"
    },
    {
      "inputs": [
        {
          "internalType": "bytes32",
          "name": "interfaceHash",
          "type": "bytes32"
        },
        {
          "internalType": "address",
          "name": "",
          "type": "address"
        }
      ],
      "name": "canImplementInterfaceForAddress",
      "outputs": [
        {
          "internalType": "bytes32",
          "name": "",
          "type": "bytes32"
        }
      ],
      "stateMutability": "pure",
      "type": "function"
    }
  ],
  "bytecode": "0x608060405234801561001057600080fd5b506040516329965a1d60e01b815230600482018190527fb281fc8c12954d22544db45de3159a39272895b169a852b314f9cc762e44c53b60248301526044820152731820a4b7618bde71dce8cdc73aab6c95905fad249081906329965a1d90606401600060405180830381600087803b15801561008c57600080fd5b505af11580156100a0573d6000803e3d6000fd5b5050505050610299806100b46000396000f3fe608060405234801561001057600080fd5b50600436106100355760003560e01c806223de291461003a578063249cb3fa1461004f575b600080fd5b61004d61004836600461018c565b610074565b005b61006261005d366004610237565b6100b6565b60405190815260200160405180910390f35b60405162461bcd60e51b815260206004820152601360248201527274686579207368616c6c206e6f74207061737360681b604482015260640160405180910390fd5b60007fb281fc8c12954d22544db45de3159a39272895b169a852b314f9cc762e44c53b83146100e6576000610120565b60405173455243313832305f4143434550545f4d4147494360601b6020820152603401604051602081830303815290604052805190602001205b9392505050565b80356001600160a01b038116811461013e57600080fd5b919050565b60008083601f84011261015557600080fd5b50813567ffffffffffffffff81111561016d57600080fd5b60208301915083602082850101111561018557600080fd5b9250929050565b60008060008060008060008060c0898b0312156101a857600080fd5b6101b189610127565b97506101bf60208a01610127565b96506101cd60408a01610127565b955060608901359450608089013567ffffffffffffffff808211156101f157600080fd5b6101fd8c838d01610143565b909650945060a08b013591508082111561021657600080fd5b506102238b828c01610143565b999c989b5096995094979396929594505050565b6000806040838503121561024a57600080fd5b8235915061025a60208401610127565b9050925092905056fea2646970667358221220a4fcfdc2831eeaaf1097ff8c9b08089897f2080442765136962820f1bd53db8e64736f6c63430008130033",
  "immutableReferences": {},
  "source": "// SPDX-License-Identifier: AGPLv3\npragma solidity 0.8.19;\n\nimport { Context } from \"@openzeppelin/contracts/utils/Context.sol\";\nimport { IERC20 } from \"@openzeppelin/contracts/token/ERC20/IERC20.sol\";\nimport { IERC777 } from \"@openzeppelin/contracts/token/ERC777/IERC777.sol\";\nimport { IERC777Sender } from \"@openzeppelin/contracts/token/ERC777/IERC777Sender.sol\";\nimport { IERC777Recipient } from \"@openzeppelin/contracts/token/ERC777/IERC777Recipient.sol\";\nimport { IERC1820Registry } from \"@openzeppelin/contracts/utils/introspection/IERC1820Registry.sol\";\nimport {\n    ERC1820Implementer, IERC1820Implementer\n} from \"@openzeppelin/contracts/utils/introspection/ERC1820Implementer.sol\";\n\nimport { ISuperToken } from \"../superfluid/SuperToken.sol\";\n\n\ncontract ERC777SenderRecipientMock is Context, IERC777Sender, IERC777Recipient, ERC1820Implementer {\n    event TokensToSendCalled(\n        address operator,\n        address from,\n        address to,\n        uint256 amount,\n        bytes data,\n        bytes operatorData,\n        address token,\n        uint256 fromBalance,\n        uint256 toBalance\n    );\n\n    event TokensReceivedCalled(\n        address operator,\n        address from,\n        address to,\n        uint256 amount,\n        bytes data,\n        bytes operatorData,\n        address token,\n        uint256 fromBalance,\n        uint256 toBalance\n    );\n\n    bool private _shouldRevertSend;\n    bool private _shouldRevertReceive;\n\n    IERC1820Registry private _erc1820 = IERC1820Registry(0x1820a4B7618BdE71Dce8cdc73aAB6C95905faD24);\n\n    bytes32 constant private _TOKENS_SENDER_INTERFACE_HASH = keccak256(\"ERC777TokensSender\");\n    bytes32 constant private _TOKENS_RECIPIENT_INTERFACE_HASH = keccak256(\"ERC777TokensRecipient\");\n\n    function tokensToSend(\n        address operator,\n        address from,\n        address to,\n        uint256 amount,\n        bytes calldata userData,\n        bytes calldata operatorData\n    ) external override {\n        if (_shouldRevertSend) {\n            revert(\"_shouldRevertSend\");\n        }\n\n        IERC777 token = IERC777(_msgSender());\n\n        uint256 fromBalance = token.balanceOf(from);\n        // when called due to burn, to will be the zero address, which will have a balance of 0\n        uint256 toBalance = token.balanceOf(to);\n\n        emit TokensToSendCalled(\n            operator,\n            from,\n            to,\n            amount,\n            userData,\n            operatorData,\n            address(token),\n            fromBalance,\n            toBalance\n        );\n    }\n\n    function tokensReceived(\n        address operator,\n        address from,\n        address to,\n        uint256 amount,\n        bytes calldata userData,\n        bytes calldata operatorData\n    ) external override {\n        if (_shouldRevertReceive) {\n            revert(\"_shouldRevertReceive\");\n        }\n\n        IERC777 token = IERC777(_msgSender());\n\n        uint256 fromBalance = token.balanceOf(from);\n        // when called due to burn, to will be the zero address, which will have a balance of 0\n        uint256 toBalance = token.balanceOf(to);\n\n        emit TokensReceivedCalled(\n            operator,\n            from,\n            to,\n            amount,\n            userData,\n            operatorData,\n            address(token),\n            fromBalance,\n            toBalance\n        );\n    }\n\n    function senderFor(address account) public {\n        _registerInterfaceForAddress(_TOKENS_SENDER_INTERFACE_HASH, account);\n\n        address self = address(this);\n        if (account == self) {\n            registerSender(self);\n        }\n    }\n\n    function registerSender(address sender) public {\n        _erc1820.setInterfaceImplementer(address(this), _TOKENS_SENDER_INTERFACE_HASH, sender);\n    }\n\n    function recipientFor(address account) public {\n        _registerInterfaceForAddress(_TOKENS_RECIPIENT_INTERFACE_HASH, account);\n\n        address self = address(this);\n        if (account == self) {\n            registerRecipient(self);\n        }\n    }\n\n    function registerRecipient(address recipient) public {\n        _erc1820.setInterfaceImplementer(address(this), _TOKENS_RECIPIENT_INTERFACE_HASH, recipient);\n    }\n\n    function setShouldRevertSend(bool shouldRevert) public {\n        _shouldRevertSend = shouldRevert;\n    }\n\n    function setShouldRevertReceive(bool shouldRevert) public {\n        _shouldRevertReceive = shouldRevert;\n    }\n\n    function send(IERC777 token, address to, uint256 amount, bytes memory data) public {\n        // This is 777's send function, not the Solidity send function\n        token.send(to, amount, data); // solhint-disable-line check-send-result\n    }\n\n    function burn(IERC777 token, uint256 amount, bytes memory data) public {\n        token.burn(amount, data);\n    }\n\n    function upgradeAll(ISuperToken token) public {\n        IERC20 underlying = IERC20(token.getUnderlyingToken());\n        uint256 amount = underlying.balanceOf(address(this));\n        underlying.approve(address(token), amount);\n        token.upgrade(amount);\n    }\n\n    function upgradeAllToSelf(ISuperToken token) public {\n        IERC20 underlying = IERC20(token.getUnderlyingToken());\n        uint256 amount = underlying.balanceOf(address(this));\n        underlying.approve(address(token), amount);\n        token.upgradeTo(address(this), amount, \"\");\n    }\n}\n\ncontract ERC777RecipientReverting is IERC777Recipient, IERC1820Implementer {\n    bytes32 constant private _TOKENS_RECIPIENT_INTERFACE_HASH = keccak256(\"ERC777TokensRecipient\");\n\n    // allow to use the hook for this contract itself\n    constructor() {\n        IERC1820Registry erc1820 = IERC1820Registry(0x1820a4B7618BdE71Dce8cdc73aAB6C95905faD24);\n        erc1820.setInterfaceImplementer(address(this), keccak256(\"ERC777TokensRecipient\"), address(this));\n    }\n\n    function tokensReceived(\n        address /*operator*/,\n        address /*from*/,\n        address /*to*/,\n        uint256 /*amount*/,\n        bytes calldata /*userData*/,\n        bytes calldata /*operatorData*/\n    ) external pure override {\n        revert(\"they shall not pass\");\n    }\n\n    // allow anybody to use the hook\n    function canImplementInterfaceForAddress(bytes32 interfaceHash, address /*addr*/)\n        external pure override\n        returns(bytes32)\n    {\n        return\n            interfaceHash == _TOKENS_RECIPIENT_INTERFACE_HASH ?\n            keccak256(abi.encodePacked(\"ERC1820_ACCEPT_MAGIC\")) :\n            bytes32(0x00);\n    }\n}\n\n/*\n* ERC777Recipient which drains all gas it gets, trying to make the caller run out of gas\n*/\ncontract ERC777RecipientDrainingGas is IERC777Recipient, IERC1820Implementer {\n    bytes32 constant private _TOKENS_RECIPIENT_INTERFACE_HASH = keccak256(\"ERC777TokensRecipient\");\n    uint256 internal _uselessVar = 1;\n\n    event DrainedGas(uint256 allowance, uint256 burned);\n\n    function tokensReceived(\n        address /*operator*/,\n        address /*from*/,\n        address /*to*/,\n        uint256 /*amount*/,\n        bytes calldata /*userData*/,\n        bytes calldata /*operatorData*/\n    ) external override {\n        uint256 initialGas = gasleft();\n        while (gasleft() > 30000) { // need to leave enough for the send() itself to not fail\n            _uselessVar++; // SSTORE drains much faster than an empty loop\n        }\n        emit DrainedGas(initialGas, gasleft());\n    }\n\n    // allow anybody to use the hook\n    function canImplementInterfaceForAddress(bytes32 interfaceHash, address /*addr*/)\n        external pure override\n        returns(bytes32)\n    {\n        return\n            interfaceHash == _TOKENS_RECIPIENT_INTERFACE_HASH ?\n            keccak256(abi.encodePacked(\"ERC1820_ACCEPT_MAGIC\")) :\n            bytes32(0x00);\n    }\n}\n\n\n",
  "sourcePath": "/home/runner/work/protocol-monorepo/protocol-monorepo/packages/ethereum-contracts/contracts/mocks/ERC777SenderRecipientMock.sol",
  "compiler": {
    "name": "solc",
    "version": "0.8.19+commit.7dd6d404.Emscripten.clang"
  },
  "schemaVersion": "3.4.13",
  "updatedAt": "2023-06-28T07:35:59.963Z",
  "devdoc": {
    "kind": "dev",
    "methods": {},
    "version": 1
  },
  "userdoc": {
    "kind": "user",
    "methods": {},
    "version": 1
  }
}