{
  "contractName": "FullUpgradableSuperTokenProxy",
  "abi": [
    {
      "inputs": [],
      "name": "FUSTP_ALREADY_INITIALIZED",
      "type": "error"
    },
    {
      "stateMutability": "payable",
      "type": "fallback"
    },
    {
      "stateMutability": "payable",
      "type": "receive"
    },
    {
      "inputs": [],
      "name": "initialize",
      "outputs": [],
      "stateMutability": "nonpayable",
      "type": "function"
    }
  ],
  "bytecode": "0x608060405234801561001057600080fd5b50610213806100206000396000f3fe6080604052600436106100225760003560e01c80638129fc1c1461003957610031565b366100315761002f61004e565b005b61002f61004e565b34801561004557600080fd5b5061002f610060565b61005e6100596100d0565b610173565b565b7fb8fcd5719b3ddf8626f3664705a89b7fc476129a58c1aa5eda57c600cc1821a0546001600160a01b038116156100aa576040516305c5d81960e01b815260040160405180910390fd5b50337fb8fcd5719b3ddf8626f3664705a89b7fc476129a58c1aa5eda57c600cc1821a055565b7fb8fcd5719b3ddf8626f3664705a89b7fc476129a58c1aa5eda57c600cc1821a0546000906001600160a01b03811661010b5761010b610197565b806001600160a01b0316639470a5b26040518163ffffffff1660e01b8152600401602060405180830381865afa158015610149573d6000803e3d6000fd5b505050506040513d601f19601f8201168201806040525081019061016d91906101ad565b91505090565b3660008037600080366000845af43d6000803e808015610192573d6000f35b3d6000fd5b634e487b7160e01b600052600160045260246000fd5b6000602082840312156101bf57600080fd5b81516001600160a01b03811681146101d657600080fd5b939250505056fea26469706673582212207d44b05228bdcf5cefb65c8fdbcc34385327dcb46cddd6f9c6144082d522ebd264736f6c63430008130033",
  "immutableReferences": {},
  "source": "// SPDX-License-Identifier: AGPLv3\npragma solidity 0.8.19;\n\nimport { ISuperTokenFactory } from \"../interfaces/superfluid/ISuperTokenFactory.sol\";\nimport { Proxy } from \"@openzeppelin/contracts/proxy/Proxy.sol\";\n\n\n/**\n * @title Full upgradable super token proxy contract\n * @author Superfluid\n */\ncontract FullUpgradableSuperTokenProxy is Proxy {\n\n    // web3.utils.keccak256(\"org.superfluid-finance.FullUpgradableSuperTokenWrapper.factory_slot\")\n    bytes32 internal constant _FACTORY_SLOT = 0xb8fcd5719b3ddf8626f3664705a89b7fc476129a58c1aa5eda57c600cc1821a0;\n\n    error FUSTP_ALREADY_INITIALIZED();\n\n    function initialize() external\n    {\n        address factory;\n        assembly { // solium-disable-line\n            factory := sload(_FACTORY_SLOT)\n        }\n        if (address(factory) != address(0)) revert FUSTP_ALREADY_INITIALIZED();\n        factory = msg.sender;\n        assembly { // solium-disable-line\n            sstore(_FACTORY_SLOT, factory)\n        }\n    }\n\n    function _implementation() internal override view returns (address impl) {\n        ISuperTokenFactory factory;\n        assembly { // solium-disable-line\n            factory := sload(_FACTORY_SLOT)\n        }\n        assert(address(factory) != address(0));\n        return address(factory.getSuperTokenLogic());\n    }\n\n}\n",
  "sourcePath": "/home/runner/work/protocol-monorepo/protocol-monorepo/packages/ethereum-contracts/contracts/superfluid/FullUpgradableSuperTokenProxy.sol",
  "compiler": {
    "name": "solc",
    "version": "0.8.19+commit.7dd6d404.Emscripten.clang"
  },
  "schemaVersion": "3.4.13",
  "updatedAt": "2023-06-28T07:36:00.337Z",
  "devdoc": {
    "author": "Superfluid",
    "kind": "dev",
    "methods": {},
    "title": "Full upgradable super token proxy contract",
    "version": 1
  },
  "userdoc": {
    "kind": "user",
    "methods": {},
    "version": 1
  }
}