{
  "contractName": "SuperTokenFactory",
  "abi": [
    {
      "inputs": [
        {
          "internalType": "contract ISuperfluid",
          "name": "host",
          "type": "address"
        },
        {
          "internalType": "contract ISuperToken",
          "name": "superTokenLogic",
          "type": "address"
        },
        {
          "internalType": "contract IConstantOutflowNFT",
          "name": "constantOutflowNFT",
          "type": "address"
        },
        {
          "internalType": "contract IConstantInflowNFT",
          "name": "constantInflowNFT",
          "type": "address"
        }
      ],
      "stateMutability": "nonpayable",
      "type": "constructor"
    },
    {
      "inputs": [],
      "name": "SUPER_TOKEN_FACTORY_ALREADY_EXISTS",
      "type": "error"
    },
    {
      "inputs": [],
      "name": "SUPER_TOKEN_FACTORY_DOES_NOT_EXIST",
      "type": "error"
    },
    {
      "inputs": [],
      "name": "SUPER_TOKEN_FACTORY_NON_UPGRADEABLE_IS_DEPRECATED",
      "type": "error"
    },
    {
      "inputs": [],
      "name": "SUPER_TOKEN_FACTORY_ONLY_GOVERNANCE_OWNER",
      "type": "error"
    },
    {
      "inputs": [],
      "name": "SUPER_TOKEN_FACTORY_ONLY_HOST",
      "type": "error"
    },
    {
      "inputs": [],
      "name": "SUPER_TOKEN_FACTORY_UNINITIALIZED",
      "type": "error"
    },
    {
      "inputs": [],
      "name": "SUPER_TOKEN_FACTORY_ZERO_ADDRESS",
      "type": "error"
    },
    {
      "anonymous": false,
      "inputs": [
        {
          "indexed": false,
          "internalType": "bytes32",
          "name": "uuid",
          "type": "bytes32"
        },
        {
          "indexed": false,
          "internalType": "address",
          "name": "codeAddress",
          "type": "address"
        }
      ],
      "name": "CodeUpdated",
      "type": "event"
    },
    {
      "anonymous": false,
      "inputs": [
        {
          "indexed": true,
          "internalType": "contract ISuperToken",
          "name": "token",
          "type": "address"
        }
      ],
      "name": "CustomSuperTokenCreated",
      "type": "event"
    },
    {
      "anonymous": false,
      "inputs": [
        {
          "indexed": false,
          "internalType": "uint8",
          "name": "version",
          "type": "uint8"
        }
      ],
      "name": "Initialized",
      "type": "event"
    },
    {
      "anonymous": false,
      "inputs": [
        {
          "indexed": true,
          "internalType": "contract ISuperToken",
          "name": "token",
          "type": "address"
        }
      ],
      "name": "SuperTokenCreated",
      "type": "event"
    },
    {
      "anonymous": false,
      "inputs": [
        {
          "indexed": true,
          "internalType": "contract ISuperToken",
          "name": "tokenLogic",
          "type": "address"
        }
      ],
      "name": "SuperTokenLogicCreated",
      "type": "event"
    },
    {
      "inputs": [],
      "name": "CONSTANT_INFLOW_NFT_LOGIC",
      "outputs": [
        {
          "internalType": "contract IConstantInflowNFT",
          "name": "",
          "type": "address"
        }
      ],
      "stateMutability": "view",
      "type": "function"
    },
    {
      "inputs": [],
      "name": "CONSTANT_OUTFLOW_NFT_LOGIC",
      "outputs": [
        {
          "internalType": "contract IConstantOutflowNFT",
          "name": "",
          "type": "address"
        }
      ],
      "stateMutability": "view",
      "type": "function"
    },
    {
      "inputs": [],
      "name": "_SUPER_TOKEN_LOGIC",
      "outputs": [
        {
          "internalType": "contract ISuperToken",
          "name": "",
          "type": "address"
        }
      ],
      "stateMutability": "view",
      "type": "function"
    },
    {
      "inputs": [],
      "name": "castrate",
      "outputs": [],
      "stateMutability": "nonpayable",
      "type": "function"
    },
    {
      "inputs": [
        {
          "internalType": "address",
          "name": "_underlyingToken",
          "type": "address"
        }
      ],
      "name": "computeCanonicalERC20WrapperAddress",
      "outputs": [
        {
          "internalType": "address",
          "name": "superTokenAddress",
          "type": "address"
        },
        {
          "internalType": "bool",
          "name": "isDeployed",
          "type": "bool"
        }
      ],
      "stateMutability": "view",
      "type": "function"
    },
    {
      "inputs": [
        {
          "internalType": "contract ERC20WithTokenInfo",
          "name": "_underlyingToken",
          "type": "address"
        }
      ],
      "name": "createCanonicalERC20Wrapper",
      "outputs": [
        {
          "internalType": "contract ISuperToken",
          "name": "",
          "type": "address"
        }
      ],
      "stateMutability": "nonpayable",
      "type": "function"
    },
    {
      "inputs": [
        {
          "internalType": "contract ERC20WithTokenInfo",
          "name": "underlyingToken",
          "type": "address"
        },
        {
          "internalType": "enum ISuperTokenFactory.Upgradability",
          "name": "upgradability",
          "type": "uint8"
        },
        {
          "internalType": "string",
          "name": "name",
          "type": "string"
        },
        {
          "internalType": "string",
          "name": "symbol",
          "type": "string"
        }
      ],
      "name": "createERC20Wrapper",
      "outputs": [
        {
          "internalType": "contract ISuperToken",
          "name": "superToken",
          "type": "address"
        }
      ],
      "stateMutability": "nonpayable",
      "type": "function"
    },
    {
      "inputs": [
        {
          "internalType": "contract IERC20",
          "name": "underlyingToken",
          "type": "address"
        },
        {
          "internalType": "uint8",
          "name": "underlyingDecimals",
          "type": "uint8"
        },
        {
          "internalType": "enum ISuperTokenFactory.Upgradability",
          "name": "upgradability",
          "type": "uint8"
        },
        {
          "internalType": "string",
          "name": "name",
          "type": "string"
        },
        {
          "internalType": "string",
          "name": "symbol",
          "type": "string"
        }
      ],
      "name": "createERC20Wrapper",
      "outputs": [
        {
          "internalType": "contract ISuperToken",
          "name": "superToken",
          "type": "address"
        }
      ],
      "stateMutability": "nonpayable",
      "type": "function"
    },
    {
      "inputs": [
        {
          "internalType": "address",
          "name": "_underlyingTokenAddress",
          "type": "address"
        }
      ],
      "name": "getCanonicalERC20Wrapper",
      "outputs": [
        {
          "internalType": "address",
          "name": "superTokenAddress",
          "type": "address"
        }
      ],
      "stateMutability": "view",
      "type": "function"
    },
    {
      "inputs": [],
      "name": "getCodeAddress",
      "outputs": [
        {
          "internalType": "address",
          "name": "codeAddress",
          "type": "address"
        }
      ],
      "stateMutability": "view",
      "type": "function"
    },
    {
      "inputs": [],
      "name": "getHost",
      "outputs": [
        {
          "internalType": "address",
          "name": "host",
          "type": "address"
        }
      ],
      "stateMutability": "view",
      "type": "function"
    },
    {
      "inputs": [],
      "name": "getSuperTokenLogic",
      "outputs": [
        {
          "internalType": "contract ISuperToken",
          "name": "",
          "type": "address"
        }
      ],
      "stateMutability": "view",
      "type": "function"
    },
    {
      "inputs": [],
      "name": "initialize",
      "outputs": [],
      "stateMutability": "nonpayable",
      "type": "function"
    },
    {
      "inputs": [
        {
          "components": [
            {
              "internalType": "address",
              "name": "underlyingToken",
              "type": "address"
            },
            {
              "internalType": "address",
              "name": "superToken",
              "type": "address"
            }
          ],
          "internalType": "struct SuperTokenFactoryBase.InitializeData[]",
          "name": "_data",
          "type": "tuple[]"
        }
      ],
      "name": "initializeCanonicalWrapperSuperTokens",
      "outputs": [],
      "stateMutability": "nonpayable",
      "type": "function"
    },
    {
      "inputs": [
        {
          "internalType": "address",
          "name": "customSuperTokenProxy",
          "type": "address"
        }
      ],
      "name": "initializeCustomSuperToken",
      "outputs": [],
      "stateMutability": "nonpayable",
      "type": "function"
    },
    {
      "inputs": [],
      "name": "proxiableUUID",
      "outputs": [
        {
          "internalType": "bytes32",
          "name": "",
          "type": "bytes32"
        }
      ],
      "stateMutability": "pure",
      "type": "function"
    },
    {
      "inputs": [
        {
          "internalType": "address",
          "name": "newAddress",
          "type": "address"
        }
      ],
      "name": "updateCode",
      "outputs": [],
      "stateMutability": "nonpayable",
      "type": "function"
    }
  ],
  "bytecode": "0x6101006040523480156200001257600080fd5b5060405162001fe638038062001fe683398101604081905262000035916200010d565b6001600160a01b0380851660a052831660808190526040805163132075a760e31b81529051869286928692869291639903ad3891600480830192600092919082900301818387803b1580156200008a57600080fd5b505af11580156200009f573d6000803e3d6000fd5b5050506001600160a01b0380841660c05282811660e052608051604051911691507fc13fb19d60857980e565bf5dae406b8802d3c1cec50c6156b30b12b87402978390600090a2505050505050505062000175565b6001600160a01b03811681146200010a57600080fd5b50565b600080600080608085870312156200012457600080fd5b84516200013181620000f4565b60208601519094506200014481620000f4565b60408601519093506200015781620000f4565b60608601519092506200016a81620000f4565b939692955090935050565b60805160a05160c05160e051611df1620001f5600039600081816101f001526109760152600081816101c9015261085d015260008181610142015281816107390152610bcb01526000818161021c0152818161029d015281816104290152818161088c015281816109a501528181610e8c01526111410152611df16000f3fe608060405234801561001057600080fd5b506004361061010b5760003560e01c80638129fc1c116100a2578063a6d0c53411610071578063a6d0c53414610253578063bab74c8914610266578063cbf927b314610298578063d412d344146102bf578063eff0a89d146102d257600080fd5b80638129fc1c146102125780639470a5b21461021a57806397e011ed146102405780639903ad381461021257600080fd5b806350d75d25116100de57806350d75d251461018e57806352d1902d146101965780635365d19f146101c45780635a7792df146101eb57600080fd5b8063151188dc1461011057806320bc442514610140578063431f1481146101665780634695195414610179575b600080fd5b61012361011e366004611449565b6102fe565b6040516001600160a01b0390911681526020015b60405180910390f35b7f0000000000000000000000000000000000000000000000000000000000000000610123565b6101236101743660046114ca565b6106b1565b61018c610187366004611449565b61072e565b005b610123610a89565b6040517fb146a22bc9644a3313a7e28592f37d32718a2b618d3d136aa524b0d86b87b6208152602001610137565b6101237f000000000000000000000000000000000000000000000000000000000000000081565b6101237f000000000000000000000000000000000000000000000000000000000000000081565b61018c610ab8565b7f0000000000000000000000000000000000000000000000000000000000000000610123565b61018c61024e36600461155d565b610bc7565b6101236102613660046115e1565b610dd6565b610279610274366004611449565b611027565b604080516001600160a01b039093168352901515602083015201610137565b6101237f000000000000000000000000000000000000000000000000000000000000000081565b61018c6102cd366004611449565b61112a565b6101236102e0366004611449565b6001600160a01b039081166000908152600160205260409020541690565b600080805260016020527fa6eef7e35abe7026729641147f7915573c7e97b47efa546f5f6e3230263bcb49546001600160a01b0316610350576040516306ce6e6d60e21b815260040160405180910390fd5b6001600160a01b03808316600090815260016020526040902054839116801561038c576040516348eb3cb960e11b815260040160405180910390fd5b604080516001600160a01b0384166020820152600091016040516020818303038152906040528051906020012090506000816040516103ca9061141a565b8190604051809103906000f59050801580156103ea573d6000803e3d6000fd5b506001600160a01b038581166000908152600160205260409081902080546001600160a01b0319168484169081179091559051634a0687ef60e01b81527f00000000000000000000000000000000000000000000000000000000000000009092166004830152919250634a0687ef90602401600060405180830381600087803b15801561047657600080fd5b505af115801561048a573d6000803e3d6000fd5b5050505060008190506000876001600160a01b031663313ce5676040518163ffffffff1660e01b8152600401602060405180830381865afa1580156104d3573d6000803e3d6000fd5b505050506040513d601f19601f820116820180604052508101906104f79190611687565b90506000886001600160a01b03166306fdde036040518163ffffffff1660e01b8152600401600060405180830381865afa158015610539573d6000803e3d6000fd5b505050506040513d6000823e601f3d908101601f1916820160405261056191908101906116de565b90506000896001600160a01b03166395d89b416040518163ffffffff1660e01b8152600401600060405180830381865afa1580156105a3573d6000803e3d6000fd5b505050506040513d6000823e601f3d908101601f191682016040526105cb91908101906116de565b9050836001600160a01b03166342fe09808b85856040516020016105ef9190611780565b6040516020818303038152906040528560405160200161060f91906117ae565b6040516020818303038152906040526040518563ffffffff1660e01b815260040161063d94939291906117ff565b600060405180830381600087803b15801561065757600080fd5b505af115801561066b573d6000803e3d6000fd5b50506040516001600160a01b03871692507fb52c6d9d122e8c07769b96d7bb14e66db58ee03fdebaaa2f92547e9c7ef0e65f9150600090a2509198975050505050505050565b600061072387886001600160a01b031663313ce5676040518163ffffffff1660e01b8152600401602060405180830381865afa1580156106f5573d6000803e3d6000fd5b505050506040513d601f19601f820116820180604052508101906107199190611687565b8888888888610dd6565b979650505050505050565b336001600160a01b037f000000000000000000000000000000000000000000000000000000000000000016146107775760405163478b8e8360e01b815260040160405180910390fd5b610780816111e0565b60008190506000816001600160a01b0316635365d19f6040518163ffffffff1660e01b8152600401602060405180830381865afa1580156107c5573d6000803e3d6000fd5b505050506040513d601f19601f820116820180604052508101906107e9919061183e565b90506000826001600160a01b0316635a7792df6040518163ffffffff1660e01b8152600401602060405180830381865afa15801561082b573d6000803e3d6000fd5b505050506040513d601f19601f8201168201806040525081019061084f919061183e565b9050816001600160a01b03167f00000000000000000000000000000000000000000000000000000000000000006001600160a01b03161461096a577f00000000000000000000000000000000000000000000000000000000000000006001600160a01b031663ef43d2c66040518163ffffffff1660e01b8152600401602060405180830381865afa1580156108e8573d6000803e3d6000fd5b505050506040513d601f19601f8201168201806040525081019061090c919061183e565b6040516311a5465560e21b81526001600160a01b0384811660048301529190911690634695195490602401600060405180830381600087803b15801561095157600080fd5b505af1158015610965573d6000803e3d6000fd5b505050505b806001600160a01b03167f00000000000000000000000000000000000000000000000000000000000000006001600160a01b031614610a83577f00000000000000000000000000000000000000000000000000000000000000006001600160a01b0316634c5c0c856040518163ffffffff1660e01b8152600401602060405180830381865afa158015610a01573d6000803e3d6000fd5b505050506040513d601f19601f82011682018060405250810190610a25919061183e565b6040516311a5465560e21b81526001600160a01b0383811660048301529190911690634695195490602401600060405180830381600087803b158015610a6a57600080fd5b505af1158015610a7e573d6000803e3d6000fd5b505050505b50505050565b6000610ab37f360894a13ba1a3210667c828492db98dca3e2076cc3735a920a3ca505d382bbc5490565b905090565b600054610100900460ff1615808015610ad85750600054600160ff909116105b80610af25750303b158015610af2575060005460ff166001145b610b5a5760405162461bcd60e51b815260206004820152602e60248201527f496e697469616c697a61626c653a20636f6e747261637420697320616c72656160448201526d191e481a5b9a5d1a585b1a5e995960921b60648201526084015b60405180910390fd5b6000805460ff191660011790558015610b7d576000805461ff0019166101001790555b8015610bc4576000805461ff0019169055604051600181527f7f26b83ff96e1f2b6a682f133852f6798a09c465da95921460cefb3847402498906020015b60405180910390a15b50565b60007f00000000000000000000000000000000000000000000000000000000000000006001600160a01b031663289b3c0d6040518163ffffffff1660e01b8152600401602060405180830381865afa158015610c27573d6000803e3d6000fd5b505050506040513d601f19601f82011682018060405250810190610c4b919061183e565b9050806001600160a01b0316638da5cb5b6040518163ffffffff1660e01b8152600401602060405180830381865afa158015610c8b573d6000803e3d6000fd5b505050506040513d601f19601f82011682018060405250810190610caf919061183e565b6001600160a01b0316336001600160a01b031614610ce057604051632bf2a63360e21b815260040160405180910390fd5b6000805260016020527fa6eef7e35abe7026729641147f7915573c7e97b47efa546f5f6e3230263bcb49546001600160a01b031615610d32576040516348eb3cb960e11b815260040160405180910390fd5b60005b82811015610a8357838382818110610d4f57610d4f61185b565b9050604002016020016020810190610d679190611449565b60016000868685818110610d7d57610d7d61185b565b610d939260206040909202019081019150611449565b6001600160a01b039081168252602082019290925260400160002080546001600160a01b0319169290911691909117905580610dce81611871565b915050610d35565b60006001600160a01b038816610dff5760405163182e4f4160e11b815260040160405180910390fd5b6000866002811115610e1357610e13611898565b03610e315760405163c4901a4360e01b815260040160405180910390fd5b6001866002811115610e4557610e45611898565b03610efd576000604051610e589061141a565b604051809103906000f080158015610e74573d6000803e3d6000fd5b50604051634a0687ef60e01b81526001600160a01b037f00000000000000000000000000000000000000000000000000000000000000008116600483015291925090821690634a0687ef90602401600060405180830381600087803b158015610edc57600080fd5b505af1158015610ef0573d6000803e3d6000fd5b5050505080915050610f81565b6000604051610f0b90611427565b604051809103906000f080158015610f27573d6000803e3d6000fd5b509050806001600160a01b0316638129fc1c6040518163ffffffff1660e01b8152600401600060405180830381600087803b158015610f6557600080fd5b505af1158015610f79573d6000803e3d6000fd5b509293505050505b6040516285fc1360e71b81526001600160a01b038216906342fe098090610fb6908b908b908a908a908a908a906004016118d7565b600060405180830381600087803b158015610fd057600080fd5b505af1158015610fe4573d6000803e3d6000fd5b50506040516001600160a01b03841692507fb52c6d9d122e8c07769b96d7bb14e66db58ee03fdebaaa2f92547e9c7ef0e65f9150600090a2979650505050505050565b6001600160a01b03808216600090815260016020526040812054909182911680156110585780925060019150611124565b60006040518060200161106a9061141a565b601f1982820381018352601f9091011660408181526001600160a01b03881660208301529192506001600160f81b03199130910160405160208183030381529060405280519060200120838051906020012060405160200161110394939291906001600160f81b031994909416845260609290921b6bffffffffffffffffffffffff191660018401526015830152603582015260550190565b6040516020818303038152906040528051906020012060001c935060009250505b50915091565b604051634a0687ef60e01b81526001600160a01b037f000000000000000000000000000000000000000000000000000000000000000081166004830152829190821690634a0687ef90602401600060405180830381600087803b15801561119057600080fd5b505af11580156111a4573d6000803e3d6000fd5b50506040516001600160a01b03851692507f437790724a6e97b75d23117f28cdd4b1beeafc34f7a0911ef256e9334f4369a59150600090a25050565b600061120a7f360894a13ba1a3210667c828492db98dca3e2076cc3735a920a3ca505d382bbc5490565b6001600160a01b0316036112605760405162461bcd60e51b815260206004820152601d60248201527f5555505350726f786961626c653a206e6f742075706772616461626c650000006044820152606401610b51565b806001600160a01b03166352d1902d6040518163ffffffff1660e01b8152600401602060405180830381865afa15801561129e573d6000803e3d6000fd5b505050506040513d601f19601f820116820180604052508101906112c29190611925565b7fb146a22bc9644a3313a7e28592f37d32718a2b618d3d136aa524b0d86b87b6201461133c5760405162461bcd60e51b815260206004820152602360248201527f5555505350726f786961626c653a206e6f7420636f6d70617469626c65206c6f60448201526267696360e81b6064820152608401610b51565b6001600160a01b03811630036113945760405162461bcd60e51b815260206004820152601960248201527f5555505350726f786961626c653a2070726f7879206c6f6f70000000000000006044820152606401610b51565b6113bc817f360894a13ba1a3210667c828492db98dca3e2076cc3735a920a3ca505d382bbc55565b7fe011bc04c286c344a8fcbb8de77f953da762c3e25d8cdea984147fc4168a5dcc7fb146a22bc9644a3313a7e28592f37d32718a2b618d3d136aa524b0d86b87b620604080519182526001600160a01b038416602083015201610bbb565b61024a8061193f83390190565b61023380611b8983390190565b6001600160a01b0381168114610bc457600080fd5b60006020828403121561145b57600080fd5b813561146681611434565b9392505050565b80356003811061147c57600080fd5b919050565b60008083601f84011261149357600080fd5b50813567ffffffffffffffff8111156114ab57600080fd5b6020830191508360208285010111156114c357600080fd5b9250929050565b600080600080600080608087890312156114e357600080fd5b86356114ee81611434565b95506114fc6020880161146d565b9450604087013567ffffffffffffffff8082111561151957600080fd5b6115258a838b01611481565b9096509450606089013591508082111561153e57600080fd5b5061154b89828a01611481565b979a9699509497509295939492505050565b6000806020838503121561157057600080fd5b823567ffffffffffffffff8082111561158857600080fd5b818501915085601f83011261159c57600080fd5b8135818111156115ab57600080fd5b8660208260061b85010111156115c057600080fd5b60209290920196919550909350505050565b60ff81168114610bc457600080fd5b600080600080600080600060a0888a0312156115fc57600080fd5b873561160781611434565b96506020880135611617816115d2565b95506116256040890161146d565b9450606088013567ffffffffffffffff8082111561164257600080fd5b61164e8b838c01611481565b909650945060808a013591508082111561166757600080fd5b506116748a828b01611481565b989b979a50959850939692959293505050565b60006020828403121561169957600080fd5b8151611466816115d2565b634e487b7160e01b600052604160045260246000fd5b60005b838110156116d55781810151838201526020016116bd565b50506000910152565b6000602082840312156116f057600080fd5b815167ffffffffffffffff8082111561170857600080fd5b818401915084601f83011261171c57600080fd5b81518181111561172e5761172e6116a4565b604051601f8201601f19908116603f01168101908382118183101715611756576117566116a4565b8160405282815287602084870101111561176f57600080fd5b6107238360208301602088016116ba565b65029bab832b9160d51b8152600082516117a18160068501602087016116ba565b9190910160060192915050565b600082516117c08184602087016116ba565b600f60fb1b920191825250600101919050565b600081518084526117eb8160208601602086016116ba565b601f01601f19169290920160200192915050565b6001600160a01b038516815260ff8416602082015260806040820181905260009061182c908301856117d3565b828103606084015261072381856117d3565b60006020828403121561185057600080fd5b815161146681611434565b634e487b7160e01b600052603260045260246000fd5b60006001820161189157634e487b7160e01b600052601160045260246000fd5b5060010190565b634e487b7160e01b600052602160045260246000fd5b81835281816020850137506000828201602090810191909152601f909101601f19169091010190565b6001600160a01b038716815260ff8616602082015260806040820181905260009061190590830186886118ae565b82810360608401526119188185876118ae565b9998505050505050505050565b60006020828403121561193757600080fd5b505191905056fe608060405234801561001057600080fd5b5061022a806100206000396000f3fe6080604052600436106100225760003560e01c80634a0687ef1461003957610031565b366100315761002f610059565b005b61002f610059565b34801561004557600080fd5b5061002f6100543660046101c4565b61006b565b610069610064610171565b6101a0565b565b6001600160a01b0381166100c65760405162461bcd60e51b815260206004820152601760248201527f5555505350726f78793a207a65726f206164647265737300000000000000000060448201526064015b60405180910390fd5b60006100f07f360894a13ba1a3210667c828492db98dca3e2076cc3735a920a3ca505d382bbc5490565b6001600160a01b0316146101465760405162461bcd60e51b815260206004820152601e60248201527f5555505350726f78793a20616c726561647920696e697469616c697a6564000060448201526064016100bd565b61016e817f360894a13ba1a3210667c828492db98dca3e2076cc3735a920a3ca505d382bbc55565b50565b600061019b7f360894a13ba1a3210667c828492db98dca3e2076cc3735a920a3ca505d382bbc5490565b905090565b3660008037600080366000845af43d6000803e8080156101bf573d6000f35b3d6000fd5b6000602082840312156101d657600080fd5b81356001600160a01b03811681146101ed57600080fd5b939250505056fea26469706673582212207b854fb470c84fe2f7ac8508498d435a5f32ef93071c687a148ef683fa3ede9964736f6c63430008130033608060405234801561001057600080fd5b50610213806100206000396000f3fe6080604052600436106100225760003560e01c80638129fc1c1461003957610031565b366100315761002f61004e565b005b61002f61004e565b34801561004557600080fd5b5061002f610060565b61005e6100596100d0565b610173565b565b7fb8fcd5719b3ddf8626f3664705a89b7fc476129a58c1aa5eda57c600cc1821a0546001600160a01b038116156100aa576040516305c5d81960e01b815260040160405180910390fd5b50337fb8fcd5719b3ddf8626f3664705a89b7fc476129a58c1aa5eda57c600cc1821a055565b7fb8fcd5719b3ddf8626f3664705a89b7fc476129a58c1aa5eda57c600cc1821a0546000906001600160a01b03811661010b5761010b610197565b806001600160a01b0316639470a5b26040518163ffffffff1660e01b8152600401602060405180830381865afa158015610149573d6000803e3d6000fd5b505050506040513d601f19601f8201168201806040525081019061016d91906101ad565b91505090565b3660008037600080366000845af43d6000803e808015610192573d6000f35b3d6000fd5b634e487b7160e01b600052600160045260246000fd5b6000602082840312156101bf57600080fd5b81516001600160a01b03811681146101d657600080fd5b939250505056fea26469706673582212207d44b05228bdcf5cefb65c8fdbcc34385327dcb46cddd6f9c6144082d522ebd264736f6c63430008130033a2646970667358221220848ad363aafe29d3adce1a44fb10743c84009464681e0a7fe3dfddb00ef3bdb264736f6c63430008130033",
  "immutableReferences": {
    "42000": [
      {
        "length": 32,
        "start": 540
      },
      {
        "length": 32,
        "start": 669
      },
      {
        "length": 32,
        "start": 1065
      },
      {
        "length": 32,
        "start": 2188
      },
      {
        "length": 32,
        "start": 2469
      },
      {
        "length": 32,
        "start": 3724
      },
      {
        "length": 32,
        "start": 4417
      }
    ],
    "42003": [
      {
        "length": 32,
        "start": 322
      },
      {
        "length": 32,
        "start": 1849
      },
      {
        "length": 32,
        "start": 3019
      }
    ],
    "42006": [
      {
        "length": 32,
        "start": 457
      },
      {
        "length": 32,
        "start": 2141
      }
    ],
    "42009": [
      {
        "length": 32,
        "start": 496
      },
      {
        "length": 32,
        "start": 2422
      }
    ]
  },
  "source": "// SPDX-License-Identifier: AGPLv3\npragma solidity 0.8.19;\n\nimport { Ownable } from \"@openzeppelin/contracts/access/Ownable.sol\";\nimport {\n    ISuperTokenFactory,\n    ISuperToken,\n    IERC20,\n    ERC20WithTokenInfo\n} from \"../interfaces/superfluid/ISuperTokenFactory.sol\";\nimport { ISuperfluid } from \"../interfaces/superfluid/ISuperfluid.sol\";\nimport { UUPSProxy } from \"../upgradability/UUPSProxy.sol\";\nimport { UUPSProxiable } from \"../upgradability/UUPSProxiable.sol\";\nimport { SuperToken } from \"../superfluid/SuperToken.sol\";\nimport { FullUpgradableSuperTokenProxy } from \"./FullUpgradableSuperTokenProxy.sol\";\nimport { ConstantOutflowNFT, IConstantOutflowNFT } from \"../superfluid/ConstantOutflowNFT.sol\";\nimport { ConstantInflowNFT, IConstantInflowNFT } from \"../superfluid/ConstantInflowNFT.sol\";\n\nabstract contract SuperTokenFactoryBase is\n    UUPSProxiable,\n    ISuperTokenFactory\n{\n    struct InitializeData {\n        address underlyingToken;\n        address superToken;\n    }\n\n    /**************************************************************************\n    * Immutable Variables\n    **************************************************************************/\n\n    // solhint-disable-next-line var-name-mixedcase\n    ISuperToken immutable public _SUPER_TOKEN_LOGIC;\n\n    ISuperfluid immutable internal _host;\n\n    // solhint-disable-next-line var-name-mixedcase\n    IConstantOutflowNFT immutable public CONSTANT_OUTFLOW_NFT_LOGIC;\n\n    // solhint-disable-next-line var-name-mixedcase\n    IConstantInflowNFT immutable public CONSTANT_INFLOW_NFT_LOGIC;\n\n    /**************************************************************************\n    * Storage Variables\n    **************************************************************************/\n\n    /* WARNING: NEVER RE-ORDER VARIABLES! Including the base contracts.\n        Always double-check that new\n        variables are added APPEND-ONLY. Re-ordering variables can\n        permanently BREAK the deployed proxy contract. */\n\n    // @dev This is the old SuperToken logic contract that is no longer used\n    // It is kept here for backwards compatibility due to the fact that we cannot\n    // change the storage layout of the contract\n    ISuperToken internal _superTokenLogicDeprecated;\n\n    /// @notice A mapping from underlying token addresses to canonical wrapper super token addresses\n    /// @dev Reasoning: (1) provide backwards compatibility for existing listed wrapper super tokens\n    /// @dev (2) prevent address retrieval issues if we ever choose to modify the bytecode of the UUPSProxy contract\n    /// @dev NOTE: address(0) key points to the NativeAssetSuperToken on the network.\n    mapping(address => address) internal _canonicalWrapperSuperTokens;\n\n    /// NOTE: Whenever modifying the storage layout here it is important to update the validateStorageLayout\n    /// function in its respective mock contract to ensure that it doesn't break anything or lead to unexpected\n    /// behaviors/layout when upgrading\n\n    error SUPER_TOKEN_FACTORY_ONLY_GOVERNANCE_OWNER();\n\n    constructor(\n        ISuperfluid host,\n        ISuperToken superTokenLogic,\n        IConstantOutflowNFT constantOutflowNFTLogic,\n        IConstantInflowNFT constantInflowNFTLogic\n    ) {\n        _host = host;\n\n        // SuperToken logic is now deployed prior to new factory logic deployment\n        // and passed in as a parameter to SuperTokenFactory constructor\n        _SUPER_TOKEN_LOGIC = superTokenLogic;\n\n        UUPSProxiable(address(_SUPER_TOKEN_LOGIC)).castrate();\n\n        CONSTANT_OUTFLOW_NFT_LOGIC = constantOutflowNFTLogic;\n\n        CONSTANT_INFLOW_NFT_LOGIC = constantInflowNFTLogic;\n\n        // emit SuperTokenLogicCreated event\n        // note that creation here means the setting of the super token logic contract\n        // as the canonical super token logic for the Superfluid framework and not the\n        // actual contract creation\n        emit SuperTokenLogicCreated(_SUPER_TOKEN_LOGIC);\n    }\n\n    /// @inheritdoc ISuperTokenFactory\n    function getHost()\n       external view\n       override(ISuperTokenFactory)\n       returns(address host)\n    {\n       return address(_host);\n    }\n\n    /**************************************************************************\n    * UUPSProxiable\n    **************************************************************************/\n    /// @inheritdoc ISuperTokenFactory\n    function initialize()\n        external\n        override\n        initializer // OpenZeppelin Initializable\n    // solhint-disable-next-line no-empty-blocks\n    {\n\n    }\n\n    function proxiableUUID() public pure override returns (bytes32) {\n        return keccak256(\"org.superfluid-finance.contracts.SuperTokenFactory.implementation\");\n    }\n\n    /// @notice Updates the logic contract for the SuperTokenFactory\n    /// @dev This function updates the logic contract for the SuperTokenFactory\n    /// @param newAddress the new address of the SuperTokenFactory logic contract\n    function updateCode(address newAddress) external override {\n        if (msg.sender != address(_host)) {\n            revert SUPER_TOKEN_FACTORY_ONLY_HOST();\n        }\n        _updateCodeAddress(newAddress);\n\n        // Upgrade the Flow NFT logic contracts on the canonical proxies\n        // We only do this if the new logic contracts passed in updating the SuperTokenFactory\n        // are different from the current logic contracts\n        SuperTokenFactory newFactory = SuperTokenFactory(newAddress);\n        address newConstantOutflowLogic = address(newFactory.CONSTANT_OUTFLOW_NFT_LOGIC());\n        address newConstantInflowLogic = address(newFactory.CONSTANT_INFLOW_NFT_LOGIC());\n\n        if (address(CONSTANT_OUTFLOW_NFT_LOGIC) != newConstantOutflowLogic) {\n            UUPSProxiable(address(_SUPER_TOKEN_LOGIC.CONSTANT_OUTFLOW_NFT())).updateCode(newConstantOutflowLogic);\n        }\n\n        if (address(CONSTANT_INFLOW_NFT_LOGIC) != newConstantInflowLogic) {\n            UUPSProxiable(address(_SUPER_TOKEN_LOGIC.CONSTANT_INFLOW_NFT())).updateCode(newConstantInflowLogic);\n        }\n    }\n\n    /**************************************************************************\n    * ISuperTokenFactory\n    **************************************************************************/\n    /// @inheritdoc ISuperTokenFactory\n    function getSuperTokenLogic()\n        external view override\n        returns (ISuperToken)\n    {\n        return _SUPER_TOKEN_LOGIC;\n    }\n\n    /// @inheritdoc ISuperTokenFactory\n    function createCanonicalERC20Wrapper(ERC20WithTokenInfo _underlyingToken)\n        external\n        returns (ISuperToken)\n    {\n        // we use this to check if we have initialized the _canonicalWrapperSuperTokens mapping\n        // @note we must set this during initialization\n        if (_canonicalWrapperSuperTokens[address(0)] == address(0)) {\n            revert SUPER_TOKEN_FACTORY_UNINITIALIZED();\n        }\n\n        address underlyingTokenAddress = address(_underlyingToken);\n        address canonicalSuperTokenAddress = _canonicalWrapperSuperTokens[\n                underlyingTokenAddress\n            ];\n\n        // if the canonical super token address exists, revert with custom error\n        if (canonicalSuperTokenAddress != address(0)) {\n            revert SUPER_TOKEN_FACTORY_ALREADY_EXISTS();\n        }\n\n        // use create2 to deterministically create the proxy contract for the wrapper super token\n        bytes32 salt = keccak256(abi.encode(underlyingTokenAddress));\n        UUPSProxy proxy = new UUPSProxy{ salt: salt }();\n\n        // NOTE: address(proxy) is equivalent to address(superToken)\n        _canonicalWrapperSuperTokens[underlyingTokenAddress] = address(\n            proxy\n        );\n\n        // set the implementation/logic contract address for the newly deployed proxy\n        proxy.initializeProxy(address(_SUPER_TOKEN_LOGIC));\n\n        // cast it as the same type as the logic contract\n        ISuperToken superToken = ISuperToken(address(proxy));\n\n        // get underlying token info\n        uint8 underlyingDecimals = _underlyingToken.decimals();\n        string memory underlyingName = _underlyingToken.name();\n        string memory underlyingSymbol = _underlyingToken.symbol();\n        // initialize the contract (proxy constructor)\n        superToken.initialize(\n            _underlyingToken,\n            underlyingDecimals,\n            string.concat(\"Super \", underlyingName),\n            string.concat(underlyingSymbol, \"x\")\n        );\n\n        emit SuperTokenCreated(superToken);\n\n        return superToken;\n    }\n\n    /// @inheritdoc ISuperTokenFactory\n    function createERC20Wrapper(\n        IERC20 underlyingToken,\n        uint8 underlyingDecimals,\n        Upgradability upgradability,\n        string calldata name,\n        string calldata symbol\n    )\n        public override\n        returns (ISuperToken superToken)\n    {\n        if (address(underlyingToken) == address(0)) {\n            revert SUPER_TOKEN_FACTORY_ZERO_ADDRESS();\n        }\n\n        if (upgradability == Upgradability.NON_UPGRADABLE) {\n            revert SUPER_TOKEN_FACTORY_NON_UPGRADEABLE_IS_DEPRECATED();\n        } else if (upgradability == Upgradability.SEMI_UPGRADABLE) {\n            UUPSProxy proxy = new UUPSProxy();\n            // initialize the wrapper\n            proxy.initializeProxy(address(_SUPER_TOKEN_LOGIC));\n            superToken = ISuperToken(address(proxy));\n        } else /* if (type == Upgradability.FULL_UPGRADABLE) */ {\n            FullUpgradableSuperTokenProxy proxy = new FullUpgradableSuperTokenProxy();\n            proxy.initialize();\n            superToken = ISuperToken(address(proxy));\n        }\n\n        // initialize the token\n        superToken.initialize(\n            underlyingToken,\n            underlyingDecimals,\n            name,\n            symbol\n        );\n\n        emit SuperTokenCreated(superToken);\n    }\n\n    /// @inheritdoc ISuperTokenFactory\n    function createERC20Wrapper(\n        ERC20WithTokenInfo underlyingToken,\n        Upgradability upgradability,\n        string calldata name,\n        string calldata symbol\n    )\n        external override\n        returns (ISuperToken superToken)\n    {\n        return createERC20Wrapper(\n            underlyingToken,\n            underlyingToken.decimals(),\n            upgradability,\n            name,\n            symbol\n        );\n    }\n\n    /// @inheritdoc ISuperTokenFactory\n    function initializeCustomSuperToken(\n        address customSuperTokenProxy\n    )\n        external override\n    {\n        // odd solidity stuff..\n        // NOTE payable necessary because UUPSProxy has a payable fallback function\n        address payable a = payable(address(uint160(customSuperTokenProxy)));\n        UUPSProxy(a).initializeProxy(address(_SUPER_TOKEN_LOGIC));\n\n        emit CustomSuperTokenCreated(ISuperToken(customSuperTokenProxy));\n    }\n\n    /// @inheritdoc ISuperTokenFactory\n    function computeCanonicalERC20WrapperAddress(address _underlyingToken)\n        external\n        view\n        returns (address superTokenAddress, bool isDeployed)\n    {\n        address existingAddress = _canonicalWrapperSuperTokens[\n            _underlyingToken\n        ];\n\n        if (existingAddress != address(0)) {\n            superTokenAddress = existingAddress;\n            isDeployed = true;\n        } else {\n            bytes memory bytecode = type(UUPSProxy).creationCode;\n            superTokenAddress = address(\n                uint160(\n                    uint256(\n                        keccak256(\n                            abi.encodePacked(\n                                bytes1(0xff),\n                                address(this),\n                                keccak256(abi.encode(_underlyingToken)),\n                                keccak256(bytecode)\n                            )\n                        )\n                    )\n                )\n            );\n            isDeployed = false;\n        }\n    }\n\n    /// @inheritdoc ISuperTokenFactory\n    function getCanonicalERC20Wrapper(address _underlyingTokenAddress)\n        external\n        view\n        returns (address superTokenAddress)\n    {\n        superTokenAddress = _canonicalWrapperSuperTokens[\n            _underlyingTokenAddress\n        ];\n    }\n\n    /// @notice Initializes list of canonical wrapper super tokens.\n    /// @dev Note that this should also be kind of a throwaway function which will be executed only once.\n    /// @param _data an array of canonical wrappper super tokens to be set\n    function initializeCanonicalWrapperSuperTokens(\n        InitializeData[] calldata _data\n    ) external virtual  {\n        Ownable gov = Ownable(address(_host.getGovernance()));\n        if (msg.sender != gov.owner()) revert SUPER_TOKEN_FACTORY_ONLY_GOVERNANCE_OWNER();\n\n        // once the list has been set, it cannot be reset\n        // @note this means that we must set the 0 address (Native Asset Super Token) when we call this the first time\n        if (_canonicalWrapperSuperTokens[address(0)] != address(0)) {\n            revert SUPER_TOKEN_FACTORY_ALREADY_EXISTS();\n        }\n\n        // initialize mapping\n        for (uint256 i = 0; i < _data.length; i++) {\n            _canonicalWrapperSuperTokens[_data[i].underlyingToken] = _data[i]\n                .superToken;\n        }\n    }\n}\n\ncontract SuperTokenFactory is SuperTokenFactoryBase\n{\n    /* WARNING: NEVER RE-ORDER VARIABLES! Including the base contracts.\n        Always double-check that new\n        variables are added APPEND-ONLY. Re-ordering variables can\n        permanently BREAK the deployed proxy contract. */\n\n    constructor(\n        ISuperfluid host,\n        ISuperToken superTokenLogic,\n        IConstantOutflowNFT constantOutflowNFT,\n        IConstantInflowNFT constantInflowNFT\n    )\n        SuperTokenFactoryBase(\n            host,\n            superTokenLogic,\n            constantOutflowNFT,\n            constantInflowNFT\n        )\n    // solhint-disable-next-line no-empty-blocks\n    {\n\n    }\n}\n",
  "sourcePath": "/home/runner/work/protocol-monorepo/protocol-monorepo/packages/ethereum-contracts/contracts/superfluid/SuperTokenFactory.sol",
  "compiler": {
    "name": "solc",
    "version": "0.8.19+commit.7dd6d404.Emscripten.clang"
  },
  "schemaVersion": "3.4.13",
  "updatedAt": "2023-06-28T07:36:00.359Z",
  "devdoc": {
    "events": {
      "CustomSuperTokenCreated(address)": {
        "details": "Custom super token created event",
        "params": {
          "token": "Newly created custom super token address"
        }
      },
      "Initialized(uint8)": {
        "details": "Triggered when the contract has been initialized or reinitialized."
      },
      "SuperTokenCreated(address)": {
        "details": "Super token created event",
        "params": {
          "token": "Newly created super token address"
        }
      },
      "SuperTokenLogicCreated(address)": {
        "details": "Super token logic created event",
        "params": {
          "tokenLogic": "Token logic address"
        }
      }
    },
    "kind": "dev",
    "methods": {
      "computeCanonicalERC20WrapperAddress(address)": {
        "details": "We return from our canonical list if it already exists, otherwise we compute itnote that this function only computes addresses for SEMI_UPGRADABLE SuperTokens",
        "params": {
          "_underlyingToken": "Underlying ERC20 token address"
        },
        "returns": {
          "isDeployed": "whether the super token is deployed AND set in the canonical mapping",
          "superTokenAddress": "Super token address"
        }
      },
      "createCanonicalERC20Wrapper(address)": {
        "details": "salt for create2 is the keccak256 hash of abi.encode(address(_underlyingToken))",
        "params": {
          "_underlyingToken": "Underlying ERC20 token"
        },
        "returns": {
          "_0": "ISuperToken the created supertoken"
        }
      },
      "createERC20Wrapper(address,uint8,string,string)": {
        "params": {
          "name": "Super token name",
          "symbol": "Super token symbol",
          "underlyingToken": "Underlying ERC20 token",
          "upgradability": "Upgradability mode"
        },
        "returns": {
          "superToken": "The deployed and initialized wrapper super token NOTE: - It assumes token provide the .decimals() function"
        }
      },
      "createERC20Wrapper(address,uint8,uint8,string,string)": {
        "params": {
          "name": "Super token name",
          "symbol": "Super token symbol",
          "underlyingDecimals": "Underlying token decimals",
          "underlyingToken": "Underlying ERC20 token",
          "upgradability": "Upgradability mode"
        },
        "returns": {
          "superToken": "The deployed and initialized wrapper super token"
        }
      },
      "getCanonicalERC20Wrapper(address)": {
        "details": "We return the address if it exists and the zero address otherwise",
        "params": {
          "_underlyingTokenAddress": "Underlying ERC20 token address"
        },
        "returns": {
          "superTokenAddress": "Super token address"
        }
      },
      "getCodeAddress()": {
        "details": "Get current implementation code address."
      },
      "getHost()": {
        "details": "Get superfluid host contract address"
      },
      "initialize()": {
        "details": "Initialize the contract"
      },
      "initializeCanonicalWrapperSuperTokens((address,address)[])": {
        "details": "Note that this should also be kind of a throwaway function which will be executed only once.",
        "params": {
          "_data": "an array of canonical wrappper super tokens to be set"
        }
      },
      "initializeCustomSuperToken(address)": {
        "details": "Creates a new custom super token",
        "params": {
          "customSuperTokenProxy": "address of the custom supertoken proxy"
        }
      },
      "proxiableUUID()": {
        "details": "Proxiable UUID marker function, this would help to avoid wrong logic      contract to be used for upgrading. NOTE: The semantics of the UUID deviates from the actual UUPS standard,       where it is equivalent of _IMPLEMENTATION_SLOT."
      },
      "updateCode(address)": {
        "details": "This function updates the logic contract for the SuperTokenFactory",
        "params": {
          "newAddress": "the new address of the SuperTokenFactory logic contract"
        }
      }
    },
    "version": 1
  },
  "userdoc": {
    "errors": {
      "SUPER_TOKEN_FACTORY_ONLY_GOVERNANCE_OWNER()": [
        {
          "notice": "NOTE: Whenever modifying the storage layout here it is important to update the validateStorageLayout function in its respective mock contract to ensure that it doesn't break anything or lead to unexpected behaviors/layout when upgrading"
        }
      ]
    },
    "kind": "user",
    "methods": {
      "computeCanonicalERC20WrapperAddress(address)": {
        "notice": "Computes/Retrieves wrapper super token address given the underlying token address"
      },
      "createCanonicalERC20Wrapper(address)": {
        "notice": "Creates a wrapper super token AND sets it in the canonical list OR reverts if it already exists"
      },
      "createERC20Wrapper(address,uint8,string,string)": {
        "notice": "Create new super token wrapper for the underlying ERC20 token with extra token info"
      },
      "createERC20Wrapper(address,uint8,uint8,string,string)": {
        "notice": "Create new super token wrapper for the underlying ERC20 token"
      },
      "getCanonicalERC20Wrapper(address)": {
        "notice": "Gets the canonical ERC20 wrapper super token address given the underlying token address"
      },
      "getSuperTokenLogic()": {
        "notice": "Get the canonical super token logic."
      },
      "initializeCanonicalWrapperSuperTokens((address,address)[])": {
        "notice": "Initializes list of canonical wrapper super tokens."
      },
      "updateCode(address)": {
        "notice": "Updates the logic contract for the SuperTokenFactory"
      }
    },
    "version": 1
  }
}