{
  "contractName": "SuperfluidLoaderLibrary",
  "abi": [
    {
      "inputs": [],
      "name": "UnsupportedNetwork",
      "type": "error"
    },
    {
      "inputs": [],
      "name": "getHost",
      "outputs": [
        {
          "internalType": "address",
          "name": "",
          "type": "address"
        }
      ],
      "stateMutability": "view",
      "type": "function"
    }
  ],
  "bytecode": "0x6102ab61003a600b82828239805160001a60731461002d57634e487b7160e01b600052600060045260246000fd5b30600052607381538281f3fe73000000000000000000000000000000000000000030146080604052600436106100355760003560e01c806320bc44251461003a575b600080fd5b61004261005e565b6040516001600160a01b03909116815260200160405180910390f35b6000600146036100815750734e583d9390082b65bef884b629dfa426114ced6d90565b600a46036100a2575073567c4b141ed61923967ca25ef4906c8781069a1090565b603846036100c3575073d1e2cfb6441680002eb7a44223160ab9b67d7e6e90565b606446036100e45750732dfe937cd98ab92e59cf3139138f18c823a4efe790565b608946036101055750733e14dc1b13c488a8d5d310918780c983bd5982e790565b61a4b14603610127575073cf8acb4ef033eff16e8080aed4c7d5b9285d219290565b61a4ec4603610149575073a4ff07cf81c02cfd356184879d953970ca95758590565b61a86a460361016b57507360377c7016e4cdb03c87ef474896c11cb560752c90565b6005460361018c57507322ff293e14f1ec3a09b137e9e06084afd63addf990565b62066eed46036101af575073e40983c2476032a0915600b9472b3141aa5b5ba990565b6101a446036101d1575073e40983c2476032a0915600b9472b3141aa5b5ba990565b61a86946036101f357507385fe79b998509b77bf10a8bd4001d58475d2938690565b620138814603610216575073eb796bdb90ffa0f28255275e16936d25d341860390565b62aa36a74603610239575073109412e3c84f0539b43d39db691b08c90f58dc7c90565b62014a33460361025c575073507c3a7c6ccc253884a2e3a3ee2a211cc7e796a690565b604051633732a25760e11b815260040160405180910390fdfea2646970667358221220bfcda138ec4b35cb3d7afd9128958dfc927c7de3cc8948320718cdda6fa220fb64736f6c63430008130033",
  "immutableReferences": {},
  "source": "// SPDX-License-Identifier: MIT\npragma solidity 0.8.19;\n\nlibrary SuperfluidLoaderLibrary {\n    error UnsupportedNetwork();\n\n    // mainnet\n    uint256 private constant ETH_MAINNET = 1;\n    uint256 private constant OPTIMISM_MAINNET = 10;\n    uint256 private constant BSC_MAINNET = 56;\n    uint256 private constant XDAI_MAINNET = 100;\n    uint256 private constant POLYGON_MAINNET = 137;\n    uint256 private constant ARBITRUM_ONE = 42161;\n    uint256 private constant CELO_MAINNET = 42220;\n    uint256 private constant AVALANCHE_C = 43114;\n\n    // testnets\n    uint256 private constant ETH_GOERLI = 5;\n    uint256 private constant ETH_SEPOLIA = 11155111;\n    uint256 private constant BASE_GOERLI = 84531;\n    uint256 private constant POLYGON_MUMBAI = 80001;\n    uint256 private constant ARBITRUM_GOERLI = 421613;\n    uint256 private constant OPTIMISM_GOERLI = 420;\n    uint256 private constant AVALANCHE_FUJI = 43113;\n    \n\n    function getHost() public view returns (address) {\n        if (block.chainid == ETH_MAINNET) {\n            return 0x4E583d9390082B65Bef884b629DFA426114CED6d;\n        } else if (block.chainid == OPTIMISM_MAINNET) {\n            return 0x567c4B141ED61923967cA25Ef4906C8781069a10;\n        } else if (block.chainid == BSC_MAINNET) {\n            return 0xd1e2cFb6441680002Eb7A44223160aB9B67d7E6E;\n        } else if (block.chainid == XDAI_MAINNET) {\n            return 0x2dFe937cD98Ab92e59cF3139138f18c823a4efE7;\n        } else if (block.chainid == POLYGON_MAINNET) {\n            return 0x3E14dC1b13c488a8d5D310918780c983bD5982E7;\n        } else if (block.chainid == ARBITRUM_ONE) {\n            return 0xCf8Acb4eF033efF16E8080aed4c7D5B9285D2192;\n        } else if (block.chainid == CELO_MAINNET) {\n            return 0xA4Ff07cF81C02CFD356184879D953970cA957585;\n        } else if (block.chainid == AVALANCHE_C) {\n            return 0x60377C7016E4cdB03C87EF474896C11cB560752C;\n        } else if (block.chainid == ETH_GOERLI) {\n            return 0x22ff293e14F1EC3A09B137e9e06084AFd63adDF9;\n        } else if (block.chainid == ARBITRUM_GOERLI) {\n            return 0xE40983C2476032A0915600b9472B3141aA5B5Ba9;\n        } else if (block.chainid == OPTIMISM_GOERLI) {\n            return 0xE40983C2476032A0915600b9472B3141aA5B5Ba9;\n        } else if (block.chainid == AVALANCHE_FUJI) {\n            return 0x85Fe79b998509B77BF10A8BD4001D58475D29386;\n        } else if (block.chainid == POLYGON_MUMBAI) {\n            return 0xEB796bdb90fFA0f28255275e16936D25d3418603;\n        } else if (block.chainid == ETH_SEPOLIA) {\n            return 0x109412E3C84f0539b43d39dB691B08c90f58dC7c;\n         } else if (block.chainid == BASE_GOERLI) {\n            return 0x507c3a7C6Ccc253884A2e3a3ee2A211cC7E796a6;\n        } else {\n            revert UnsupportedNetwork();\n        }\n    }\n}\n",
  "sourcePath": "/home/runner/work/protocol-monorepo/protocol-monorepo/packages/ethereum-contracts/contracts/apps/SuperfluidLoaderLibrary.sol",
  "compiler": {
    "name": "solc",
    "version": "0.8.19+commit.7dd6d404.Emscripten.clang"
  },
  "schemaVersion": "3.4.13",
  "updatedAt": "2023-06-28T07:35:59.717Z",
  "devdoc": {
    "kind": "dev",
    "methods": {},
    "version": 1
  },
  "userdoc": {
    "kind": "user",
    "methods": {},
    "version": 1
  }
}